:020000040800F2
:10000000600200207D0200088102000883020008CF
:10001000850200088702000889020008000000002D
:100020000000000000000000000000008B0200083B
:100030008D020008000000008F02000891020008F5
:10004000930200089302000893020008930200083C
:10005000930200089302000893020008930200082C
:10006000930200089302000893020008930200081C
:10007000930200089302000893020008930200080C
:1000800093020008930200089302000893020008FC
:1000900093020008930200089302000893020008EC
:1000A00093020008930200089302000893020008DC
:1000B00093020008930200089302000893020008CC
:1000C00093020008930200089302000893020008BC
:1000D00093020008930200089302000893020008AC
:1000E00093020008930200089302000800F002F84F
:1000F00000F02EF80AA090E8000C82448344AAF194
:100100000107DA4501D100F023F8AFF2090EBAE891
:100110000F0013F0010F18BFFB1A43F0010318473B
:100120001C0200002C0200000023002400250026F1
:10013000103A28BF78C1FBD8520728BF30C148BF4A
:100140000B6070471FB500F0F2F81FBD10B510BD71
:1001500000F0B1F81146FFF7F5FF00F028F800F0C5
:10016000CFF803B4FFF7F2FF03BC00F0D9F80000AA
:100170000146002208E0002301E0581C83B2B3F5D9
:100180007A7FFADB501C82B28A42F4DB002070478F
:1001900010B5012A05D101248C4003682343036074
:1001A00004E001248C400368A343036010BD2D4884
:1001B000806940F001002B4988610846806940F061
:1001C000080088610846806940F040008861264840
:1001D000406840F00070244948602448006820F4DA
:1001E0007040C1F8000C0846D0F8000C40F44050B4
:1001F000C1F8000C0846D0F80C0C40F008001C496F
:1002000008604FF000001B49C1F804080846D0F808
:10021000040840F03330184908604FF000001549D9
:10022000C1F80C084FF00200FFF7A2FF18E000240D
:1002300014E004F1080101220F480830FFF7A8FF7D
:10024000611C642201FB02F0FFF792FF04F1080138
:10025000002209480830FFF79BFF641C082CE8D3F4
:10026000E5E700000010024000000140000C0140E2
:100270000C0C0140001001400418014008480047E0
:10028000FEE7FEE7FEE7FEE7FEE7FEE7FEE7FEE746
:10029000FEE7FEE703480449024A044B70470000AA
:1002A000ED000008600000206002002060000020D7
:1002B000704770477047754600F028F8AE46050055
:1002C0006946534620F00700854618B020B5FFF771
:1002D000E1FFBDE820404FF000064FF000074FF06F
:1002E00000084FF0000B21F00701AC46ACE8C00954
:1002F000ACE8C009ACE8C009ACE8C0098D4670475D
:100300000446AFF300802046FFF72BFF00487047FC
:100310000000002001487047704700BF0400002023
:1003200001491820ABBEFEE726000200704710B559
:10033000FFF7F0FF4FF00001016010BD4C03000813
:0C034000000000206002000028010008FE
:040000050800027D70
:00000001FF
