:020000040800F2
:100000006002002085020008890200088B020008B7
:100010008D0200088F020008910200080000000015
:100020000000000000000000000000009302000833
:1000300095020008000000009702000899020008DD
:100040009B0200089B0200089B0200089B0200081C
:100050009B0200089B0200089B0200089B0200080C
:100060009B0200089B0200089B0200089B020008FC
:100070009B0200089B0200089B0200089B020008EC
:100080009B0200089B0200089B0200089B020008DC
:100090009B0200089B0200089B0200089B020008CC
:1000A0009B0200089B0200089B0200089B020008BC
:1000B0009B0200089B0200089B0200089B020008AC
:1000C0009B0200089B0200089B0200089B0200089C
:1000D0009B0200089B0200089B0200089B0200088C
:1000E0009B0200089B0200089B02000800F002F837
:1000F00000F02EF80AA090E8000C82448344AAF194
:100100000107DA4501D100F023F8AFF2090EBAE891
:100110000F0013F0010F18BFFB1A43F0010318473B
:1001200024020000340200000023002400250026E1
:10013000103A28BF78C1FBD8520728BF30C148BF4A
:100140000B6070471FB500F0F6F81FBD10B510BD6D
:1001500000F0B5F81146FFF7F5FF00F030F800F0B9
:10016000D3F803B4FFF7F2FF03BC00F0DDF80000A2
:1001700010B5014600220FE0002308E0002401E052
:10018000601C84B2B4F57A7FFADB581C83B2B3F5F5
:100190007A7FF3DB501C82B28A42EDDB002010BD77
:1001A00010B5012A05D101248C4003682343036064
:1001B00004E001248C400368A343036010BD2B4876
:1001C000806940F00100294988610846806940F053
:1001D000080088610846806940F040008861244832
:1001E000406840F00070224948602248006820F4CE
:1001F0007040C1F8000C0846D0F8000C40F44050A4
:10020000C1F8000C0846D0F80C0C40F008001A4960
:1002100008604FF000001949C1F804080846D0F8FA
:10022000040840F03330C1F804080846D0F80C0840
:1002300040F47F40124908604FF00200FFF798FF3A
:1002400013E000240FE004F1080101220C48FFF73D
:10025000A7FF0120FFF78CFF04F1080100220848E6
:10026000FFF79EFF641C082CEDD3EAE70010024064
:1002700000000140000C01400C0C01400010014046
:100280000C18014008480047FEE7FEE7FEE7FEE7DE
:10029000FEE7FEE7FEE7FEE7FEE7FEE70348044968
:1002A000024A044B70470000ED0000086000002087
:1002B000600200206000002070477047704775465C
:1002C00000F028F8AE4605006946534620F00700C6
:1002D000854618B020B5FFF7E1FFBDE820404FF09C
:1002E00000064FF000074FF000084FF0000B21F020
:1002F0000701AC46ACE8C009ACE8C009ACE8C009ED
:10030000ACE8C0098D4670470446AFF30080204634
:10031000FFF727FF004870470000002001487047A2
:10032000704700BF0400002001491820ABBEFEE763
:1003300026000200704710B5FFF7F0FF4FF00001F4
:10034000016010BD5403000800000020600200009E
:040350002801000878
:040000050800028568
:00000001FF
