:020000040800F2
:10000000D80200209101000895010008970100081E
:10001000990100089B0100089D01000800000000F4
:100020000000000000000000000000009F01000828
:10003000A101000800000000A3010008A5010008BC
:10004000A7010008A7010008A7010008A7010008F0
:10005000A7010008A7010008590400088D04000842
:10006000C1040008A7010008A7010008A7010008B3
:10007000A7010008A7010008A7010008A7010008C0
:10008000A7010008A7010008A7010008A7010008B0
:10009000A7010008A7010008A7010008A7010008A0
:1000A000A7010008A7010008A7010008A701000890
:1000B000A7010008E10A0008A7010008A70100083D
:1000C000A7010008A7010008A7010008A701000870
:1000D000A70100087D0C0008A7010008A70100087F
:1000E000A7010008A7010008A701000800F002F816
:1000F00000F03FF80AA090E8000C82448344AAF183
:100100000107DA4501D100F034F8AFF2090EBAE880
:100110000F0013F0010F18BFFB1A43F0010318473B
:10012000D8250000F8250000103A24BF78C878C10F
:10013000FAD8520724BF30C830C144BF04680C60ED
:10014000704700000023002400250026103A28BF35
:1001500078C1FBD8520728BF30C148BF0B60704739
:10016000642900F07180002070471FB51FBD10B5D5
:1001700010BD00F043F91146FFF7F7FF01F042F818
:1001800000F061F903B4FFF7F2FF03BC00F01FFEBB
:1001900008480047FEE7FEE7FEE7FEE7FEE7FEE76A
:1001A000FEE7FEE7FEE7FEE703480449024A044B88
:1001B00070470000ED000008D8000020D8020020A1
:1001C000D8000020704700000FB4044910B503AAFE
:1001D000029800F0DDF810BC5DF814FB040000206C
:1001E0002DE9F0410E460446002020622046E168D9
:1001F000884730B3252805D0D4E901219047206AEB
:10020000401CF2E7E168204600278847050018D027
:10021000A5F14100192802D820354FF40067324675
:10022000294620462760FFF79BFF40B1012804D0F4
:10023000F61D26F007060836D8E7361DD6E728460D
:10024000DAE7206ABDE8F0812DE9F0410646002496
:1002500010687529314616A510D0AFF3008000282C
:1002600002DA404213A507E031688A0701D512A5DA
:1002700002E0490704D511A5012401E0AFF3008095
:1002800000210A2206F1240709E0B0FBF2FCB0FBD2
:10029000F2F302FB1C00303078541846491C002849
:1002A000F3D123462A463046BDE8F04100F017B8A6
:1002B000000000002D0000002B00000020000000C6
:1002C000704770477047704710B500F073F80068CA
:1002D00010BD10B5044600F06DF8046010BD2DE9A6
:1002E000F0470D4699469246044600F124080168FD
:1002F000880604D5E06921F01001216000E00120AA
:10030000A84201DD471B00E00027A1697A1902EB32
:100310000900081AA0612078C00602D42046AFF375
:100320000080002608E0D4E901211AF80600904771
:10033000206A401C761C20624E45F4DB2078C00603
:100340000AD52046AFF3008006E0D4E90121302031
:100350009047206A401C2062381EA7F10107F4DC98
:1003600007E0D4E9012118F805009047206A401CF5
:100370002062281EA5F10105F3DC2046AFF30080C2
:100380002078000602D50220BDE8F0870120FBE7B7
:10039000074B70B50D467B4400F015F8044628461F
:1003A00000F024F810B14FF0FF3070BD204670BD52
:1003B000F30A0000004870477400002001694A1CDD
:1003C00002610878704700B58FB0CDE90131002196
:1003D000059105497944CDE9031011466846FFF7B8
:1003E000FFFE0FB000BD0000E5FFFFFF007B00F047
:1003F0008000704700487047740000207546FFF782
:10040000F9FFAE4605006946534620F007008546D1
:1004100018B020B5FFF7C8FEBDE820404FF0000639
:100420004FF000074FF000084FF0000B21F00701DC
:10043000AC46ACE8C009ACE8C009ACE8C009ACE81F
:10044000C0098D46704710B50446AFF300802046C2
:10045000BDE81040FFF796BE10B50A2000F0DAFCA8
:100460000748006838B90748006808B9012000E06B
:1004700000200449086001200349086010BD000005
:1004800000012242BC0123421404014010B50A209D
:1004900000F0C0FC0748006838B90748006808B990
:1004A000012000E0002004490860022003490860A0
:1004B00010BD000004012242AC012342140401409B
:1004C00010B50A2000F0A6FC0748006838B90748B4
:1004D000006808B9012000E00020044908600420F9
:1004E0000349086010BD000008012242A001234218
:1004F0001404014010B502460020012A1ED1204BF1
:100500001B6823F01F031E4C236023461B680B430C
:1005100023601B4B2C3B1B6843F48003184C2C3C82
:10052000236000BF164B343B1B6803F00203002B13
:10053000F8D0134B18331B6898B21FE0022A1DD164
:10054000104B1B6823F01F030E4C236023461B68CF
:100550000B4323600B4B2C3B1B6843F48003094C7B
:100560002C3C236000BF074B343B1B6803F00203A5
:10057000002BF8D0034B18331B6898B210BD000055
:10058000342401403428014030B50446002521467A
:100590000120FFF7AFFF0546284630BD2DE9F04F9B
:1005A0008DB000200B900A900F2000F07BF80B908C
:1005B0000B9801F0A9FE804601F036FD06464FF08B
:1005C00066322D4B01F03CFB044601F09FF80A9087
:1005D0000A9801F029FD80464FF06632274B01F062
:1005E0002DFCCDE9080126490A9801F0A1FE8046BC
:1005F00001F01AFD0646DDE9082301F075F982468F
:100600000022204B01F070F9044601F07FF80A90B7
:100610001D490A9801F08CFE1949019001F092FDE4
:10062000834601F001FDCDE9020100F03DFCCDE97A
:10063000040101F06BF81549079001F083FD824633
:1006400001F0F2FC0646124A124B01F091F8044602
:1006500022460B460020104901F046F90F4A104B84
:10066000CDE9080101F0F6FB804601F04FF80A9051
:100670000A980DB0BDE8F08F66664A3F66660A408C
:1006800000401C4600408F4000007A4400E0764560
:10069000649E2278A5796B3F0000F03FC3F5285C8B
:1006A0008F12714030B50446002521460120FFF726
:1006B00021FF0546284630BD4AF6AA2001490860B8
:1006C000704700000030004045F25552054B1A605B
:1006D0001A46506091604AF6AA221A604CF6CC4243
:1006E0001A607047003000400948806940F01000EF
:1006F00007498861074800686FF30B0005490860E7
:100700000846006840F688010843024908607047BF
:10071000001002400010014010B51B48007808B3DB
:100720001A48006838B11948001F006818B1174806
:1007300008380068B0B90A2000F06CFB00201249AC
:1007400008701248006808B9012010BD0F48001F4A
:10075000006808B90220F8E70C480838006888B932
:100760000320F2E70948006801280BD10748001F61
:100770000068012806D1054808380068012801D121
:10078000014908700020E0E71D0000200801224216
:100790001E48806940F001001C4988610846806954
:1007A00040F0080088610846806940F04000886198
:1007B0001748406840F000701549486015480068C7
:1007C0006FF30F00134908600846006843F23331A5
:1007D0000843104908600F480C30006840F00F00D3
:1007E0000C490C3108600C48006800200A49086078
:1007F0000846006840F03330086007480830006859
:1008000040F47F40044908310860704700100240FE
:1008100000000140000C01400418014000F00101FB
:10082000104A1160C0F340010F4AC2F8A411C0F38E
:1008300080010C4A08321160C0F3C001121D116022
:10084000C0F30011121D1160C0F34011121D1160A0
:10085000C0F38011121D1160C0F3C011024AC2F82A
:10086000BC117047A00123420000234200B50020C4
:1008700015490861C8601420486100208861C8617A
:100880000846006840F001000860084640680F49CB
:1008900008400D494860084600680D4908400A496B
:1008A00008600846006820F4802008600846406818
:1008B00020F4FE0048600020886000214FF00060B6
:1008C00000F068F800BD0000001002400000FFF8D2
:1008D000FFFFF6FE2DE9F0478046894614461D4687
:1008E0002046E11704EB9171C1F3870AE11704EB8D
:1008F00091718910A4EB8101CFB2042000EBC700F5
:10090000C7B2284600F032F8C5F1040008FA00F634
:100910000F20284100EA0900064306F00F06202CAC
:1009200009DA104801680120A04001434FF0E0209F
:10093000C0F800110BE00B48001D0068A4F1200175
:1009400001228A4010434FF0E021C1F8040106481B
:1009500050F82A0006FA07F10843034941F82A0033
:10096000BDE8F08700E100E000E400E00146072375
:1009700023EA01021202054B18684FF6FF031840E4
:10098000034B18431043014B186070470CED00E017
:100990000000FA05024A0A400243024B1A607047FF
:1009A00080FFFF1F08ED00E030B503460C461846F7
:1009B00003EBD0714910A3EB41010D4A11601946B8
:1009C00003EBD172501000EBD0725210A0EB420238
:1009D000084DC5F884211846D91703EB9171891089
:1009E000034A083211600449085DFFF717FF30BD64
:1009F00080812142008021421300002030B503464F
:100A00000C46184603EBD0714910A3EB41010D4A87
:100A10001160194603EBD172501000EBD0725210E6
:100A2000A0EB4202084DC5F884211846D91703EB04
:100A300091718910034A083211600449085DFFF77B
:100A4000EDFE30BD8081214200802142090000205E
:100A500030B504460025FFF709FF1F48006840F441
:100A600080301D49086000BF1B480068400C00280A
:100A7000FAD04FF4806018494860A01EC4B20846FE
:100A8000406840EA844048600846406840F480304E
:100A900048601248006840F03200104908600E4873
:100AA000006840F080700C49086000BF0A48006888
:100AB000400E0028FAD00848406840F0020006497D
:100AC000486005E004484068C0F3870505F0030569
:100AD000022DF7D130BD000000100240002002407E
:100AE0001648008800F0010000B315480078401C4B
:100AF00013490870084600783B2817DD002008706D
:100B000010480078401C0F490870084600783B28C0
:100B10000CDD002008700C480078401C0A49087061
:100B200008460078172801DD002008700348008877
:100B300020F00100014908807047000010040040C7
:100B4000200000201F0000201E0000204748806970
:100B500040F01000454988614548006820F47F0056
:100B6000434908604148406820F440403F4948609C
:100B70000846406840F4004048600846806940F4F8
:100B8000007088610846C06840F40070C86008467C
:100B9000C06820F40070C8603648006836490840D4
:100BA000344908600846006808600846006820F478
:100BB00080700860081D006820F00200091D0860B0
:100BC0000846006820F4602008600846006840F489
:100BD000602008600846006840F4801008600846FD
:100BE000006820F40060086022482830006820F483
:100BF000700020492831086008460068002008601D
:100C00001C480830006820F47C301A49083108601C
:100C10000846006840F4E04008600846006840F478
:100C200060300860081F006840F00100091F08607C
:100C30000846006840F00800086000BF0D48001D2D
:100C4000006800F008000028F8D10A48001D00687C
:100C500040F004000749091D086000BF0548001D59
:100C6000006800F004000028F8D17047001002402E
:100C70000008014004240140FFFFF0001D490988DD
:100C800001F0200111B31B49091D0988C8B21A4996
:100C9000097801F08001C9B91749097801F04001CC
:100CA00061B10A2803D00021134A117020E01249D3
:100CB000097841F08001104A117019E00D2806D121
:100CC0000D49097841F040010B4A117010E00A49C2
:100CD000097801F03F01094A505407490978491C35
:100CE000054A1170114609783F2901DD0021117074
:100CF0007047000000380140080000203400002048
:100D00002DE9F0414F1E00EBC7010446D1E9000177
:100D100015461E4637F006020DD02A46334600F02F
:100D20008FFF7F1E04EBC703D3E9002300F020FDF3
:100D300037F00602F1D1022F25D0042F13D0062F51
:100D400018BFBDE8F0812A46334600F079FFD4E9A8
:100D50000A2300F00DFD2A46334600F071FFD4E966
:100D6000082300F005FD2A46334600F069FFD4E968
:100D7000062300F0FDFC2A46334600F061FFD4E96B
:100D8000042300F0F5FC2A46334600F059FFD4E96D
:100D9000022300F0EDFC2A46334600F051FFD4E96F
:100DA0000023BDE8F04100F0E3BC00000022134640
:100DB0001046014900F098BD0000F03F012201F00B
:100DC00034BC002213461046114600F08DBD00BF12
:100DD000704700004FF0E021096921F004014FF055
:100DE000E0221161C21700EB5272C2F3C702074B37
:100DF0001A701946097801EB4102C2EBC1114FF696
:100E0000FF7202EAC101024A11807047000000200F
:100E10000200002001460D4A12884A434FF0E023A9
:100E20005A6100229A6101221A6100BF4FF0E0224C
:100E3000106900F001021AB100F48032002AF5D0E6
:100E400000224FF0E0231A619A61704702000020EF
:100E500001460D4A12784A434FF0E0235A610022BE
:100E60009A6101221A6100BF4FF0E022106900F080
:100E700001021AB100F48032002AF5D000224FF0AE
:100E8000E0231A619A6170470000002000BF054A04
:100E9000128802F04002002AF9D0C2B2014B1B1D99
:100EA0001A807047003801402DE9F04DC84A0024EF
:100EB00090B0914205DA21F00043934201D805D168
:100EC00020B110B0BDE8F04DFFF778BFB1F5801F3D
:100ED0001BDA53EA000209D0002911DA0120FFF7DA
:100EE000F8F910B0BDE8F04DFFF76BBF0220FFF737
:100EF000F0F9FFF75BFF10B081F00041BDE8F08D25
:100F00006FF03504362201F090FB04EB2152C1F35F
:100F10001308B049A2F2FF33414401F4801282F079
:100F20007F6103EB225281F04051009241EA0801B7
:100F30000022A94B00F08EFF044608F10200A74EE4
:100F4000C0F313000D467E44032867D2D6E9002380
:100F5000204600F021FE1ED10098002802BFD6E9ED
:100F6000000110B0BDE8F08D00F052FE07460C46BF
:100F70009B4A9C4B00F064FE06460D469A4A9B4BEA
:100F80003846214600F05CFE10B032462B46BDE8E4
:100F9000F04D00F0EDBB4FF05532954B2046294601
:100FA00000F04EFE0022934B00F048FF06460F462D
:100FB00022462B461046194600F042FE32463B467A
:100FC00000F03EFE064600980F46F0B100F020FE0D
:100FD00080468A46824A834B00F032FE32463B46C8
:100FE00000F02CFF22462B4600F034FF05460C464D
:100FF0007D4A7E4B4046514600F022FE10B02A4604
:101000002346BDE8F04D00F025BF0B4610B0324638
:1010100020462946BDE8F04D00F01CBF00224FF0ED
:101020008043204600F0A4FB02460B46204629469A
:1010300000F05AFC06460F46009800F0E9FDCDE9A5
:10104000040132463B461046394600F0F9FD0C904B
:1010500069480C9A4044019009910B46104600F0F3
:10106000EFFD8246024665488B46C8F151080B46A3
:1010700008F5D72803217844FFF742FE52465B4625
:1010800000F0DEFD0A905E480D9152465B46042159
:101090007844FFF735FE099B0C9A00F0D1FD844699
:1010A00001980D9B40EA080860460A9A00F060FB30
:1010B00083460891B8F1000F4EDD4FF0FF32204615
:1010C000294601F0B2FA22462B4600F0B9FD8046CF
:1010D00000988A4660B3DDE90401414A414B00F0C3
:1010E000AFFD099100905A4640465146089B00F0DA
:1010F0003FFB32463B4600F0A3FD099B009A00F0FF
:1011000037FB4246534600F099FE22462B4600F03C
:10111000A1FE04460D46DDE90401334A334B00F0DD
:101120008FFD10B022462B46BDE8F04D00F092BE78
:101130005A464046089B00F01BFB32463B4600F0F7
:101140007FFD4246534600F079FE10B022462B4602
:10115000BDE8F04D00F072BE009840B3DDE9040137
:101160001F4A204B00F06CFD80468A465A462046B6
:101170002946089B00F06EFE32463B4600F060FDBB
:101180004246534600F066FE22462B4600F062FEC1
:1011900004460D46DDE90401134A144B00F050FDEE
:1011A00010B022462B46BDE8F04D00F053BE0B4672
:1011B0005A462046294600F04DFE32463B4600F096
:1011C0003FFD10B022462B46BDE8F04D00F036BE84
:1011D0000000F07F645F09000000F03FA6170000E8
:1011E000763C7935EF39EA3D0000E0FE422EE63FDD
:1011F0005555D53F0000E03F86EBF9FF3E16000055
:101200003C16000086B0002005908046049000BF88
:1012100003900290012582460620FFF719FC482022
:10122000FFF7D8FD4FF4E131482000F0C7F9FFF790
:10123000AFFAFFF78BFCFFF757FA4FF4DC7107208A
:10124000FFF742FA0020B549086000260CE00020B4
:10125000B249086000F090F90120B149C1F88C0151
:10126000002000F089F9761C022EF0D30020AB4953
:101270000860ACA0FEF7A8FF2946ACA0FEF7A4FFCB
:10128000002749E1FFF748FA0746BFB1FFF714FA14
:10129000012F02D10AF1010A10E0022F02D1AAF1B6
:1012A000010A0BE0032F09D1681CC5B22846E917D3
:1012B00005EB91718910A5EB8101CDB235B9002004
:1012C00096490860504600F057F925E1012D7DD17F
:1012D000FFF7F2F90298411C0291642808D9FFF740
:1012E0005DF905900E20FFF74FF98046002002902F
:1012F00000208A4908609049059800F023FF01907A
:1013000000F0E2FFC4B221460020FFF777FB012086
:10131000FFF780FD059800F0D7FFC0B20A2190FBCF
:10132000F1F201FB1200C4B221460120FFF73CFBA1
:101330000120FFF76FFD8049059800F0F9FF01904B
:1013400000F0C2FFC0B20A2190FBF1F201FB1200D3
:10135000C4B221460220FFF751FB0120FFF75AFDDE
:101360004FF47A7098FBF0F0C4B221460420FFF7E6
:1013700045FB0120FFF74EFD4FF47A7098FBF0F12A
:1013800000FB1180642190FBF1F0C4B221460520DE
:10139000FFF734FB0120FFF73DFD642098FBF0F1DF
:1013A00000FB11800A2190FBF1F0C4B22146062017
:1013B000FFF724FB0120FFF72DFD0A2098FBF0F139
:1013C00000FB1180C4B22146072000E005E0FFF7D2
:1013D00015FB0120FFF71EFD9EE0022D7DD1FFF7DA
:1013E0006BF90A2000F05CF95448007800F08000A6
:1013F000002874D05148007800F03F0B50A0FEF751
:10140000E3FE4FF000095FE0514810F80940302C2E
:101410000EDB392C0CDCA4F130004E49085C08B915
:10142000012100E00021A4F130004A4A11543AE0C1
:10143000612C18DB682C16DCA4F161004649085CBD
:10144000401CC1B2A4F16100434A11541146085C2A
:101450000A2190FBF1F201FB1200C1B2A4F161007C
:101460003D4A11541FE02E2C08D1002603E0002035
:1014700039498855761C082EF9D314E02A2C08D156
:10148000002603E0002033498855761C082EF9D346
:1014900009E02F2C07D13148007808B9012000E07D
:1014A00000202E4908702A4810F809002C490880AD
:1014B00000BF2B48001F008800F040000028F8D033
:1014C00009F1010000F0FF09D9459DDB25A0FEF7D9
:1014D0007BFE0020194908701EE010E0FFE7049829
:1014E000401C80B2049041F28831049890FBF1F2E4
:1014F00001FB120010B91CA0FEF766FE0CE0032DE4
:101500000AD1FFF7D9F800200449086003994A1C62
:101510000846039200F030F8B4E600008C812142C6
:1015200000802142686572650A0000006D6F646585
:10153000203D2025647C0A00000020410800002096
:101540000A20596F7572204D53473A200A00000057
:10155000340000202100002029000020310000205C
:10156000043801400A0A00000A53544D3332412026
:1015700055736172740A00002DE9F041054600269A
:1015800017E02F46002411E00A20B7FBF0F100FB22
:101590001178C4F10701C8B24146FFF72FFA0120C4
:1015A000FFF738FC0A20B7FBF0F7641C082CEBD3DC
:1015B000761C0A2EE5D3BDE8F08100002DE9F05F2E
:1015C00005460E46300100F09FFE8146304905FB7E
:1015D00001F000F099FE8246494600F0B3FD07464F
:1015E000384600F071FE84B2204600F08DFE83463E
:1015F000394600F069FF82464FF0834100F098FEC3
:10160000814600F061FE80464FF6FF7000EA041448
:1016100004EB080084B21F48806940F004001D49B3
:1016200088610846806940F4804088611A480068F3
:1016300020F47F60184908600846006840F40B6099
:1016400008601448C06840F480401249C8600846E9
:10165000C06820F48040C86010480480001D0088E5
:1016600042F20C0108430D49091D08800846008814
:1016700040F4807008800846008840F02000088010
:101680000223252203210846FFF724F9BDE8F09F35
:1016900040420F0000100240040801400838014099
:1016A00070B50646144800781449086000251BE010
:1016B000002416E01048007848B11148015D04F19B
:1016C0000800104A02EB8000C0F8801104E00E4AC6
:1016D000115DE0B2FFF792F90120FFF7B9FB6D1C35
:1016E000641C082CE6DB6D1C06EB4600C0EBC61044
:1016F000B5EBC00FDCDB70BD310000208C812142D6
:1017000021000020000023422900002021F0004297
:10171000A2F16052B2F5801F01F0004328BFD2F160
:101720007F6C0BD95FEA001C43EAC20242EB5070A7
:1017300018BF704728BF20F001007047B2F5801F26
:10174000BCBF184670474FEA410C1CF5001F02D27F
:10175000084600F0B4BE70B500F01CFB0000008924
:10176000FFF7F6BF4FF00040A0F580007047000083
:1017700010B591EA030F48BF83F0004300F1728374
:10178000841A71EB030C05D2121943EB0C03001BF6
:1017900061EB0C01DFF824E14FEA1154A4EB135C78
:1017A0001EEA430F18BF9EEA445F73D023EA0E037C
:1017B000DCF1200E21EA045143F4801332D322FAE3
:1017C0000CFE10EB0E0023FA0CFE41EB0E01CCF1E7
:1017D000200E03FA0EFE10EB0E0051F10001B1F5E0
:1017E000801FCCF1200E32D201EB045112FA0EF21E
:1017F000BDE8104058BF7047401C38BF5FEA420246
:1018000018BF7047002814BF20F0010041F100010B
:101810004FEA410313F5001F38BF7047A1F1C041E3
:1018200000F006BB012A43EB0302ACF1200CDCF113
:101830001F0E32BF4FF0000E23FA0CF310EB030023
:1018400041EB0451B4EB115FD0D0A1EB045101F591
:10185000801149085FEA300001EB04510ED350F1CA
:10186000000038BF12FA0EFE08D1BDE81040C9E7EB
:10187000401C38BF5FEA4202CAD1C3E7BDE810404E
:101880004FEA410313F5001F38BF7047A1F1C04173
:1018900000F0CEBA9EEA445F08D011EA5E0FBDE8C0
:1018A000104004BF01F0004100207047BDE8104027
:1018B00070B500F06FFA00BF64FBBE3E0000E0FFB1
:1018C00002494FF0000000F07EBE00BF0000F87F2C
:1018D000491058BFC1F140415B1058BFC3F14043AC
:1018E0008B42EFF3008070472DE9C04130B4DFF840
:1018F000A0C23CEA111418BF3CEA131400F0EC80BB
:1019000081EA03051CEA111444EAD57418BF1CEAE5
:10191000131500F0C780A4EB05044FF0004545EA1D
:10192000C12145EAC32341EA505143EA525304F12D
:101930007F74994204F500344FEAC0204FEAC22276
:1019400008BF904200F09C804FEA13650FF24016EA
:10195000765D4FEA134506FB05F7C7F1807706FB76
:1019600007F74FEAD737A7FB03687642C8F58038F8
:10197000A7FB06CE38BFA8F1010807FB08E64FF029
:10198000000EA6FB028CE6FB03CEDCF1000CCEF1D0
:10199000004E38BFAEF1010EA6FB0C584FF0000709
:1019A0004FF00005E6FB0E87A1FB08C6A0FB07CEA3
:1019B00016EB0E0645F10005E1FB076515F1E04E5B
:1019C0007EBFA4F580345FEA46066D4116F18007BC
:1019D00045F100054FEA17274FEA066647EA056713
:1019E000A6F1DE46B6F1805F4FEA15251FD93846CD
:1019F00024F0010C05EBC471BCF1FE6F01EB0C117E
:101A000002D8F0BCBDE8008124425CBF01F5801E15
:101A10009EEAC47F02D4F0BCBDE80081244238D4E1
:101A2000F0BCA1F1C041BDE8004100F001BA4FEAAD
:101A3000D22242EA43524FEAD323A7FB02864FEA5F
:101A4000D02040EA415007FB03661EEA0E0F4FEA22
:101A5000D12105FB026658BFA6EB0056B6EB005637
:101A60004FEA520E4EEAC37E18EB0E0E56EB530EA3
:101A7000BDD518EB02085E417F1C55F10005B6E7A5
:101A80004FF480154FF000074FF000064FF00008AC
:101A9000ADE7F0BC4FF0000001F1C04101F00041A2
:101AA000BDE8008111EA0C1F0CEA131500D00CE010
:101AB00013EA0C1F00F025804FF00000F0BC81EA13
:101AC000030101F00041BDE80081F0BCBDE8004128
:101AD00081EA030100F0ACB9F0BCBDE8004170B58B
:101AE00000F058F9097EFC3E00F007B881EA0301D6
:101AF0004FF0000001F00041704781EA030100F05F
:101B000097B9F0BCBDE800414FF000002149704793
:101B1000FFFDFBF9F7F5F4F2F0EEEDEBE9E8E6E4B2
:101B2000E3E1E0DEDDDBDAD8D7D5D4D3D1D0CFCD39
:101B3000CCCBCAC8C7C6C5C4C2C1C0BFBEBDBCBB72
:101B4000BAB9B8B7B6B5B4B3B2B1B0AFAEADACAB6D
:101B5000AAA9A8A8A7A6A5A4A3A3A2A1A09F9F9E47
:101B60009D9C9C9B9A9999989797969595949393F9
:101B7000929191908F8F8E8E8D8C8C8B8B8A898990
:101B80008888878786858584848383828281818013
:101B90000000FF070000F87F51EA030C17D41CF582
:101BA000801F58BFBCF5801F00F10680994218BF06
:101BB000704708BF9042704707D711F5801F58BF84
:101BC00013F5801F19D499427047894270471CF55C
:101BD000801F08D5BCF5801FF7D58B4218BF704712
:101BE00008BF824270474FF4001C1CEB410F38BF06
:101BF0001CEB430F01D28B42704770B500F0CAF85E
:101C0000922449004FF000514FF08053FFF760BE1F
:101C100010F0004248BF4042B0FA80F310FA03F1DE
:101C20000AD0C3F11D0303F580634FEA415002EB74
:101C3000035202EBD12170474FF0000070470000C3
:101C4000DFF848C170B51CEA111E1EBF1CEA13154F
:101C50009EEA0C0F95EA0C0F00F06F8081EA0304F6
:101C600023EA4C134EEAD47E21EA4C1141F4801150
:101C700043F48013AE44A1FB024CA0FB0365AEF11C
:101C80007F7E361955EB0C05A1FB034C4CF100038C
:101C9000A0FB021C16EB0C06654153F10003094240
:101CA00018BF46F0010613F4007F0BD14FEA033151
:101CB0004FEA0530340341EA155140EA16506FF0FF
:101CC00003020AE04FEAC3214FEAC520F40241EAC9
:101CD000555140EA56506FF0020202EB2E4201EBE2
:101CE000025585EACE710AD05FEA440C18BF24F091
:101CF000004450F1000041F1000120EAD47040F2AC
:101D0000FE7C624500D270BDA84214BF4FF08044F3
:101D10004FF04044002E08BF0024BEF1806FA8BFE2
:101D2000A1F1C041BDE8704080F282804FF0000018
:101D300001F1C04101F0004170479EEA0C0F0CEA2E
:101D4000131518BF95EA0C0F06D04FF0000081EA7A
:101D5000030E0EF0004170BD00F01CF88900013E3A
:101D600000F007B800F009B84FEA430C5FEA5C5C8A
:101D700008D081EA030100F05BB84FEA410C5FEA4A
:101D80005C5CF6D14FF00000014970470000FF078E
:101D90000000F87F0EF1020E2EF0030E5EF8046BC9
:101DA000364205D4012A43EB030515F5001F12D86E
:101DB000012841EB010C1CF5001F0CD80ED14FEA95
:101DC000D17C15F5001F0CEB4C0C0CF1020C08BF7C
:101DD0004CEBD37C04E04FF0080C01E04FEAD37CDD
:101DE0000CEB4C0526FA05F606F00706B6F1040CD6
:101DF00006D20EEB860CBDE870404CF0010C60473B
:101E0000DFE80CF0090B02024FF000414FF0000038
:101E1000A1F5002170BD19461046012851EB0104BF
:101E200018BFD4F5001484BF002001F0004170BD3C
:101E30000808A0F500114FEA3101704791EA030F3D
:101E400010B581F000413FF59BAC83F0004300F0FA
:101E500009B8000010B591EA030F48BF83F00043B2
:101E60003FF58EAC841A71EB030C07D212198CF07B
:101E7000004C43EB0C03001B61EB0C01DFF8A4E109
:101E80004FEA1154A4EB135C1EEA430F18BF9EEAFD
:101E9000445F00F0B08023EA6E03524221EA04510D
:101EA000C3EB6E0338BF5B1EDCF1200E25D322FA94
:101EB0000CFE10EB0E0043FA0CFE41EB0E01CCF1D0
:101EC000200E03FA0EFE10EB0E0051F10001CCF1D2
:101ED000200E29D412FA0EF201EB0451BDE8104095
:101EE00058BF7047401C1CBFB2F1004F704700281C
:101EF0000CBF491C20F00100704712EB020E43EBAF
:101F0000030218BF4FF0010E4EEA4202ACF1200C62
:101F1000DCF11E0E54D943FA0CFE10EB0E0051F109
:101F2000FF31CCF11E0ED5D50EF1010E12FA0EFEC8
:101F3000404141EB010101EB445C5FEA5C5C10D97C
:101F400010EBDE7001EB045138BFBEF1004FBDE86D
:101F5000104018BF704700280CBF491C20F001003A
:101F6000704730D24FEAD42C11F5001124F40064EC
:101F70001BD0B1FA81F20B3AA41AA41ED2F12003AD
:101F8000914030FA03F31943904001EBCC71002CDF
:101F900001EB0451BDE81040A8BF704701F1C041FA
:101FA0004FF0000001F000417047B0FA80F310FAE2
:101FB00003F100D110BDE41A173C4805C90AE4E753
:101FC00001EB045110BD491001EB0451BDE8104074
:101FD0004FEA300002E04FF0000170474A0008BFAE
:101FE0000042F8D0B2F5001F28BF704701F0004151
:101FF0004FF0000070479EEA445F07D011EA5E0F81
:10200000BDE8104004BF002100207047BDE810402B
:1020100070B5FFF7BFFE00BF40DFF63E83F0004122
:10202000104670470000E0FF43004FEAD30C4FEA30
:102030003C0C43401FBF40070CF1605113F0FE4FB2
:1020400070471CF0006F03D100200CF00041704776
:102050000CF0004343EA507010B540EACC0000F0A9
:10206000E8F900BF000000924FEA0001FFF7E0BE70
:102070004FF000414FF00000A1F500217047000033
:1020800090EA010F48BF81F0004100F12E82421A10
:102090003CBF801A89184FEAD0524FF07F4C1CEA9F
:1020A000410FA2EBD15318BF9CEA026F00F03B80B6
:1020B0004FF0004C4CEA00204CEA012121FA03FCCD
:1020C00010EB0C0C1ED202F1FF325FEA1C2040EB39
:1020D000C25038BF70471CF07F0F4FEA400C18BF4A
:1020E000BCF17F4F38BF7047C3F12003994008BF50
:1020F00020F00100BCF17F4F38BF7047A0F1C04015
:1021000000F0DDB94FEA3C00000A40EBC25028BFA6
:102110001CF0FF0F4FEA400CE6D018BFBCF17F4F18
:1021200038BF7047EAE79CEA026F05D010EA5C0FFF
:1021300008BF00F00040704710B500F07AF900BF0A
:1021400064FBBE3E4FF47F0C1CEAD0121EBF1CEA9B
:10215000D11392EA0C0F93EA0C0F00F0858090EAFD
:10216000010F48BF42F4807240F4000C41F40000BB
:102170002CF07F4120F07F4000B58142A2EB0302AA
:102180000FF2081CACEB504EC0F100009EF800E0CE
:102190004FEA4E0E00FB0EFC38BF49004FEA2C1CE4
:1021A00002F5FA020CFB0EF34FEACE1E4FEA112C99
:1021B0004FEAC1210EEB635E42EB22420EFB0CFCA8
:1021C0004FEA1C5300FB03114FEA112C4FEA013177
:1021D0000EFB0CFC4FEADC4C00FB0C11C14228BF8B
:1021E00009184CEB03335DF804EB10EB410143EBB2
:1021F000C250B2F57C0F38BF704729D512F0F00FEE
:102200001CBF00F1C04000F0004070470081828395
:102210008485868788898B8C8D8E8F9192939596F5
:1022200097999A9C9D9FA0A2A3A5A7A8AAACAEB07F
:10223000B2B3B5B7B9BCBEC0C2C5C7C9CCCED1D484
:10224000D7D9DCDFE2E6E9ECF0F3F7FAFE000000B4
:102250004FEA400C0CF1807CBCF17E4F28BF7047E8
:10226000B0F1C04000F02BB990EA010F0CEAD11395
:1022700048BF42F48072624538BF634507D213F409
:102280007F0F16D080EA010000F00040704710B5C3
:1022900000F0CFF8097EFC3E00F005B880EA0100AE
:1022A00000F00040704780EA010000F0004000F0BC
:1022B00006B912F47F0F04BF0248704780EA01009C
:1022C00000F0FDB80000C07FC10DD1F19E0206DB19
:1022D0004FEA002343F0004323FA02F07047004224
:1022E00007D54FEA4001B1F1FE4F02D24FF0000096
:1022F000704710B500F09DF8499224800020704787
:102300006FEA200070470000B0FA80F310FA03F281
:10231000C3F19D030AD0D90501EB1220530638BF43
:10232000704700F1010008BF20F001007047000075
:102330004FF47F0C1CEAD0121EBF1CEAD11392EAA4
:102340000C0F93EA0C0F00F0478090EA010F48BF92
:1023500042F480724FF0004C4CEA00204CEA01211C
:1023600002EB0302A0FB0113A2F50002002918BF33
:1023700043F001035B0028BF4FEA330342EB2242E4
:102380005FEA132C4CEBC2502EBFBCEB436FB2F58F
:102390007C0F70474FEA036CBCF1004F08BF20F080
:1023A0000100B2F57C0F38BF70470BD582F0FF02F9
:1023B00012F5803FC8BF704700F1C040D8BF00F0A1
:1023C0000040704700F5000C5FEA4C0C48BF7047B6
:1023D000B0F1C04000F073B890EA010F0CEAD113DD
:1023E00048BF42F48072624538BF634504D280EA38
:1023F000010000F00040704710B500F01AF800BF6F
:102400008900013E00F007B800F009B85FEA410C0E
:102410005FEA1C6C08D080EA010000F050B85FEA67
:10242000400C5FEA1C6CF6D14FF00040A0F5800034
:1024300070470EF1020E2EF0030E5EF8044B24429C
:1024400004D44FEA4102B2F17F4F11D84FEA400362
:10245000B3F17F4F0CD80ED14FEAD07CB2F17F4F51
:102460000CEB4C0C0CF1020C08BF4CEBD17C04E0E3
:102470004FF0080C01E04FEAD17C0CEB4C0324FA3E
:1024800003F404F00704B4F1040C06D20EEB840C40
:10249000BDE810404CF0010C6047DFE80CF0070885
:1024A00002024FF00040A0F5800010BD0846420037
:1024B00018BFD2F1807288BF00F0004010BDFF212C
:1024C00041EAD050C005704780F0004090EA010F0B
:1024D0007FF5DDAD81F0004100F007B890EA010F13
:1024E00048BF81F000413FF5D2AD421A04D882F0D6
:1024F0000042A0EB020011444FEAD0524FF07F4C53
:102500001CEA410FA2EBD15318BF9CEA026F4AD0DC
:102510004FF0004C4CEA00204CEA012121FA03FC68
:10252000B0EB0C0C0FD412F0FE0F36D05FEA4C006B
:102530001DD5001240EBC25038BF70471CF03F0F52
:1025400018BF70470BE0A2F101025FEA1C2040EBCC
:10255000C25038BF70471CF07F0F18BF7047C3F1DF
:102560002003994014BF401E20F0010070478008EE
:102570004FEA122308BF7047B0FA80FCA2EB0C02AE
:10258000CCF1280C60FA0CF093EA122F04BF00EB98
:10259000C25070474FEAC3707047130A5FEADC10FD
:1025A00008BF7047F6E79CEA026F04D010EA5C0FA0
:1025B00008BF0020704710B5FFF73BFF40DFF63E35
:1025C00081F0004070470CF00F03092B08BF082072
:1025D00000F059800A2B0BD0082B18BF704708BF9A
:1025E0001CF0400F0AD04FF000004FF00001704780
:1025F0001CF0400F18BF4FF0004070471CF0100F48
:1026000008D020F0704300F07F4242EAD3014FEA45
:102610004370704700F0604021F07F4242EA0002C0
:1026200001F07F4040EA727070474FF0FF0C4CF4AD
:10263000E06C1CEA11531CBF9CEA030C9445C2BF1A
:10264000DA4201EB02517047002B0DD0BCF1000FB4
:102650000FD0002A01F00041A4BF41F0E04141F059
:102660007F614FF00000704701F000414FF0000023
:10267000704750EA01334FF09B0C18BF4CF0806C50
:102680007FF41EA970471CF4801F11D01CF4E02FAA
:1026900003D06FEACC31490070474FF04050EFF360
:1026A000008222F0704242EA000282F30088704702
:1026B0004FF000007047000004FA97999999D93FAC
:1026C000AF788E1DC571CC3F9FC678D0099AC33FA5
:1026D000935555555555E53F599322942449D23F7A
:1026E000DE03CB966446C73F44523EDF12F1C23F41
:1026F0000000000000000000182700080000002073
:1027000034000000280100084C2700083400002095
:10271000A4020000440100080000000000000000C6
:10272000003F065B4F666D7D077F6FBF86DBCFE6A0
:10273000EDFD87FFEF010000000100010001000135
:0C2740000000000000000000000100008C
:04000005080000ED02
:00000001FF
