:020000040800F2
:100000008002002005090008090900080B09000802
:100010000D0900080F090008110900080000000080
:1000200000000000000000000000000013090008AC
:100030001509000800000000170900081909000848
:100040001B0900081B0900081B0900081B09000800
:100050001B0900081B0900081B0900081B090008F0
:100060001B0900081B0900081B0900081B090008E0
:100070001B0900081B0900081B0900081B090008D0
:100080001B0900081B0900081B0900081B090008C0
:100090001B0900081B0900081B0900081B090008B0
:1000A0001B0900081B0900081B0900081B090008A0
:1000B0001B0900081B0900081B0900081B09000890
:1000C0001B0900081B0900081B0900081B09000880
:1000D0001B0900081B0900081B0900081B09000870
:1000E0001B0900081B0900081B09000800F002F8A2
:1000F00000F03CF80AA090E8000C82448344AAF186
:100100000107DA4501D100F031F8AFF2090EBAE883
:100110000F0013F0010F18BFFB1A43F0010318473B
:10012000A4080000C4080000103A24BF78C878C1B1
:10013000FAD8520724BF30C830C144BF04680C60ED
:10014000704700000023002400250026103A28BF35
:1001500078C1FBD8520728BF30C148BF0B60704739
:100160001FB500F028FC1FBD10B510BD00F0E7FB67
:100170001146FFF7F5FF00F001FB00F005FC03B4AA
:10018000FFF7F2FF03BC00F00FFC000030BF0000DF
:100190002248806940F010002049886120480068AA
:1001A0006FF30B001E4908600846006840F24441A6
:1001B00008431B490860704710B51A480078E8B139
:1001C0001948006828B11948006810B1184800683B
:1001D000A0B90A2000F098FA0020124908701248CD
:1001E000006808B9012010BD1048006808B9022055
:1001F000F9E70F48006878B90320F4E70A48006877
:10020000012809D109480068012805D1084800687B
:10021000012801D1034908700020E4E700100240E2
:100220000010014000000020080122420401224287
:10023000000122425B48806940F001005949886111
:100240000846806940F0080088610846806940F0EF
:10025000400088615448406840F00070524948604E
:10026000524800686FF30F00C1F8000C4F48006857
:1002700043F2333140EA01004B49C1F8000C084613
:10028000D0F80C0C40F00F00C1F80C0C4848D0F826
:1002900004084FF000004649C1F804080846D0F8A9
:1002A000040840F03330C1F804080846D0F80C08C0
:1002B00040F47F40C1F80C08704700F001013D4A4E
:1002C0001160C0F340013C4AC2F8A411C0F38001A0
:1002D0003A4A1160C0F3C00102F104021160C0F398
:1002E000001102F104021160C0F3401102F1040296
:1002F0001160C0F3801102F1040211604FEAD011C5
:100300002D4AC2F8BC11704730B503460C4618465A
:1003100003EBD3714910A3EB4101294A116019463F
:1003200003EBD3724FEA620000EBD0724FEA620235
:10033000A0EB4202234DC5F8842118464FEAE37131
:1003400003EB91714FEAA1011F4A11601F49085D3B
:10035000FFF7B3FF30BD30B503460C46184603EB3C
:10036000D3714910A3EB4101154A1160194603EB03
:10037000D3724FEA620000EBD0724FEA6202A0EB48
:100380004202104DC5F8842118464FEAE37103EB91
:1003900091714FEAA1010C4A11600D49085DFFF708
:1003A0008CFF30BD0010024000000140000C0140F5
:1003B00000100140A001234200002342A801234273
:1003C0008081214200802142888121420100002059
:1003D0000B000020AF4A0A400243AF4B1A6070473F
:1003E0000146072323EA01021202AC4B18684FF6BC
:1003F000FF0300EA0300AA4B40EA030040EA0200C0
:100400004FF0E023C3F80C0D70472DE9F04780460C
:10041000894614461D462046E11704EB91714FEAC8
:10042000A10AE11704EB91718910A4EB8101CFB20D
:10043000042000EBC700C7B22846FFF7D1FFC5F183
:10044000040008FA00F60F20284100EA09000643DC
:1004500006F00F06202C0CDA924800684FF00101DC
:1004600001FA04F140EA01004FF0E021C1F8000177
:100470000DE08D480068A4F120014FF0010202FA5E
:1004800001F240EA02004FF0E021C1F80401874880
:1004900050F82A0006FA07F10843844941F82A0077
:1004A000BDE8F08770B504460B46CE1701EB967693
:1004B000B010CE1701EB9676B610A1EB8606B60605
:1004C000350E7B4B9B6943F00103794EB3614FEAD4
:1004D000B63353F820300F26AE40B343754E46F87E
:1004E0002030334653F8203004FA05F63343714E7A
:1004F00046F82030704B1E684FF0010303FA01F3F9
:1005000046EA03066D4BC3F8006412F0010F0AD0EF
:100510006B4B1B684FF0010606FA01F643EA06032F
:10052000664EC6F80C3412F0020F0AD0654B1B68F9
:100530004FF0010606FA01F643EA06035F4EC6F8DD
:10054000083470BD00B5002059490861C860142006
:10055000486100208861C8610846006840F00100D9
:1005600008600846406858490840514948600846B4
:100570000068564908404E4908600846006820F463
:10058000802008600846406820F4FE004860002093
:10059000886000214FF00060FFF71CFF00BD10B520
:1005A0004B48006840F004004FF0E021C1F8100D06
:1005B0003F48C06940F080503D49C86145484068A7
:1005C00040F48070434948600846006840F00400E9
:1005D00008600846006840F002000860FFF7D6FD9A
:1005E00010BD2F48001D2D4908607047014649067F
:1005F0002F4A926942F001022D4B9A612F4A5268AC
:1006000022F0E0622D4B5A601A4652680A435A6043
:10061000704730B504460025FFF794FF2448006872
:1006200040F480302249086000BF21480068400C37
:10063000FBD04FF480601E494860A01EC4B208463B
:10064000406840EA844048600846406840F4803092
:1006500048602148006840F032001F490860144893
:10066000006840F080701249086000BF10480068C0
:10067000400EFBD00E48406840F002000C49486034
:1006800005E00B484068C0F3870505F00305022D1F
:10069000F7D130BD80FFFF1F08ED00E00CED00E05A
:1006A0000000FA0500E100E004E100E000E400E001
:1006B0000010024008000140000401400000014019
:1006C0000C040140080401400000FFF8FFFFF6FEA3
:1006D00010ED00E000700040002002404FF0E021EB
:1006E000096921F004014FF0E0221161C21700EB0B
:1006F0005272D2101F4B1A70194609784FF47A7251
:1007000051431D4A1180704701461B4A12884A43D3
:100710004FF0E0235A6100229A6101221A6100BF62
:100720004FF0E022106910F0010F02D010F4803F6A
:10073000F6D000224FF0E0231A619A61704701461B
:100740000C4A12784A434FF0E0235A6100229A6122
:1007500001221A6100BF4FF0E022106910F0010F72
:1007600002D010F4803FF6D000224FF0E0231A614F
:100770009A61704716000020180000200920FFF73A
:1007800048FF4820FFF7AAFFFFF754FDFFF700FDE1
:1007900000205B490860B1E0FFF70EFD0446E4B3BA
:1007A000012C04D0022C39D0032C35D16CE000216F
:1007B0000720FFF7A9FDC820FFF7A6FF03210620A9
:1007C000FFF7A2FDC820FFF79FFF01210520FFF7DB
:1007D0009BFDC820FFF798FF00210420FFF794FD40
:1007E000C820FFF791FF03210846FFF78DFDC820C1
:1007F000FFF78AFF00210220FFF786FDC820FFF7E0
:1008000083FF05210120FFF77FFDC820FFF77CFF54
:1008100000210846FFF778FD6CE06CE000210846F7
:10082000FFF772FD6420FFF76FFF05210120FFF73E
:100830006BFD6420FFF768FF00210220FFF764FDD5
:100840006420FFF761FF03210846FFF75DFD642088
:10085000FFF75AFF00210420FFF756FD6420FFF741
:1008600053FF01210520FFF74FFD6420FFF74CFFE8
:1008700003210620FFF748FD6420FFF745FF002114
:100880000720FFF741FD35E000210320FFF73CFD85
:100890001420FFF739FF00210420FFF735FD322037
:1008A000FFF732FF00210220FFF72EFD1420FFF793
:1008B0002BFF00210520FFF727FD3220FFF724FF43
:1008C00000210120FFF720FD1420FFF71DFF00216C
:1008D0000620FFF719FD3220FFF716FF002108461A
:1008E000FFF712FD1420FFF70FFF00210720FFF78D
:1008F0000BFD00BF02E00A20FFF706FF4CE70000F7
:100900008C81214208480047FEE7FEE7FEE7FEE74C
:10091000FEE7FEE7FEE7FEE7FEE7FEE703480449E1
:10092000024A044B70470000ED00000880000020E0
:100930008002002080000020704770477047754695
:1009400000F028F8AE4605006946534620F007003F
:10095000854618B020B5FFF7E1FFBDE820404FF015
:1009600000064FF000074FF000084FF0000B21F099
:100970000701AC46ACE8C009ACE8C009ACE8C00966
:10098000ACE8C0098D4670470446AFF300802046AE
:10099000FFF7F5FB004870471C0000200148704736
:1009A000704700BF2000002001491820ABBEFEE7C1
:1009B00026000200704710B5FFF7F0FF4FF000016E
:1009C000016010BDE4090008000000201C000000C8
:1009D00028010008000A00081C0000206402000032
:1009E00044010008013F065B4F666D7D077F6FBFC6
:1009F00086DBCFE6EDFD87FFEF0000000000000082
:0400000508000905E1
:00000001FF
