:020000040800F2
:1000000048070020890100089101000893010008B9
:100010009501000897010008990100080000000000
:100020000000000000000000000000009B0100082C
:100030009D010008000000009F010008A1010008C8
:10004000A3010008A3010008A3010008A301000800
:10005000A3010008A3010008A3010008A3010008F0
:10006000A3010008A3010008A3010008A3010008E0
:10007000A3010008A3010008A3010008A3010008D0
:10008000A3010008A3010008A3010008A3010008C0
:10009000A3010008A3010008A3010008A3010008B0
:1000A000A3010008A3010008A3010008A3010008A0
:1000B000A3010008A3010008A3010008A301000890
:1000C000A3010008A3010008A3010008A301000880
:1000D000A3010008C5050008A3010008A30100084A
:1000E000A3010008A3010008A301000800F002F822
:1000F00000F03AF80AA090E8000C82448344AAF188
:100100000107DA4501D100F02FF8AFF2090EBAE885
:100110000F0013F0010F18BFFB1A43F0010318473B
:10012000E006000000070000103A24BF78C878C13C
:10013000FAD8520724BF30C830C144BF04680C60ED
:10014000704700000023002400250026103A28BF35
:1001500078C1FBD8520728BF30C148BF0B60704739
:100160001FB51FBD10B510BD00F033F81146FFF7E5
:10017000F7FF00F0E5FA00F051F803B4FFF7F2FFE3
:1001800003BC00F092FA0000094880470948004784
:10019000FEE7FEE7FEE7FEE7FEE7FEE7FEE7FEE737
:1001A000FEE7FEE704480549054A064B7047000094
:1001B00065050008ED000008480100204807002000
:1001C000480300204803002070477047704770477D
:1001D0007047754600F028F8AE460500694653465C
:1001E00020F00700854618B020B5FFF7DBFFBDE81B
:1001F00020404FF000064FF000074FF000084FF08E
:10020000000B21F00701AC46ACE8C009ACE8C0091E
:10021000ACE8C009ACE8C0098D4670470446AFF3AE
:1002200000802046FFF7A9FF00487047E800002043
:100230002DE9F0410246002500260020002300247D
:10024000002791F803C00CF00F0591F803C01CF0D3
:10025000100F03D091F802C04CEA050591F800C0D8
:10026000BCF1000F31D0146800202BE04FF0010CDE
:100270000CFA00F3B1F800C00CEA03069E4220D14C
:1002800083004FF00F0C0CFA03F7BC4305FA03FC94
:100290004CEA040491F803C0BCF1280F06D14FF0DA
:1002A000010C0CFA00FCC2F814C00AE091F803C07B
:1002B000BCF1480F05D14FF0010C0CFA00FCC2F85C
:1002C00010C0401C0828D1D31460B1F800C0BCF1A4
:1002D000FF0F34DD546800202EE000F1080C4FF0D1
:1002E000010808FA0CF3B1F800C00CEA03069E42BC
:1002F00021D183004FF00F0C0CFA03F7BC4305FA31
:1003000003FC4CEA040491F803C0BCF1280F05D1AA
:1003100000F1080C08FA0CF8C2F8148091F803C038
:10032000BCF1480F07D100F1080C4FF0010808FAA2
:100330000CF8C2F81080401C0828CED35460BDE8E9
:10034000F0810000F0B50A460023002400210025BA
:1003500000F00046B6F1004F02D11D4EF16901E0F8
:100360001B4E7168C0F3034583B200F44016B6F526
:10037000401F08D121F07061154E766826F0706636
:10038000134F7E6012E000F48016B6F5801F06D190
:10039000032606FA05F4A14341F0706106E0460D1C
:1003A000360103FA06F6B14341F0706122B1460D01
:1003B000360103FA06F6314300F00046B6F1004F6D
:1003C00002D1034EF16101E0014E7160F0BD000009
:1003D00000000140416170470161704708B501218B
:1003E000492000F029F801211048FFF7ABFF082051
:1003F000ADF8000010208DF8030003208DF80200F6
:1004000069460B48FFF714FF08210948FFF7E4FF8E
:100410004FF47F40ADF8000069460648FFF708FF3B
:100420004FF47F410348FFF7D5FF08BD00023000BD
:10043000000C01400018014029B1064A92690243AC
:10044000044B9A6104E0034A92698243014B9A612A
:10045000704700000010024010B500F001F810BD18
:100460000CB50020019000903248006840F48030C4
:100470003049086000BF2F48006800F40030009049
:100480000198401C0190009818B90198B0F5A06F30
:10049000F1D12848006810F4003F02D001200090FC
:1004A00001E0002000900098012842D12248006815
:1004B00040F01000204908600846006820F0030062
:1004C00008600846006840F002000860194840686B
:1004D000184948600846406848600846406840F44B
:1004E000806048600846406820F47C1048600846F8
:1004F000406840F4E81048600846006840F08070AA
:10050000086000BF0B48006810F0007FFAD009486F
:10051000406820F00300074948600846406840F002
:100520000200486000BF0348406800F00C00082843
:10053000F9D10CBD0010024000200240042808D16F
:100540004FF0E021096941F004014FF0E022116110
:1005500007E04FF0E021096921F004014FF0E022AB
:100560001161704710B51348006840F0010011494F
:10057000086008464068104908400E49486008462F
:1005800000680E4908400B4908600846006820F4DE
:10059000802008600846406820F4FE0048604FF460
:1005A0001F008860FFF758FF4FF0006004490860A3
:1005B00010BD0000001002400000FFF8FFFFF6FE33
:1005C00008ED00E010B540F225511D4800F03EF85E
:1005D00010B31B4800F064F8C4B21A48008810F445
:1005E000004F2BD11748008810F4804F0CD00A2CF4
:1005F00003D000201349088020E01248008840F40E
:1006000000401049088019E00D2C06D10D480088E3
:1006100040F480400B49088010E00A480088C0F38D
:100620000D0009490C5407480088401C0549088002
:1006300008460088C72801DD0020088010BD0000A2
:1006400000380140180000202000002070B502464C
:100650000024002300250020A1F510666A3E00D189
:1006600000BFC1F3421501F01F03012606FA03F390
:10067000012D02D19689334006E0022D02D1168A5F
:10068000334001E0968A33400C12012606FA04F446
:100690001688344013B10CB1012000E0002070BD79
:1006A00001468888C0F308007047014600BF7047C4
:1006B00010B56FF00400FFF741FF0A4800680A49CF
:1006C000B0FBF1F0094908700846007800EB4001E2
:1006D000C1EBC0104FF6FF7101EAC0000449088069
:1006E00010BD00000000002000127A00140000205D
:1006F000160000200146114A12884A434FF0E023B9
:100700005A6100229A611A46126942F001021A6186
:1007100000BF4FF0E022106910F0010F02D010F47A
:10072000803FF6D04FF0E022126922F001024FF034
:10073000E0231A6100229A61704700001600002031
:10074000FFF7B6FFFFF74AFE53E000202949086093
:100750004FF400712848FFF73DFE4FF480612648B2
:10076000FFF738FE4FF400612348FFF733FE4FF4E4
:1007700080512148FFF72EFE4FF400511E48FFF72D
:1007800029FE4FF480411C48FFF724FE4FF400413E
:100790001948FFF71FFE4FF47A70FFF7ABFF0120F7
:1007A0001649C1F8A00141021348FFF715FE4FF4A6
:1007B00080611148FFF710FE4FF400610E48FFF70B
:1007C0000BFE4FF480510C48FFF706FE4FF400512A
:1007D0000948FFF701FE4FF480410748FFF7FCFD91
:1007E0004FF400410448FFF7F7FD4FF47A70FFF72C
:1007F00081FFAAE7A0012342001801400000234224
:100800002008000800000020200000002801000847
:1008100040080008200000202807000044010008CC
:1008200000A24A04000000000000000001020304CE
:10083000060708090000000000000000000000009A
:04000005080000ED02
:00000001FF
