:020000040800F2
:10000000C8020020ED090008F1090008F309000802
:10001000F5090008F7090008F909000800000000C8
:10002000000000000000000000000000FB090008C4
:10003000FD09000800000000FF090008010A00088F
:10004000030A0008030A0008030A0008030A00085C
:10005000030A0008030A0008030A0008030A00084C
:10006000030A0008030A0008030A0008030A00083C
:10007000030A0008030A0008030A0008030A00082C
:10008000030A0008030A0008030A0008030A00081C
:10009000030A0008030A0008030A0008030A00080C
:1000A000030A0008030A0008030A0008030A0008FC
:1000B000030A00086D030008030A0008030A000889
:1000C000030A0008030A0008030A0008030A0008DC
:1000D000030A000859080008030A0008030A000878
:1000E000030A0008030A0008030A000800F002F8E7
:1000F00000F03AF80AA090E8000C82448344AAF188
:100100000107DA4501D100F02FF8AFF2090EBAE885
:100110000F0013F0010F18BFFB1A43F0010318473B
:10012000B00E0000D00E0000103A24BF78C878C18D
:10013000FAD8520724BF30C830C144BF04680C60ED
:10014000704700000023002400250026103A28BF35
:1001500078C1FBD8520728BF30C148BF0B60704739
:100160001FB51FBD10B510BD00F05FFC1146FFF7B5
:10017000F7FF00F023FC00F07DFC03B4FFF7F2FF73
:1001800003BC00F05BFB000030BF000059488069F1
:1001900040F00100574988610846806940F0080036
:1001A00088610846806940F0400088615248406894
:1001B00040F0007050494860504800686FF30F00ED
:1001C0004E4908600846006843F2333108434B4902
:1001D00008604A480C30006840F0FF0047490C3185
:1001E00008604748006800204549086008460068E4
:1001F00040F03330086042480830006840F47F40E7
:100200003F4908310860704700F001013D4A116024
:10021000C0F340013C4AC2F8A411C0F380013B4A3C
:100220001160C0F3C00102F104021160C0F30011BB
:1002300002F104021160C0F3401102F104021160E6
:10024000C0F3801102F104021160C0F3C0112E4A04
:10025000C2F8BC11704730B503460C46184603EB94
:10026000D0714910A3EB4101294A1160194603EBF3
:10027000D1724FEA620000EBD0724FEA6202A0EB4B
:100280004202244DC5F8842118464FEAE37103EB7E
:1002900091714FEAA101204A11602049085DFFF7E2
:1002A000B3FF30BD30B503460C46184603EBD071A2
:1002B0004910A3EB4101164A1160194603EBD172B4
:1002C0004FEA620000EBD0724FEA6202A0EB4202FA
:1002D000104DC5F8842118464FEAE37103EB917184
:1002E0004FEAA1010C4A11600D49085DFFF78CFF30
:1002F00030BD00000010024000000140000C014031
:1003000004180140A001234200002342A801234217
:10031000808121420080214288812142000000200A
:100320000B00002070B505460C465A48C06940F0E5
:1003300002005849C86158480580001F048056488B
:100340002038008840F00100534920390880524885
:100350002C38008840F001004F492C3908800223D6
:100360001D220321012000F00DF970BD4A481C3800
:10037000008810F0010F20D048480078401C474901
:100380000870084600783B2817DD002008704448B4
:100390000078401C42490870084600783B280CDD74
:1003A000002008703F480078401C3E49087008460D
:1003B0000078172801DD0020087037481C380088B5
:1003C00020F0010034491C390880704710B53548C9
:1003D00000780A2190FBF1F0C4B221460020FFF71B
:1003E0003AFF012000F07CF82E4800780A2190FBAB
:1003F000F1F201FB1200C4B221460120FFF72BFFEE
:10040000012000F06DF80A210220FFF724FF0120EF
:1004100000F066F8224800780A2190FBF1F0C4B29F
:1004200021460320FFF717FF012000F059F81C4870
:1004300000780A2190FBF1F201FB1200C4B22146C0
:100440000420FFF708FF012000F04AF80A210520E8
:10045000FFF701FF012000F043F8104800780A215F
:1004600090FBF1F0C4B221460620FFF7F4FE012014
:1004700000F036F8094800780A2190FBF1F201FB00
:100480001200C4B221460720FFF7E5FE012000F06C
:1004900027F810BD001002402C0400401700002077
:1004A00016000020150000204FF0E021096921F01E
:1004B00004014FF0E0221161C21700EB5272C2F347
:1004C000C702224B1A701946097801EB4102C2EBB0
:1004D000C1114FF6FF7202EAC1011D4A1180704737
:1004E00001461B4A12884A434FF0E0235A6100221A
:1004F0009A6101221A6100BF4FF0E022106910F0EA
:10050000010F02D010F4803FF6D000224FF0E0231C
:100510001A619A61704701460C4A12784A434FF0BB
:10052000E0235A6100229A6101221A6100BF4FF054
:10053000E022106910F0010F02D010F4803FF6D0D5
:1005400000224FF0E0231A619A61704718000020E2
:100550001A000020AC4A0A400243AC4B1A607047B4
:100560000146072323EA01021202A84B1B1D18684B
:100570004FF6FF031840A64B18431043A34B1B1D17
:10058000186070472DE9F0478046894614461D469D
:100590002046E11704EB9171C1F3870AE11704EBE0
:1005A00091718910A4EB8101CFB2042000EBC70048
:1005B000C7B22846FFF7D4FFC5F1040008FA00F6D9
:1005C0000F20284100EA0900064306F00F06202C00
:1005D0000CDA904801684FF0010000FA04F041EA9B
:1005E00000014FF0E020C0F800110DE08A480068DB
:1005F000A4F120014FF0010202FA01F240EA0200E8
:100600004FF0E021C1F80401844850F82A0006FAAE
:1006100007F140EA0100814941F82A00BDE8F0876E
:1006200070B504460B46CE1701EB9676C6F38700ED
:10063000CE1701EB9676B610A1EB8606B606350E00
:10064000774B9B6943F00103754EB3614FEAB633B4
:1006500053F820300F26AE40B343724E46F8203098
:10066000334653F8203004FA05F61E436D4B43F829
:1006700020606D4B1B6801268E4033436A4E336009
:1006800012F0010F08D0684B0C331B6801268E4016
:100690003343654E0C36336012F0020F08D0624BC4
:1006A00008331E6801238B401E435F4B08331E60D6
:1006B00070BD00B500205A490861C8601420486127
:1006C00000208861C8610846006840F001000860A9
:1006D0000846406855490840514948600846006846
:1006E000534908404E4908600846006820F48020BD
:1006F00008600846406820F4FE00486000208860DA
:1007000000214FF00060FFF725FF00BD10B53F4806
:100710000830006840F004003C4908310860404857
:10072000C06940F080503E49C8614248406840F48A
:100730008070404948600846006840F00400086046
:100740000846006840F002000860FFF71DFD10BD7C
:100750002F48001D2D49091D0860704701464906B4
:100760002F4A926942F001022D4B9A612D4A083AB4
:10077000526822F0E0622B4B083B5A601A465268DE
:100780000A435A60704730B504460025FFF791FFD1
:100790002348006840F480302149086000BF2048A9
:1007A0000068400CFBD04FF480601D494860A01EDB
:1007B000C4B20846406840EA844048600846406841
:1007C00040F4803048601C48006840F032001A490C
:1007D00008601348006840F080701149086000BF4D
:1007E0000F480068400EFBD00D48406840F0020002
:1007F0000B49486005E00A484068C0F3870505F0EA
:100800000305022DF7D130BD80FFFF1F08ED00E08A
:100810000000FA0500E100E004E100E000E400E08F
:100820000010024008000140000401400000FFF8F1
:10083000FFFFF6FE0070004000200240014600BFAE
:10084000704700BF574A128812F0400FFAD0C2B268
:10085000544B1B1D1A8070475249098811F0200F14
:1008600034D05049091D0988C8B24F49097811F0A0
:10087000800F2BD14C49097811F0400F0CD00A2879
:1008800003D00021484A117020E04749097841F01F
:100890008001454A117019E00D2806D142490978B6
:1008A00041F04001404A117010E03F49097801F0E1
:1008B0003F013E4A50543C490978491C3A4A11705C
:1008C000114609783F2901DD0021117070472DE99B
:1008D000F05F05460E46300100F01AFA81463449B1
:1008E00005FB01F000F014FA8246494600F02EF9AB
:1008F0000746384600F0ECF984B2204600F008FACA
:100900008346394600F0E4FA82464FF0834100F016
:1009100013FA814600F0DCF980464FF6FF7000EADA
:10092000041404EB080084B22248806940F00400FB
:10093000204988610846806940F4804088611E48EB
:10094000006820F47F601C4908600846006840F495
:100950000B6008601748C06840F480401549C860C3
:100960000846C06820F48040C8600E480830048003
:10097000001D008842F20C0108430A490C3108802E
:100980000846008840F4807008800846008840F0DF
:10099000200008800223252203210846FFF7F2FDEC
:1009A000BDE8F09F003801401C000020240000201A
:1009B00040420F0000100240040801400620FFF7EB
:1009C000E2FE4820FFF770FD41F61F4142F20F7032
:1009D000FFF7A8FCFFF7DAFB00200349086001E0FD
:1009E000FFF7F4FCFCE700008C8121420848004737
:1009F000FEE7FEE7FEE7FEE7FEE7FEE7FEE7FEE7CF
:100A0000FEE7FEE703480449024A044B7047000032
:100A1000ED000008C8000020C8020020C800002027
:100A200070477047704770477047754600F028F868
:100A3000AE4605006946534620F00700854618B0CB
:100A400020B5FFF7DFFFBDE820404FF000064FF074
:100A500000074FF000084FF0000B21F00701AC46F3
:100A6000ACE8C009ACE8C009ACE8C009ACE8C00912
:100A70008D4670470446AFF300802046FFF77DFBAC
:100A8000004870476400002090EA010F48BF81F0E1
:100A9000004100F12E82421A3CBF801A89184FEAA9
:100AA000D0524FF07F4C1CEA410FA2EBD15318BF3C
:100AB0009CEA026F00F03B804FF0004C4CEA0020B3
:100AC0004CEA012121FA03FC10EB0C0C1ED202F1BE
:100AD000FF325FEA1C2040EBC25038BF70471CF069
:100AE0007F0F4FEA400C18BFBCF17F4F38BF7047F3
:100AF000C3F12003994008BF20F00100BCF17F4FF3
:100B000038BF7047A0F1C04000F0DDB94FEA3C00AB
:100B1000000A40EBC25028BF1CF0FF0F4FEA400C08
:100B2000E6D018BFBCF17F4F38BF7047EAE79CEAB8
:100B3000026F05D010EA5C0F08BF00F0004070475C
:100B400010B500F07AF900BF64FBBE3E4FF47F0C95
:100B50001CEAD0121EBF1CEAD11392EA0C0F93EAD2
:100B60000C0F00F0858090EA010F48BF42F48072BC
:100B700040F4000C41F400002CF07F4120F07F4055
:100B800000B58142A2EB03020FF2081CACEB504E01
:100B9000C0F100009EF800E04FEA4E0E00FB0EFC94
:100BA00038BF49004FEA2C1C02F5FA020CFB0EF389
:100BB0004FEACE1E4FEA112C4FEAC1210EEB635EC5
:100BC00042EB22420EFB0CFC4FEA1C5300FB0311CC
:100BD0004FEA112C4FEA01310EFB0CFC4FEADC4CC2
:100BE00000FB0C11C14228BF09184CEB03335DF820
:100BF00004EB10EB410143EBC250B2F57C0F38BF60
:100C0000704729D512F0F00F1CBF00F1C04000F072
:100C100000407047008182838485868788898B8C19
:100C20008D8E8F919293959697999A9C9D9FA0A255
:100C3000A3A5A7A8AAACAEB0B2B3B5B7B9BCBEC0A5
:100C4000C2C5C7C9CCCED1D4D7D9DCDFE2E6E9EC46
:100C5000F0F3F7FAFE0000004FEA400C0CF1807C44
:100C6000BCF17E4F28BF7047B0F1C04000F02BB9F7
:100C700090EA010F0CEAD11348BF42F4807262453A
:100C800038BF634507D213F47F0F16D080EA010006
:100C900000F00040704710B500F0CFF8097EFC3E30
:100CA00000F005B880EA010000F00040704780EADB
:100CB000010000F0004000F006B912F47F0F04BFFD
:100CC0000248704780EA010000F0FDB80000C07FD4
:100CD000C10DD1F19E0206DB4FEA002343F0004331
:100CE00023FA02F07047004207D54FEA4001B1F104
:100CF000FE4F02D24FF00000704710B500F09DF893
:100D000049922480002070476FEA2000704700005D
:100D1000B0FA80F310FA03F2C3F19D030AD0D905AB
:100D200001EB1220530638BF704700F1010008BFE5
:100D300020F00100704700004FF47F0C1CEAD01235
:100D40001EBF1CEAD11392EA0C0F93EA0C0F00F0BD
:100D5000478090EA010F48BF42F480724FF0004C88
:100D60004CEA00204CEA012102EB0302A0FB011334
:100D7000A2F50002002918BF43F001035B0028BF61
:100D80004FEA330342EB22425FEA132C4CEBC25092
:100D90002EBFBCEB436FB2F57C0F70474FEA036C7C
:100DA000BCF1004F08BF20F00100B2F57C0F38BF46
:100DB00070470BD582F0FF0212F5803FC8BF704725
:100DC00000F1C040D8BF00F00040704700F5000CB3
:100DD0005FEA4C0C48BF7047B0F1C04000F073B8F8
:100DE00090EA010F0CEAD11348BF42F480726245C9
:100DF00038BF634504D280EA010000F0004070472C
:100E000010B500F01AF800BF8900013E00F007B8E5
:100E100000F009B85FEA410C5FEA1C6C08D080EA78
:100E2000010000F050B85FEA400C5FEA1C6CF6D19C
:100E30004FF00040A0F5800070470EF1020E2EF03A
:100E4000030E5EF8044B244204D44FEA4102B2F18F
:100E50007F4F11D84FEA4003B3F17F4F0CD80ED12A
:100E60004FEAD07CB2F17F4F0CEB4C0C0CF1020C32
:100E700008BF4CEBD17C04E04FF0080C01E04FEAD6
:100E8000D17C0CEB4C0324FA03F404F00704B4F116
:100E9000040C06D20EEB840CBDE810404CF0010CA3
:100EA0006047DFE80CF0070802024FF00040A0F5B1
:100EB000800010BD0846420018BFD2F1807288BF82
:100EC00000F0004010BDFF2141EAD050C00570473E
:100ED00080F0004090EA010F7FF5DDAD81F0004128
:100EE00000F007B890EA010F48BF81F000413FF5DC
:100EF000D2AD421A04D882F00042A0EB02001144A5
:100F00004FEAD0524FF07F4C1CEA410FA2EBD15375
:100F100018BF9CEA026F4AD04FF0004C4CEA002008
:100F20004CEA012121FA03FCB0EB0C0C0FD412F0B7
:100F3000FE0F36D05FEA4C001DD5001240EBC250C8
:100F400038BF70471CF03F0F18BF70470BE0A2F18D
:100F500001025FEA1C2040EBC25038BF70471CF012
:100F60007F0F18BF7047C3F12003994014BF401E84
:100F700020F00100704780084FEA122308BF704735
:100F8000B0FA80FCA2EB0C02CCF1280C60FA0CF059
:100F900093EA122F04BF00EBC25070474FEAC370B0
:100FA0007047130A5FEADC1008BF7047F6E79CEA57
:100FB000026F04D010EA5C0F08BF0020704710B524
:100FC000FFF73BFF40DFF63E81F000407047000036
:100FD000F00F000800000020240000002801000895
:100FE0001410000824000020A4020000440100089E
:100FF0003F065B4F666D7D077F6F40BF86DBCFE6A8
:10100000EDFD87FFEF000000000000000000000081
:0410100000000000DC
:04000005080000ED02
:00000001FF
