:020000040800F2
:10000000701B002005010008090100080B01000811
:100010000D0100080F010008110100080000000098
:1000200000000000000000000000000013010008B4
:100030001501000800000000E92500087B02000807
:100040001B0100081B0100081B0100081B01000820
:100050001B0100081B0100081B0100081B01000810
:100060001B0100081B0100081B0100081B01000800
:100070001B0100081B0100081B0100081B010008F0
:100080001B0100081B0100081B0100081B010008E0
:100090001B0100081B0100081B0100081B010008D0
:1000A0001B0100081B0100081B0100081B010008C0
:1000B0001B0100081B0100081B0100081B010008B0
:1000C0001B0100081B0100081B0100081B010008A0
:1000D0001B010008690600081B0100081B0100083D
:1000E0001B0100081B0100081B010008DFF80CD0F1
:1000F00002F0F4FB004800473B020008701B0020A0
:1001000030BF000005480047FEE7FEE7FEE7FEE7D8
:10011000FEE7FEE7FEE7FEE7FEE7FEE7ED0000088C
:100120001AE05D490878022100F0B3FB5A480068E4
:100130005A49086058480068401C574908600846FA
:100140000068072801D9002008604FF42F730022AF
:100150001146104602F013F9E3E71AE04E49087819
:10016000012100F096FB4C4800684C4908604A4861
:100170000068401C4849086008460068072801D903
:10018000002008604FF4167300221146104602F05A
:10019000F6F8E3E71AE040490878002100F079FB1F
:1001A0003D4800683D4908603B480068401C3A49AA
:1001B000086008460068072801D9002008604FF44D
:1001C000617300221146104602F0D9F8E3E710B53A
:1001D000044600BF02F0D2F90923314A0021AFF2F0
:1001E0004B0001F044FE05232E4A0021AFF295009A
:1001F00001F03DFE07232C4A0021AFF2DB0001F0A5
:1002000036FE0A2002F021F802F0C1F910BD4FF0CD
:10021000E020006920F004004FF0E021086108466A
:10022000006940F00200086142F228304861084647
:10023000006940F001000861704710B5092000F026
:10024000AAF9482000F038F84FF41651482000F081
:1002500046FA00F0BBFA002014490860FFF7D7FF08
:1002600000F056FC0A23124A0021AFF29D0001F073
:10027000FEFD00F011FD002010BD10B502F07EF96A
:100280000C480078401C0B49087002F080F900F01F
:1002900040FD00F063FC10BD000000200C0C01408C
:1002A0006803002068020020680100208C81214240
:1002B000680500203D0000204FF0E021096921F091
:1002C00004014FF0E0221161C21700EB5272C2F339
:1002D000C702224B1A701946097801EB4102C2EBA2
:1002E000C1114FF6FF7202EAC1011D4A1180704729
:1002F00001461B4A12884A434FF0E0235A6100220C
:100300009A6101221A6100BF4FF0E022106910F0DB
:10031000010F02D010F4803FF6D000224FF0E0230E
:100320001A619A61704701460C4A12784A434FF0AD
:10033000E0235A6100229A6101221A6100BF4FF046
:10034000E022106910F0010F02D010F4803FF6D0C7
:1003500000224FF0E0231A619A61704704000020E8
:1003600006000020AC4A0A400243AC4B1A607047BA
:100370000146072323EA01021202A84B1B1D18683D
:100380004FF6FF031840A64B18431043A34B1B1D09
:10039000186070472DE9F0478046894614461D468F
:1003A0002046E11704EB9171C1F3870AE11704EBD2
:1003B00091718910A4EB8101CFB2042000EBC7003A
:1003C000C7B22846FFF7D4FFC5F1040008FA00F6CB
:1003D0000F20284100EA0900064306F00F06202CF2
:1003E0000CDA904801684FF0010000FA04F041EA8D
:1003F00000014FF0E020C0F800110DE08A480068CD
:10040000A4F120014FF0010202FA01F240EA0200D9
:100410004FF0E021C1F80401844850F82A0006FAA0
:1004200007F140EA0100814941F82A00BDE8F08760
:1004300070B504460B46CE1701EB9676C6F38700DF
:10044000CE1701EB9676B610A1EB8606B606350EF2
:10045000774B9B6943F00103754EB3614FEAB633A6
:1004600053F820300F26AE40B343724E46F820308A
:10047000334653F8203004FA05F61E436D4B43F81B
:1004800020606D4B1B6801268E4033436A4E3360FB
:1004900012F0010F08D0684B0C331B6801268E4008
:1004A0003343654E0C36336012F0020F08D0624BB6
:1004B00008331E6801238B401E435F4B08331E60C8
:1004C00070BD00B500205A490861C8601420486119
:1004D00000208861C8610846006840F0010008609B
:1004E0000846406855490840514948600846006838
:1004F000534908404E4908600846006820F48020AF
:1005000008600846406820F4FE00486000208860CB
:1005100000214FF00060FFF725FF00BD10B53F48F8
:100520000830006840F004003C4908310860404849
:10053000C06940F080503E49C8614248406840F47C
:100540008070404948600846006840F00400086038
:100550000846006840F002000860FFF7D1FD10BDBA
:100560002F48001D2D49091D0860704701464906A6
:100570002F4A926942F001022D4B9A612D4A083AA6
:10058000526822F0E0622B4B083B5A601A465268D0
:100590000A435A60704730B504460025FFF791FFC3
:1005A0002348006840F480302149086000BF20489B
:1005B0000068400CFBD04FF480601D494860A01ECD
:1005C000C4B20846406840EA844048600846406833
:1005D00040F4803048601C48006840F032001A49FE
:1005E00008601348006840F080701149086000BF3F
:1005F0000F480068400EFBD00D48406840F00200F4
:100600000B49486005E00A484068C0F3870505F0DB
:100610000305022DF7D130BD80FFFF1F08ED00E07C
:100620000000FA0500E100E004E100E000E400E081
:100630000010024008000140000401400000FFF8E3
:10064000FFFFF6FE0070004000200240014600BFA0
:10065000704700BF574A128812F0400FFAD0C2B25A
:10066000544B1B1D1A8070475249098811F0200F06
:1006700034D05049091D0988C8B24F49097811F092
:10068000800F2BD14C49097811F0400F0CD00A286B
:1006900003D00021484A117020E04749097841F011
:1006A0008001454A117019E00D2806D142490978A8
:1006B00041F04001404A117010E03F49097801F0D3
:1006C0003F013E4A50543C490978491C3A4A11704E
:1006D000114609783F2901DD0021117070472DE98D
:1006E000F05F05460E46300102F0A8F88146344915
:1006F00005FB01F002F0A2F88246494602F05EF8DE
:100700000746384602F09FF884B2204602F096F879
:100710008346394602F019F882464FF0834102F0D1
:1007200017F8814602F08FF880464FF6FF7000EA16
:10073000041404EB080084B22248806940F00400ED
:10074000204988610846806940F4804088611E48DD
:10075000006820F47F601C4908600846006840F487
:100760000B6008601748C06840F480401549C860B5
:100770000846C06820F48040C8600E4808300480F5
:10078000001D008842F20C0108430A490C31088020
:100790000846008840F4807008800846008840F0D1
:1007A000200008800223252203210846FFF7F2FDDE
:1007B000BDE8F09F00380140080000206C050020D3
:1007C00040420F0000100240040801405848806970
:1007D00040F00100564988610846806940F00800F1
:1007E00088610846806940F040008861514840684F
:1007F00040F000704F4948604F4800686FF30F00A9
:100800004D4908600846006843F2333108434A49BD
:10081000086049480C30006840F0080046490C3137
:10082000086046480068002044490860084600689F
:1008300040F0333008604148083000683F490831D3
:100840000860704700F001013D4A1160C0F34001AB
:100850003C4AC2F8A411C0F380013B4A1160C0F3C6
:10086000C00102F104021160C0F3001102F10402A0
:100870001160C0F3401102F104021160C0F3801155
:1008800002F104021160C0F3C0112E4AC2F8BC117B
:10089000704730B503460C46184603EBD07149103B
:1008A000A3EB4101294A1160194603EBD1724FEACB
:1008B000620000EBD0724FEA6202A0EB4202244DCC
:1008C000C5F8842118464FEAE37103EB91714FEAB2
:1008D000A101204A11602049085DFFF7B3FF30BD38
:1008E00030B503460C46184603EBD0714910A3EB14
:1008F0004101164A1160194603EBD1724FEA6200BA
:1009000000EBD0724FEA6202A0EB4202104DC5F834
:10091000842118464FEAE37103EB91714FEAA1017C
:100920000C4A11600D49085DFFF78CFF30BD0000D7
:100930000010024000000140000C0140041801407A
:10094000A001234200002342A801234280812142CA
:100950000080214288812142100000201A000020DE
:1009600000BF03E04FF4FA6001F0E0FCFD480078BE
:100970000028F7D0FC4800686421B0FBF1F400BF08
:1009800001F0FCFDF9480068F9490860F74806687D
:100990000020F649086001F0FAFD6CB1B6FBF4F0F6
:1009A000C0F1640045B2002D02DBF24805700BE097
:1009B0000020F049087007E00020EE490870EA487E
:1009C00000686421B0FBF1F401F0D2FD4FF47A70BD
:1009D00001F0ACFCD4E700B585B0032000214FF452
:1009E0000072E54BCDE90132CDE903104FF6FE7000
:1009F0000B23E24A0090AFF2970001F081FA05B0B4
:100A000000BD00BF00BF01F0B9FDD8480068401C20
:100A1000D649086001F0BBFD01F0AEFDF3E700B57B
:100A200085B0032000214FF40072D54BCDE901328F
:100A3000CDE903104FF6FF700C23D24A0090AFF2BD
:100A40003D0001F05DFA05B000BD10B5CE4800F1E3
:100A50000C02002106E00023037042600C300C32CF
:100A60004B1C99B20129F6DB002303704360C64B8F
:100A7000C64C236010BD10B50023C54C2360002078
:100A800005E00023C34C44F82030431CD8B20D28A5
:100A9000F7DBC14901F13402002004E04A6134313E
:100AA0003432431CD8B20C28F8DB00234B61BA4B1C
:100AB000BA4C236010BD0022B94B1A70B94900200E
:100AC00004E0002201F8012B421C90B20228F8DB5E
:100AD0000022B54B1A70B54B1A70B54B1A60B54B66
:100AE0001A6070470020B4490860B4490870B449DE
:100AF0000870B4490870B4490870B44908609B494B
:100B000008609B49086098490860964908707047DA
:100B100010B501F026FDFFF7E5FFFFF7CCFFFFF76B
:100B2000AAFFFFF792FF00F0D2FD00F087FE01F070
:100B3000ECF8FFF774FFFFF74EFF01F013FD10BD57
:100B4000A1480078012808D19C480078FF2804DAE1
:100B50009A480078401C99490870704710B59A4827
:100B60000078012837D101F009FD94480078002869
:100B700004DD92480078401E904908708F48007844
:100B800038BB8F48007820BB914885490978405C84
:100B90009049087083480978405C8D49085C8D490C
:100BA000097800EBC10081490870084600787E4949
:100BB000097888420DD077487C49097850F821009F
:100BC0007B49086081480068401C8049086001F04A
:100BD00003FD01F0DCFC10BD10B57B480078012856
:100BE0000CD101F0CBFC76480078FF2804DA744879
:100BF0000078401C7249087001F0C9FC10BD10B5A6
:100C000001F0BCFC6D48007810BB6D480078F8B965
:100C10006F4863490978445C6248005D6C49085C30
:100C200000EBC40061490870084600785E49097805
:100C300088420DD057485D49097850F821005C4939
:100C4000086062480068401C6049086001F0BDFC13
:100C500001F09DFC10BD10B55B48007801281AD149
:100C600001F08CFC56480078002812DD54480078CA
:100C7000401E534908700846007838B94F4800783C
:100C800020B901F084FCFFF7BAFF04E001F07FFC1B
:100C900001E001F07CFC10BD70B54B480078E0B974
:100CA0004B483F490978445C3E48005D48490D5C2B
:100CB00005EBC4003D490870084600783A490870C1
:100CC00034483A49097850F8210039490860084603
:100CD00000683849086001F067FC70BD10B502205B
:100CE00001F024FB01F04AFC00202049086001F0DB
:100CF0004EFC4FF47A7001F019FB01F03FFC1B48E9
:100D000000681949086001201649087001F03FFC8D
:100D100010BD10B501F02FFC01F030FC2648006832
:100D2000401C2549086001F032FC27480078012862
:100D30006AD11748046863E001F020FC608D80B13F
:100D4000608D401E0004000C608556D194F82C0084
:100D500010F0080F4FD104F12F04A0781049097842
:100D60003AE04AE03C000020340000204800002027
:100D7000380000203000002000060020FC0D00207C
:100D8000000E0020FC150020AC05002028000020EB
:100D900058000020001600203416002050000020CB
:100DA00042000020430000204000002041000020BD
:100DB000540000204C000020640000203D00002072
:100DC0003F000020460000204500002024000020B5
:100DD000262900083E00002040EA0100A3490870CF
:100DE0002078A349085C617840EA010014F82F19C3
:100DF0009F4A505401E001206085646901F0C7FBFF
:100E000094F82D000C2897D110BDFC207047704736
:100E10002DE9F04303460C46154693F80180DFF8B0
:100E2000549219F80820DFF8508218F802C003F134
:100E3000080818F8028019F80860DFF83C8218F8F2
:100E4000067006EBC20808F0FF0003F1080818F866
:100E5000028038EA070803F1080909F8028005D181
:100E600093F8018028EA0C0883F80180DFF80C82EF
:100E700058F820104FF00008A1F82A80C1F81C8013
:100E80000C6291F82C8028EA050881F82C8091F8F2
:100E90002C80B8F1000F13D1DFF8D08198F80080D2
:100EA00048EA0C08DFF8C49189F80080DFF8C081B7
:100EB00018F8028048EA0708DFF8B49109F80280C0
:100EC000BDE8F0836E490968C8616D49096891F809
:100ED0002F10674A515C6A4A126892F83020914399
:100EE000674A126892F82F20614B995408D16449DF
:100EF000096891F831205D49097891435B4A117086
:100F00005F49096891F82F2000F10801895C5C4A6B
:100F1000126892F830201143594A126892F82F3023
:100F200000F10802D1544178554A126892F83120F4
:100F30001143417070475249096891F82F2000F120
:100F40000801895C4E4A126892F8302091434C4A5D
:100F5000126892F82F3000F10802D15406D141787E
:100F6000474A126892F83120914341700021444A67
:100F7000126882F82C10424A1268D161704701460B
:100F800000224A7001F1080000F8012B00F8012B43
:100F900070472DE9F05F05460E4617469846DDE995
:100FA0000BABDDF8289001F0E9FA36480468002C14
:100FB00058D054F8140F3349086001F0E8FA44F8A7
:100FC000146C657600202076E08244F810AC44F87A
:100FD000089C44F80C7C24F804BC24F8028CA0770C
:100FE000E810E076E07E2449085C607705F00700B1
:100FF000A076A07E085C20770020A0602061E060E1
:10100000A4F11404204601F0B4FA204601F0ABFA32
:1010100001F0B4FA194840F825401B4800686061A7
:101020000020A0611848006810B11748006884616A
:101030001548046004F12F04A0780C49097840EAAF
:1010400001000A49087020780949085C617840EA83
:10105000010014F82F19064A505401F098FA0020A4
:10106000BDE8F09F01F093FA4620F9E74200002026
:1010700043000020262900081E2900080016002031
:101080004C00002050000020580000202DE9F047BF
:1010900004460F4692461E4624B996203070002022
:1010A000BDE8F0872078052803D0012030700020AB
:1010B000F6E71AF0800F04D02AF0800A4FF00109F9
:1010C00001E04FF000090020307001F057FABAF14A
:1010D000000F2ED0BAF1010F3ED0BAF1020F03D0AB
:1010E000BAF1030F4AD112E0208900EA0705BD4298
:1010F00006D1B9F1010F05D12089A843208101E073
:1011000098203070B4F8088001F041FA3DE0208961
:1011100000EA070535B1B9F1010F05D12089A843CF
:10112000208101E098203070B4F8088001F02FFA97
:101130002BE0208927EA0005BD4206D1B9F1010F55
:1011400005D120892843208101E098203070B4F82F
:10115000088001F01CFA18E0208927EA000535B163
:10116000B9F1010F05D120892843208101E09820A1
:101170003070B4F8088001F00AFA06E001F007FACE
:101180004FF000089720307000BF00BF404687E74F
:1011900070B506460D46F9480078002803DD8D201D
:1011A0002870002070BD01F0E9F9F54804686CB1C1
:1011B00000684068F2490860052020702681002000
:1011C000606001F0E4F90020287003E001F0DFF92D
:1011D0009A2028702046E5E730B501464A6808683D
:1011E0002AB9CC68606028B10025456002E0106033
:1011F00000B142608B6800255D6230BDF0B50646E7
:101200000F46B468002004F128046080278020790C
:1012100020F0200020712079A4F12804A8B904F15D
:101220002F04A078D749097840EA0100D549087011
:101230002078D549085C617840EA010014F82F193C
:10124000D14A50544FF0010500E000253046FFF729
:10125000C3FF2846F0BD2DE9F041044688461546F7
:10126000C6480078002804DD8C2028702046BDE8A0
:10127000F0811CB9962028702046F8E720780528D0
:1012800003D0012028702046F1E701F077F960686B
:1012900008B1012600E00026B8F1000F03D0B8F134
:1012A000010F2CD112E05EB900202070B448006814
:1012B0006060B348046001F06AF900202870D6E746
:1012C00001F065F9082028702046D0E7676804E03F
:1012D00000213846FFF792FF3F68002FF8D1002029
:1012E0002070A74800686060A548046001F04FF9CD
:1012F000012E01D1FFF783FC00202870B7E701F031
:1013000046F9072028702046B1E7F0B5059D9F4EAD
:10131000366896F82C6046F020069C4F3F6887F8A8
:101320002C609A4E36687585984E366871620A82CE
:101330008B74964E36688E6046680E6000264E604E
:10134000C860446804B161604160904E366896F8A8
:101350002F608D4FBE5D8D4F3F6897F83070BE4354
:101360008A4F3F6897F82F70DFF81CC20CF80760AF
:1013700008D1864E366896F83170824E3678BE4374
:10138000804F3E70F0BD2DE9F04F87B004460F4608
:1013900092469B46109E79480078002805DD022081
:1013A0003070002007B0BDE8F08F1CB99620307077
:1013B0000020F7E72078052803D0012030700020B6
:1013C000F0E71AF0800F04D02AF0800A4FF00109EC
:1013D00001E04FF0000901F0D1F8BAF1000F44D05C
:1013E000BAF1010F5FD0BAF1020F03D0BAF1030FC7
:1013F00077D11DE0208900EA0705BD420DD1B9F182
:10140000010F02D12089A8432081B4F8088001F09F
:10141000BEF8002030704046C4E753463A4602A961
:101420002046CDF800B0FFF770FF01F0B0F860E0A3
:10143000208900EA07056DB1B9F1010F02D12089B9
:10144000A8432081B4F8088001F0A1F80020307092
:101450004046A7E753463A4602A92046CDF800B0D9
:10146000FFF753FF01F093F843E0208927EA0005D6
:10147000BD420DD1B9F1010F02D12089284320814D
:10148000B4F8088001F083F800203070404689E706
:1014900053463A4602A92046CDF800B0FFF735FF83
:1014A00001F075F825E0208927EA00056DB1B9F152
:1014B000010F02D1208928432081B4F8088001F06F
:1014C00066F80020307040466CE753463A4602A961
:1014D0002046CDF800B0FFF718FF01F058F808E0FB
:1014E000FFE701F054F84FF00008972030704046B5
:1014F00058E700BFFFF783FB01F040F8234800687E
:1015000090F82C0010F0200F0ED002A8FFF764FE18
:1015100000201E49096881F82C0001F038F84FF0CE
:1015200000080A20307026E0B9F1010F1DD1BAF190
:10153000000F11D0BAF1010F0FD0BAF1020F03D092
:10154000BAF1030F10D100E000BF20890F490968EC
:10155000098D8843208107E000BF20890B49096875
:10156000098D0843208100BF00BFB4F8088001F056
:101570000EF800203070404614E700003D000020C7
:101580002C00002042000020430000204C000020DE
:101590002DE9F05F0446884691461E4624B9962000
:1015A00030700020BDE8F09F2078052803D001208E
:1015B00030700020F6E700F0E1FFB9F1000F03D032
:1015C000B9F1010F0AD104E0208920EA0800208146
:1015D0000AE0208940EA0800208105E000F0D7FFFA
:1015E000992030700020DDE700BF4FF0000A6568E9
:1015F00042E0A87C10B301282FD0022802D0032893
:1016000038D10EE02089298A00EA0107288AB842E9
:1016100006D139462846FFF7F1FD012800D1824660
:1016200028E02089298A00EA010737B1394628468F
:10163000FFF7E4FD012800D182461BE0288A2189BA
:1016400020EA0107288AB84206D139462846FFF722
:10165000D5FD012800D182460CE0288A218920EAA4
:10166000010737B139462846FFF7C8FD012800D1E8
:10167000824600BF00BF2D68002DBAD100F087FF61
:10168000BAF1010F01D1FFF7BAFA00F077FFB4F811
:1016900008B000F07CFF00203070584682E770B53B
:1016A00004460D461CB996202870002070BD207895
:1016B000052803D0012028700020F7E700F05EFF26
:1016C000268900F064FF002028703046EEE710B550
:1016D000094800F10C02002106E00023037042607B
:1016E0000C300C324B1CD9B20429F6DB00234360CA
:1016F000014B024C236010BDC40500202C000020CB
:101700002DE9F05F05460F4690461E4625B9762026
:1017100030700020BDE8F09F022F03D26F203070A0
:101720000020F7E7B8F1040F03D2702030700020DA
:10173000F0E700F023FF50480468006820B14E48ED
:10174000006840684C49086000F021FF1CB96E2019
:1017500030700020DEE7A94605EB080A4FF0000BC9
:1017600005E0C9F800A0D146C2440BF1010B781E78
:101770005845F6D80020C9F800002560656027614B
:10178000E760C4F8088030702046C3E770B50446AF
:101790000D461CB974202870002070BD00F0EEFECC
:1017A000206958B16668306860602069401E206119
:1017B00000F0EDFE002028703046EEE700F0E7FE76
:1017C000712028700020E8E770B504460D460CB97A
:1017D000742070BD0DB97320FBE700F0CFFED4E993
:1017E0000310884203D300F0D2FE7220F1E7606854
:1017F000286065602069401C206100F0C8FE002060
:10180000E7E770B505460C460DB9742070BD0CB9FC
:101810007520FBE700F0B2FE286820606868606011
:10182000A868A060E868E0602869206100F0AFFE69
:10183000D4E90301401A60610020E7E70F48002166
:101840000EE04A1C02EB82020C4B03EB8202426068
:10185000002202600261C260826014304A1C91B2B0
:101860000429EEDB0022426002600261C2608260F5
:10187000024A014B1A6070475C000020D818002013
:1018800070B505460DB9002070BD2878022801D03A
:101890000020F9E700F072FE6C68E08A00280DDD98
:1018A0002169081D20610E68E08A401EE082A1685F
:1018B0002069884203D16068206100E0002600F0C2
:1018C00066FE3046E0E72DE9F04106460F46F74850
:1018D0000078002802DD0020BDE8F08100F04EFE17
:1018E000F3480568006820B1F14800684068F04995
:1018F000086000F04CFE25B300F040FEED4804689F
:10190000BCB100680068EB49086000F040FE66600A
:1019100006EB8700A060E6602661A7820020E082D7
:1019200002202870002068806C602846FFF727FBA3
:1019300007E0DF4800686860DD48056000F027FECA
:1019400000252846C8E72DE9F0410446884615469B
:10195000D6480078002804DD8C2028700020BDE8DF
:10196000F0811CB9042028702046F8E7207802286E
:1019700003D0012028702046F1E700F0FFFD6078D9
:1019800008B1012700E00027B8F1000F03D0B8F13B
:10199000010F38D118E08FB96668C648006830601A
:1019A000C448066000202070C14800686060C048DC
:1019B000046000F0ECFD00202870D0E700F0E7FDA7
:1019C000082028702046CAE704E0042200212046AF
:1019D000FFF71EFA60780028F7D16668B5480068FE
:1019E0003060B448066000202070B1480068606034
:1019F000AF48046000F0CBFD012F01D1FFF7FFF8E5
:101A000000202870ABE700F0C2FD072028702046B8
:101A1000A5E770B505460DB9042070BD28780228E9
:101A200001D00120F9E700F0A9FD6C686068E06072
:101A3000606820610020E08200F0A9FD0020ECE752
:101A40002DE9F0410646884615469848007800285A
:101A500004DD022028700020BDE8F0811EB90420BA
:101A600028700020F8E73078022803D00120287081
:101A70000020F1E700F082FD7468E08A002812DDA2
:101A80002169081D20610F68E08A401EE082A1687C
:101A90002069884201D16068206100F078FD002053
:101AA00028703846D8E78448006890F82C0040F049
:101AB00004008149096881F82C007F480068A0F87B
:101AC0002A803046FFF7FEF900F061FDFFF797F836
:101AD00000F054FD78480068076A87B10020764915
:101AE000096808627449096881F82C00724909681C
:101AF000C86100F04CFD002028703846ACE7304645
:101B0000FFF719FA00F043FD0A2028700020A3E730
:101B100070B505460E460DB9042070BD0EB9032000
:101B2000FBE72878022801D00120F6E700F026FD27
:101B3000687850B1042231462846FFF769F900F071
:101B400026FDFFF75CF80020E7E76C68E08AA18AD1
:101B5000884203DB00F01BFD1E20DEE7E168081D64
:101B6000E0600E60E08A401CE082D4E90210884206
:101B700001D16068E06000F00AFD0020CDE770B59B
:101B800005460E460DB9042070BD0EB90320FBE7D3
:101B90002878022801D00120F6E700F0EFFC6878F1
:101BA00050B1042231462846FFF732F900F0EFFC2D
:101BB000FFF725F80020E7E76C68E08AA18A8842F1
:101BC00003DB00F0E4FC1E20DEE761682069884248
:101BD00001D1A06820612069001F20612069066092
:101BE000E08A401CE08200F0D2FC0020CCE72DE926
:101BF000F04105460E46174615B90420BDE8F081B0
:101C00000EB90320FAE72878022801D00120F5E771
:101C100000F0B4FC6878B8B117F0010F09D004E007
:101C2000042231462846FFF7F3F868780028F7D1F8
:101C300004E0042231462846FFF7EAF800F0A7FC4A
:101C4000FEF7DDFF0020D9E76C68E08AA18A8842B0
:101C500003DB00F09CFC1E20D0E717F0020F0BD036
:101C600061682069884201D1A06820612069001F55
:101C700020612069066009E0E168081DE0600E60EF
:101C8000D4E90210884201D16068E060E08A401C1B
:101C9000E08200F07CFC0020B0E72DE9F041054631
:101CA0000C465DB90420BDE8F08100003D00002035
:101CB00028000020600000204C0000202878022826
:101CC00001D00120EFE700F059FC6878A07205F11F
:101CD000080704F1080817F8010B08F8010B17F8BA
:101CE000010B08F8010B6E68F08A002803DD3069EB
:101CF0000068206001E000202060F08AA080B08AA7
:101D0000E08000F044FC0020CDE710B5084800F169
:101D10001802002104E00260183018324B1C99B2FE
:101D20000129F8DB00230360014B024C236010BD46
:101D30003C190020600000202DE9F05F80460E462F
:101D4000B8F10C0F02DBB8F1FF0F01D10C2E02DB52
:101D50002A20BDE8F09F00F011FCF74850F826005B
:101D600018B100F014FC2820F3E70120F24941F8F3
:101D7000260000F00CFCF710F04810F807A006F061
:101D8000070B10F80B9000F0F9FBB8F1FF0F03D12F
:101D9000EB48006890F82D80E74850F82840002C68
:101DA0005DD00020E44941F8280094F82F00E5496F
:101DB000085C94F8301008421ED014F82F0FE14947
:101DC000085C6178884314F82F19DE4A505406D114
:101DD00094F83110DC4800788843DB490870DA4811
:101DE000007840EA0A00D8490870D648C05D40EA49
:101DF0000900D449C8551FE0E569EDB114F82F1F5B
:101E000005F10800405C6178884314F82F2905F13A
:101E10000801885404D1687894F8311088436870B8
:101E2000687840EA0A00687005F10800C05D40EA81
:101E3000090005F10801C855BF4840F8264084F85C
:101E40002D6084F82F7084F82EB084F831A084F8C7
:101E5000309000F09CFBFEF7D2FE002079E70020D6
:101E6000B54941F8260000F092FB292071E72DE9E1
:101E7000FE4306460F4690461C460C2C02DD2A20E7
:101E8000BDE8FE8300F07AFBAB4850F8240090BB1D
:101E90000120A94941F8240000F079FB00234246C3
:101EA0003946304600F010FB81460020009001903A
:101EB00003460246494602902046FFF76AF8054667
:101EC0007DB900F05BFBA1480078401C9F49087079
:101ED00000F05DFB9E48007801280AD1FEF78FFED6
:101EE00007E000F04BFB0020934941F8240000F08C
:101EF0004EFB2846C4E7FFE700F049FB2820BFE778
:101F00002DE9FF5F81468A4693461C46DDE90F783E
:101F1000129D0C2C03DD2A2004B0BDE8F09F00F0D8
:101F20002DFB854850F8240000283DD1012082492E
:101F300041F8240000F02BFB15F0010F02D115F041
:101F4000020F04D04FEA8801384600F09EFB2B4672
:101F50005A465146484600F0B7FA03901198CDE929
:101F6000008002953A4620460E9B0399FFF711F830
:101F700006467EB900F002FB74480078401C7349A5
:101F8000087000F004FB7248007801280AD1FEF7BF
:101F900036FE07E000F0F2FA0020674941F824001D
:101FA00000F0F5FA3046B7E700F0F1FA2820B3E781
:101FB0002DE9F041054600BF66480078002802DDA3
:101FC0003F20BDE8F0810C2D01D13D20F9E70C2D1B
:101FD00003DBFF2D01D02A20F3E700F0CFFAFF2D1D
:101FE00003D15748006890F82D50534850F82540C9
:101FF000002C6CD014F82F0F5249085C617888438C
:1020000014F82F194F4A505406D194F831104E4805
:10201000007888434C490870E6698EB114F82F1F88
:1020200006F10800405C6178884314F82F2906F116
:102030000801885404D1707894F831108843707086
:10204000676A17B13846FFF7C7F80020608584F843
:102050002C0041480078FF2804DA3F480078401CF3
:102060003D49087000F093FAFEF7D1FE00F086FAC1
:1020700039480078002804DD37480078401E36498A
:102080000870204600F071FA30480078401E2F4951
:1020900008700020284941F82500A06930B90020C7
:1020A000616988612D496069086005E0D4E905012E
:1020B0004861D4E9051088612948006860612848B2
:1020C000046000F064FAFEF79AFD002079E700F062
:1020D0005EFA3C2075E72DE9F04104460C2C02D154
:1020E0003D20BDE8F0810C2C03DBFF2C01D02A2021
:1020F000F7E7FF2C09D100F041FA1148006890F889
:10210000327000F044FA3846EBE700F037FA0A483C
:1021100050F8246026B13E2086F83200002500E009
:102120000B2500F034FA2846DBE770B505460C2D88
:1021300018DB2A2070BD0000001600201E290008B0
:102140004C000020430000204200002046000020F8
:10215000450000203D0000203F00002058000020E6
:102160005000002000F00AFA6C4850F825401CB9D5
:1021700000F00DFA642070BD94F82C0010F0080FE8
:1021800024D094F82C0030F0080084F82C0019D1E9
:10219000608DB8B904F12F04A0786149097840EA4C
:1021A00001005F49087020785E49085C617840EA68
:1021B000010014F82F195B4A505400F0E8F9FEF7BB
:1021C0001EFD01E000F0E3F90020D4E700F0DFF9A4
:1021D0006520D0E72DE9F04704460D460C2C04DDC0
:1021E000FF2C02D02A20BDE8F0870020286068601C
:1021F00000F0C4F9FF2C03D14B48006890F82D4043
:10220000464850F824601EB900F0C1F90B20EAE7F7
:10221000307C10F0010F03D100F0B9F98220E2E721
:102220000027D6F80C90D6F8088000F0B0F900E04E
:102230007F1C58F8041B0029FAD0B8002860A9EBCD
:102240000700800068600020CDE770B505460C2DC2
:1022500001D15B2070BD0C2D03DBFF2D01D02A20A6
:10226000F8E700F08BF9FF2D05D12F48006890F8B2
:102270002D50012608E02C48006890F82D00A84257
:1022800001D1012600E00026244850F825401CB961
:1022900000F07DF95A20DDE714F82F0F2149085C82
:1022A0006178884314F82F191E4A505406D194F8C7
:1022B00031101B48007888431949087094F82C00A5
:1022C00040F0080084F82C0000F061F9012E01D1E3
:1022D000FEF795FC0020BDE770B504460E460C2CB9
:1022E00003DDFF2C01D02A2070BD00F047F9FF2C40
:1022F00003D10D48006890F82D40084850F824504C
:102300001DB900F044F92920EEE734222946304671
:1023100000F0A2F900F03BF90020E5E700160020EC
:1023200042000020430000204C00002010B504466D
:10233000002C23DD00F022F95E48006890F82F00A1
:102340005D49085C5B49096891F830108843594938
:10235000096891F82F10584A505408D15548006820
:1023600090F8311055480078884354490870514816
:102370000068448500F00BF9FEF741FC10BD2DE923
:10238000F04780460D4616461C46B8F1000F05DCA6
:10239000002D03DC002E01DC002C3DDD3B2D02DD99
:1023A0005120BDE8F0873B2E01DD5220F9E7B4F55E
:1023B0007A7F01DB5320F4E74FF47A7060434FF4E7
:1023C0007A71B0FBF1F14FF4616008FB00F0C5EBEE
:1023D000051200EB8200304400EB4002C2EBC0105B
:1023E00001EBC0074FF6FF7000EA1749BFB238464D
:1023F000FFF79CFF0BE04FF40040FFF797FF4FF40F
:102400000040FFF793FFA9F101001FFA80F9B9F12D
:10241000000FF0DC0020C4E75420C2E770B5054689
:102420000C2D01DB2A2070BD00F0A8F8244850F8DC
:10243000254044B3608D10B30020608594F82C00D3
:1024400010F0080F17D104F12F04A0781B49097868
:1024500040EA01001949087020781749085C617842
:1024600040EA010014F82F19134A505400F08FF875
:10247000FEF7C5FB01E000F08AF80020D3E700F08A
:1024800086F85020CFE700F082F80B20CBE710B59C
:1024900000F074F80B48046800F079F8204610BD8D
:1024A00010B5044600F06AF80648046000F06FF8C2
:1024B00010BD00004C00002043000020420000201E
:1024C000001600206400002070B5044610464FF04E
:1024D00080750560051F28462C606FF00106051FFA
:1024E00028462E604FF01236051F28462E604FF00A
:1024F0000336051F28462E604FF00236051F28467A
:102500002E607610051F28462E60051F284629607C
:102510004FF01136051F28462E604FF01036051F6C
:1025200028462E604FF00936051F28462E604FF0D2
:102530000836051F28462E604FF00736051F28462F
:102540002E604FF00636051F28462E604FF00536E8
:10255000051F28462E604FF00436051F28462E60C2
:1025600070BD7047704700BF704700BF704770472D
:10257000704700BF704770477047000072B606B4DE
:102580002B490A7802F101020A7006BC704706B4B2
:1025900027490A78A2F101020A704FF00001002ACF
:1025A00081F3108806BC7047224C234D25604FF004
:1025B000000484F30988214C4FF001052570204C5C
:1025C0004FF08055256062B6FEE730B41C4C4FF0EA
:1025D0008055256030BC704730B4194C4FF08055A1
:1025E000256030BC704700BF72B6EFF3098028B198
:1025F000203880E8F00F13490968086000B51248D8
:1026000080475DF804EB114811490A7802700D48C3
:1026100010490A680260106890E8F00F203080F3DB
:1026200009884EF0040E62B6704772B6704700001B
:102630006800002020ED00E00000FFFF45000020C2
:1026400004ED00E04C0000206F2500084000002051
:10265000410000205400002040EA01039B0703D002
:1026600009E008C9121F08C0042AFAD203E011F8D1
:10267000013B00F8013B521EF9D27047D2B201E093
:1026800000F8012B491EFBD270470022F6E710B577
:1026900013460A4604461946FFF7F0FF204610BDD0
:1026A000F0B480EA0102D40F4200B2EB410F02D233
:1026B0000246084611464A0042D0C30DDDB2C1F3BE
:1026C000C752AD1A202D35DAC1F3160141F40002CC
:1026D00004B15242C5F1200602FA06F12A41104423
:1026E000B3EBD05F23D0C4B1012DA0EBC35009DC04
:1026F000F0BC4FF0004202EAC35200F50000DBB22A
:1027000000F0BEB8400000F1807000EBC350A0F1B3
:10271000807040EAD170490009E0490841EAC0717F
:10272000A0EBC35000F50000400800EBC350F0BC24
:1027300000F09DB86142012202EB4101001BF6E767
:10274000F0BC704781F00041AAE780F00040A7E7A5
:1027500080EA010210B502F00043400026D04A0092
:1027600023D04FEA106101EB1261C0F35600C2F3AF
:10277000560240F4000042F40002A0FB0220A1F146
:102780007F014FEA0040140401D000F1010050EA3B
:10279000124001D44000491EC2B20C0604EBD01016
:1027A000401C4008802A02D003E0002010BD20F029
:1027B0000100002900DA0020184310BD30B480EA7F
:1027C000010202F0004530F0004221F0004015D037
:1027D000A0B1C0F3C753C2F3C754C2F31601C0F38C
:1027E0001600E41A41F4000140F400027D349142E5
:1027F00001D3641C00E04900002C02DA30BC002048
:1028000070474FF400000023914201D3891A03431B
:1028100040084FEA4101F7D151B1914202D14FF046
:10282000004105E002D24FF0010101E06FF001012B
:1028300003EBC450284430BC00F019B896230022A2
:10284000114600F01DB820F00040C10DC0F3160085
:1028500040F400007F2901DA00207047962903DC4C
:10286000C1F19601C84070479639884070470029E9
:10287000A8BF7047401C490008BF20F00100704706
:1028800010B4B0FA80FC00FA0CF050EA010404BF66
:1028900010BC704749B1CCF1200421FA04F411FABC
:1028A0000CF118BF012121430843A3EB0C01CB1D00
:1028B0000106000A002BBEBF002010BC704700EBD1
:1028C000C35010440029A4BF10BC7047401C4900ED
:1028D00008BF20F0010010BC70470000064C074DF7
:1028E00006E0E06840F0010394E8070098471034E0
:1028F000AC42F6D3FDF7FEFB282A0008482A000860
:1029000002E008C8121F08C1002AFAD170477047B8
:10291000002001E001C1121F002AFBD17047010213
:1029200004081020408000000100020001000300A4
:102930000100020001000400010002000100030088
:102940000100020001000500010002000100030077
:102950000100020001000400010002000100030068
:102960000100020001000600010002000100030056
:102970000100020001000400010002000100030048
:102980000100020001000500010002000100030037
:102990000100020001000400010002000100030028
:1029A0000100020001000700010002000100030015
:1029B0000100020001000400010002000100030008
:1029C00001000200010005000100020001000300F7
:1029D00001000200010004000100020001000300E8
:1029E00001000200010006000100020001000300D6
:1029F00001000200010004000100020001000300C8
:102A000001000200010005000100020001000300B6
:102A100001000200010004000100020001000300A7
:102A20000100020001000000482A00080000002008
:102A30006C00000000290008B42A00086C00002087
:102A4000041B000010290008000000000000000026
:102A500000000000000000003F065B4F666D7D0730
:102A60007F6FBF86DBCFE6EDFD87FFEF0000000044
:102A70000000000000000000000000000000000056
:102A80000000000000000000000000000000000046
:102A90000000000000000000000000000000000036
:102AA0000000000000000000000000000000000026
:042AB0000000000022
:04000005080000ED02
:00000001FF
