:020000040800F2
:1000000078110020890100081D05000891040008EE
:1000100019050008DF020008711300080000000045
:1000200000000000000000000000000001120008B5
:10003000E3020008000000000B020008E9120008BB
:10004000A3010008A3010008A3010008A301000800
:10005000A3010008A3010008A3010008A3010008F0
:10006000A3010008A3010008A3010008A3010008E0
:10007000A3010008A3010008A3010008A3010008D0
:10008000A3010008A3010008A3010008A3010008C0
:10009000A3010008A3010008A3010008A3010008B0
:1000A000A3010008A3010008A3010008A3010008A0
:1000B000A3010008A3010008A3010008A301000890
:1000C000A3010008A3010008A3010008A301000880
:1000D000A3010008A3010008A3010008A301000870
:1000E000A3010008A3010008A301000800F002F822
:1000F00000F03AF80AA090E8000C82448344AAF188
:100100000107DA4501D100F02FF8AFF2090EBAE885
:100110000F0013F0010F18BFFB1A43F0010318473B
:100120004814000068140000103A24BF78C878C151
:10013000FAD8520724BF30C830C144BF04680C60ED
:10014000704700000023002400250026103A28BF35
:1001500078C1FBD8520728BF30C148BF0B60704739
:100160001FB51FBD10B510BD00F083F81146FFF795
:10017000F7FF01F013F900F0A1F803B4FFF7F2FF65
:1001800003BC00F0A5F80000094880470948004773
:10019000FEE7FEE7FEE7FEE7FEE7FEE7FEE7FEE737
:1001A000FEE7FEE704480549054A064B7047000094
:1001B00011130008ED000008780B002078110020D2
:1001C000780D0020780D0020EFF3108072B6704794
:1001D00080F3108870471D484FF0FF010170002028
:1001E00080F309881A48012101701A484FF08051A4
:1001F000016062B6FEE717484FF08051016070471A
:1002000014484FF080510160704772B6EFF30980D7
:1002100028B1203880E8F00F0F490968086000B560
:100220000E4880475DF804EB0D480E490A780270CD
:1002300009480D490A680260106890E8F00F203004
:1002400080F309884EF0040E62B6704722ED00E09C
:100250003E00002004ED00E044000020ED0900080D
:1002600033000020340000204C000020704770470D
:100270007047754600F028F8AE46050069465346BB
:1002800020F00700854618B020B5FFF78BFFBDE8CA
:1002900020404FF000064FF000074FF000084FF0ED
:1002A000000B21F00701AC46ACE8C009ACE8C0097E
:1002B000ACE8C009ACE8C0098D4670470446AFF30E
:1002C00000802046FFF759FF00487047180B0020B8
:1002D00001491820ABBEFEE726000200704700BFB0
:1002E000FEE770472DE9F041024600250026002078
:1002F00000230024002791F803C00CF00F0591F8AB
:1003000003C01CF0100F03D091F802C04CEA0505A1
:1003100091F800C0BCF1000F31D0146800202BE030
:100320004FF0010C0CFA00F3B1F800C00CEA030620
:100330009E4220D183004FF00F0C0CFA03F7BC4310
:1003400005FA03FC4CEA040491F803C0BCF1280F41
:1003500006D14FF0010C0CFA00FCC2F814C00AE000
:1003600091F803C0BCF1480F05D14FF0010C0CFA15
:1003700000FCC2F810C0401C0828D1D31460B1F8AA
:1003800000C0BCF1FF0F34DD546800202EE000F106
:10039000080C4FF0010808FA0CF3B1F800C00CEAA1
:1003A00003069E4221D183004FF00F0C0CFA03F795
:1003B000BC4305FA03FC4CEA040491F803C0BCF109
:1003C000280F05D100F1080C08FA0CF8C2F81480C7
:1003D00091F803C0BCF1480F07D100F1080C4FF0B1
:1003E000010808FA0CF8C2F81080401C0828CED387
:1003F0005460BDE8F0810000F0B50A4600230024F7
:100400000021002500F00046B6F1004F02D11D4E3C
:10041000F16901E01B4E7168C0F3034583B200F43B
:100420004016B6F5401F08D121F07061154E766870
:1004300026F07066134F7E6012E000F48016B6F569
:10044000801F06D1032606FA05F4A14341F070612E
:1004500006E0460D360103FA06F6B14341F070613D
:1004600022B1460D360103FA06F6314300F000468C
:10047000B6F1004F02D1034EF16101E0014E71600F
:10048000F0BD00000000014041617047016170470C
:1004900000BFFEE710B54FF480710248FFF7F6FF8A
:1004A00010BD00000018014010B54FF480710248E3
:1004B000FFF7EAFF10BD00000018014008B5012158
:1004C000492000F023FE01211048FFF795FF082086
:1004D000ADF8000010208DF8030003208DF8020015
:1004E00069460B48FFF7FEFE08210948FFF7CEFFDB
:1004F0004FF47F40ADF8000069460648FFF7F2FE72
:100500004FF47F410348FFF7BFFF08BD00023000F2
:10051000000C01400018014000BFFEE7704710B515
:1005200000F011F800F096FB00F0BEFB00F0E0FBDD
:1005300000F072FB00F04AFB00F00EFC00F034FC0F
:1005400000F002F810BD70477047000010B500249D
:100550001A480078012830D1FFF736FE04461848C3
:100560000078002804DD16480078401E1449087001
:1005700013480078F0B913480078D8B900F080FC2F
:100580001148007811490978884213D010480E4963
:10059000097850F821000F49086008460068406B50
:1005A000401C096848630C480068401C0A49086000
:1005B000FFF726FE2046FFF70BFE10BD3E00002091
:1005C00031000020320000203400002033000020E1
:1005D000B00700204C0000201800002010B50B4888
:1005E000007890B900F04CFC09480078094908707F
:1005F00009480749097850F8210008490860084669
:10060000006807490860FFF7E6FD10BD3E000020C6
:100610003400002033000020B00700204C000020F0
:1006200044000020704700002DE9FE4F06460F46AB
:1006300090461C464FF00009FFF7C6FD8146204852
:100640000078002805DD4846FFF7C2FD3C20BDE8E4
:10065000FE8F1C4850F8240060BB0120194941F866
:1006600024004846FFF7B4FD002342463946304691
:1006700000F01AF9824600200090019003460246DD
:1006800051460290204600F029FC054635B90E4837
:10069000007801280CD100F0B9FB09E0FFF794FDC8
:1006A00081460020074941F824004846FFF790FDA5
:1006B0002846CCE74846FFF78BFD2820C7E7000017
:1006C00031000020B00700203E0000202DE9F04F4F
:1006D00085B081468A4693461C46DDE90F78129D17
:1006E00000200390FFF770FD039023480078002856
:1006F00006DD0398FFF76CFD3C2005B0BDE8F08FE8
:100700001E4850F8240088BB01201C4941F82400F1
:100710000398FFF75DFD2A464146384600F0E8FCA5
:100720002B465A465146484600F0BEF804901198B0
:10073000CDE9008002953A4620460E9B049900F0D0
:10074000CDFB064636B90E48007801280CD100F0E2
:100750005DFB09E0FFF738FD03900020074941F8F1
:1007600024000398FFF734FD3046C6E7FFE70398FF
:10077000FFF72EFD2820C0E731000020B007002041
:100780003E000020704770472DE9F0470646884636
:1007900014464FF000091D480078002803DD1220A0
:1007A0002070BDE8F087FFF70FFD8146FF2E03D1D3
:1007B0001748006890F82E60164850F826502DB95A
:1007C0004846FFF705FD43202070EAE7012D05D1DB
:1007D0004846FFF7FDFC43202070E2E7404600F06A
:1007E00073FB07460F2F05DD4846FFF7F1FC41205C
:1007F0002070D6E7414605F1480000F057FB484617
:10080000FFF7E6FC0020207000BFCAE7310000209F
:1008100044000020B0070020704700002DE9F04799
:1008200007460D464FF0000A002028606860FFF779
:10083000CBFC8246FF2F03D11948006890F82E7038
:10084000184850F827402CB95046FFF7C1FC432008
:10085000BDE8F087012C04D15046FFF7B9FC4320D6
:10086000F6E7207C10F0010F04D15046FFF7B0FCF2
:100870004520EDE70026D4F80C90D4F808805046C7
:10088000FFF7A6FC00E0761C58F8041B0029FAD0FC
:10089000B0002860A9EB0600800068600020D7E760
:1008A00044000020B007002070B5044610464FF009
:1008B00080750560051F28462C606FF00106051F36
:1008C00028462E604FF01236051F28462E604FF046
:1008D0000336051F28462E604FF00236051F2846B6
:1008E0002E607610051F28462E60051F28462960B9
:1008F0004FF01136051F28462E604FF01036051FA9
:1009000028462E604FF00936051F28462E604FF00E
:100910000836051F28462E604FF00736051F28466B
:100920002E604FF00636051F28462E604FF0053624
:10093000051F28462E604FF00436051F28462E60FE
:1009400070BD00002DE9F04105464FF00008FFF7AB
:100950003BFC8046FF2D05D12048006890F82E50C2
:10096000012608E01D48006890F82E00A84201D139
:10097000012600E000261A4850F825402CB94046D0
:10098000FFF726FC4820BDE8F081012C04D1404649
:10099000FFF71EFC4320F6E794F830701148C05D65
:1009A00094F8311088430F49C8550846C05D30B9E6
:1009B00094F832100C48007888430B49087094F87A
:1009C0002C0040F0080084F82C004046FFF700FCA3
:1009D000012E01D100F01AFA0020D4E744000020D3
:1009E000B0070020360000203500002070470000CE
:1009F00070B50546002616480078002800DD70BD59
:100A0000002D23DDFFF7E0FB06461248006890F852
:100A100030401148005D0F49096891F83110884352
:100A20000D4908550846005D40B90A48006890F82D
:100A300032100A4800788843084908700548006861
:100A400045853046FFF7C4FB00F0E0F900BFD6E76C
:100A50003100002044000020360000203500002036
:100A60002DE9F04706460F4690469946184800780B
:100A7000002802DD5520BDE8F08709F10200C821F9
:100A800048434FF47A71B0FBF1F14FF46160704369
:100A9000C7EB071200EB8200404400EBC00202EB00
:100AA000001001EBC004250CA4B22046FFF7A0FF04
:100AB00009E04FF40040FFF79BFF4FF40040FFF7C1
:100AC00097FF681E85B2002DF3DC0020D3E70000FD
:100AD0003100002070B5002600F076F8FFF774FBB7
:100AE000064633480068401C314908603046FFF72D
:100AF0006FFB30480078012858D12F48007820B18A
:100B0000012804D0022809D103E001250BE00025CB
:100B100009E0012501202849087004E00125002092
:100B20002549087000BF00BF05B970BD234804689F
:100B300038E0FFF749FB0646608D78B3608D401EB4
:100B40000004000C608529D194F82C0010F0370FB8
:100B500009D014F82C0F20F03700207001206070AD
:100B6000A4F12C0402E0002084F82D0094F82C005D
:100B700010F0080F12D104F13004A0781049097860
:100B800040EA01000E49087020780E49085C61783F
:100B900040EA010014F830190A4A5054646930469A
:100BA000FFF716FB94F82E003F28C2D100BFBCE728
:100BB000580000203E00002054000020500000207B
:100BC00035000020360000207047000070B58C21F1
:100BD0000F4800F011F90E4C04F11C0600250AE044
:100BE0000020207066603F20A0720021E1721C345A
:100BF0001C36681C85B2042DF2DB0020207060607A
:100C00003F20A0720021E17201480249086070BDD6
:100C1000240300202000002030B5C8210B4800F03C
:100C2000EBF80A4B03F11405002406E000201870CD
:100C30005D6014331435601C84B2092CF6DB00208F
:100C40001870586001480249086030BD5C020020FD
:100C50001C00002000200A4908600A4908700A495F
:100C600008700A4908700A4908700A4908600A4968
:100C700008600A4908600A4908600A490870704714
:100C80005800002031000020320000203F000020EA
:100C90003E00002018000020400000202C00002012
:100CA000280000203000002000220B4B1A700B4956
:100CB000002004E0002201F8012B421CD0B20828D9
:100CC000F8DB0022064B1A70064B1A70064B1A60AE
:100CD000064B1A60704700003500002036000020E7
:100CE00033000020340000204C000020440000208D
:100CF00030B54FF41A71144800F07EF84FF480714B
:100D0000124800F079F8104B03F1580500240AE06E
:100D10005D613F2083F8480000214920C1545833C9
:100D20005835601CC4B2062CF2D3002058613F2015
:100D300083F8480000214920C1540020044908607C
:100D400001480449086030BDB0080020B007002009
:100D5000500000204800002000B587B0032000218B
:100D600080220A4BCDE90132CDE903104FF6FF7026
:100D70003F23074A00900748FFF7A8FC06AA06A1F0
:100D80003F20FFF701FD07B000BD0000B0050020C7
:100D9000AC0700200910000875432F4F532D494917
:100DA0002049646C6500000000B587B00320002175
:100DB00080220A4BCDE90132CDE903104FF6FE70D7
:100DC0003E23074A00900748FFF780FC06AA06A1C9
:100DD0003E20FFF7D9FC07B000BD0000B0030020A3
:100DE000AC0500202D10000875432F4F532D4949A5
:100DF000205374617400000004E0002200F8012B0D
:100E00004A1E91B20029F8DC7047000010B500249A
:100E1000FFF7DAF9044613480078F0B91248007871
:100E2000D8B900F02DF811480078114909788842A6
:100E300013D010480D49097850F821000E49086078
:100E400008460068406B401C096848630B4800680E
:100E5000401C0A490860FFF7CEF92046FFF7B8F9B1
:100E600010BD0000310000203200002034000020BE
:100E700033000020B00700204C00002018000020A4
:100E80000649074A1278885C0649095C034A515CA6
:100E900001EBC001044A117070470000681400089B
:100EA00035000020360000203400002002460020DB
:100EB00005E011F8013B02F8013B431CD8B20B7866
:100EC000002BF6D1137070470146002002E0491C48
:100ED000421CD0B20A78002AF9D170472DE9F84FA8
:100EE00005460E4617469846DDE90BABDDF828901F
:100EF00000200090FFF768F900903D480468002C3E
:100F000071D054F8140F3A4908600098FFF760F95F
:100F100044F8146CA576002020766076E08244F8D0
:100F200010AC44F8089C44F80C7C24F804BC24F869
:100F3000028CE077E810207705F00700E076217F4B
:100F400001208840A077E17E012088406077002062
:100F5000A0602061E0602062A0626062E0622063C5
:100F60003F2084F83400A4F114044FF000014FF046
:100F7000490001552046FFF755FB2046FFF702FCCC
:100F8000FFF722F900901B4840F825401A480068F6
:100F900060610020A0611848006810B11648006820
:100FA00084611548046004F13004A078134909787D
:100FB00040EA01001149087020781149085C617805
:100FC00040EA010014F830190D4A50540D480078D9
:100FD00000F101000B4908700098FFF7F9F80020B4
:100FE000BDE8F88FFFE70098FFF7F2F84220F7E737
:100FF00048000020B00700205000002035000020ED
:10100000360000203F000020002400BFFFF7DCF87E
:10101000044605480068401C034908602046FFF765
:10102000D7F8FFF7B0FBF1E740000020002402E012
:101030002820FFF7DDFC1A4800780028F8D019486E
:1010400000686421B0FBF1F01649086008460068AA
:1010500028B9002014490870FF20FFF773FC00BF77
:10106000FFF7B2F8044611480068114908600020F3
:101070000E4908602046FFF7ABF80D4800680949A3
:101080000968B0FBF1F0C0F1640007490870FFF790
:10109000C3FB00F00FF81420FFF7AAFCE0E7000004
:1010A0003000002028000020240000204000002004
:1010B0002C0000207CB5002514E069462846FFF787
:1010C000ADFB064666B9094850F8254044B1012CED
:1010D00006D0D4E9020100EB81002064019860642D
:1010E000681CC5B23F2DE8DD7CBD0000B0070020C4
:1010F00012F0010F08D012F0020F05D002E0491ED5
:10110000002308C00029FAD17047000029B1064A1F
:1011100092690243044B9A6104E0034A9269824354
:10112000014B9A61704700000010024030B5002169
:101130000022002400232D4D6D6805F00C0121B123
:10114000042905D0082923D105E0294D056022E0B6
:10115000274D05601FE0254D6D6805F47012234D85
:101160006D6805F48034022505EB92421CB9214DCF
:10117000554305600BE01D4D6D6815F4003F03D02D
:101180001C4D5543056002E0194D5543056002E0D2
:10119000174D056000BF00BF144D6D6805F0F001EC
:1011A0000909154D6B5C0568DD4045600F4D6D68A4
:1011B00005F4E061090A104D6B5C4568DD4085600F
:1011C0000A4D6D6805F46051C90A0B4D6B5C4568AA
:1011D000DD40C560054D6D6805F44041890B074D44
:1011E0006B5CC568B5FBF3F5056130BD00100240CE
:1011F00000127A0000093D000400002014000020C5
:10120000704710B500F002F810BD00000CB50020CA
:10121000019000903248006840F480303049086006
:1012200000BF2F48006800F4003000900198401C77
:101230000190009818B90198B0F5A06FF1D1284835
:10124000006810F4003F02D00120009001E000206F
:1012500000900098012842D12248006840F0100018
:10126000204908600846006820F00300086008462E
:10127000006840F00200086019484068184948605A
:101280000846406848600846406840F4806048600E
:101290000846406820F47C1048600846406840F4E6
:1012A000E81048600846006840F08070086000BFA1
:1012B0000B48006810F0007FFAD00948406820F021
:1012C0000300074948600846406840F00200486053
:1012D00000BF0348406800F00C000828F9D10CBD9D
:1012E000001002400020024010B5FEF76DFF0446DA
:1012F00006480078401C054908702046FEF768FF44
:10130000FFF7E8FBFFF722F910BD000031000020D5
:1013100010B51348006840F0010011490860084604
:101320004068104908400E494860084600680E4968
:1013300008400B4908600846006820F480200860D7
:101340000846406820F4FE0048604FF41F008860A3
:10135000FFF757FF4FF000600449086010BD000020
:10136000001002400000FFF8FFFFF6FE08ED00E06D
:1013700000BFFEE700BF00BFFFF796F84FF4C87349
:10138000002211461046FFF76BFBFFF783F864233A
:10139000002211461046FFF763FBEDE710B5FFF79B
:1013A000B7FFFFF78BF8FFF7BAF80423044A0021D0
:1013B0000448FFF739F9FFF711F9002010BD0000CC
:1013C00058010020C913000810B5044600F01AF8AF
:1013D00000BFFEF7F9FE084908600523074A00210F
:1013E0000748FFF721F90420FFF7ACFA024800682C
:1013F000FEF7EEFE10BD00000000002058020020A5
:101400007513000830B585B06846FFF78FFEC82217
:101410000198B0FBF2F1B1F1807F00D31DE021F023
:101420007F40401E4FF0E022506150170F220028ED
:1014300007DA13071D0E0A4B00F00F04241F1D5579
:1014400003E013071C0E074B1C5400BF00204FF095
:10145000E02290610720106100BF05B030BD0000A0
:1014600018ED00E000E400E00000010002000100CF
:10147000030001000200010004000100020001005D
:10148000030001000200010005000100020001004C
:10149000030001000200010004000100020001003D
:1014A000030001000200010006000100020001002B
:1014B000030001000200010004000100020001001D
:1014C000030001000200010005000100020001000C
:1014D00003000100020001000400010002000100FD
:1014E00003000100020001000700010002000100EA
:1014F00003000100020001000400010002000100DD
:1015000003000100020001000500010002000100CB
:1015100003000100020001000400010002000100BC
:1015200003000100020001000600010002000100AA
:10153000030001000200010004000100020001009C
:10154000030001000200010005000100020001008B
:10155000030001000200010004000100020001007C
:1015600003000100020001008815000800000020AF
:101570005C00000028010008E41500085C00002061
:101580001C110000440100080000000000000000E1
:101590000102030401020304060708090204060805
:1015A000000000000000000000000000000000003B
:1015B000000000000000000000000000000000002B
:1015C000000000000000000000000000000000001B
:1015D000000000000000000000000000000000000B
:0415E0000000000007
:04000005080000ED02
:00000001FF
