:020000040800F2
:10000000880200202D090008310900083309000882
:100010003509000837090008390900080000000008
:100020000000000000000000000000003B09000884
:100030003D090008000000003F09000841090008D0
:100040004309000843090008430900084309000860
:1000500043090008430900088D0100085D020008FB
:100060002D0300084309000843090008430900085C
:100070004309000843090008430900084309000830
:100080004309000843090008430900084309000820
:100090004309000843090008430900084309000810
:1000A0004309000843090008430900084309000800
:1000B00043090008430900084309000843090008F0
:1000C00043090008430900084309000843090008E0
:1000D00043090008430900084309000843090008D0
:1000E00043090008430900084309000800F002F82A
:1000F00000F03CF80AA090E8000C82448344AAF186
:100100000107DA4501D100F031F8AFF2090EBAE883
:100110000F0013F0010F18BFFB1A43F0010318473B
:10012000CC080000EC080000103A24BF78C878C161
:10013000FAD8520724BF30C830C144BF04680C60ED
:10014000704700000023002400250026103A28BF35
:1001500078C1FBD8520728BF30C148BF0B60704739
:100160001FB500F03CFC1FBD10B510BD00F0FBFB3F
:100170001146FFF7F5FF00F0C5FB00F019FC03B4D2
:10018000FFF7F2FF03BC00F023FC000010B50A20CB
:1001900000F038FAA0480068F0BB5DE000244DE0B4
:1001A0009E48006808283FD2DFE800F03E342C2447
:1001B0001C140C040021072000F0A8F9012000F015
:1001C00021FA00BF0321062000F0A0F9012000F071
:1001D00019FA00BF0121052000F098F9012000F074
:1001E00011FA00BF0021042000F090F9012000F076
:1001F00009FA00BF0321084600F088F9012000F049
:1002000001FA00BF0021022000F080F9012000F077
:10021000F9F900BF052100E01FE0012000F076F9A8
:10022000012000F0EFF900BF0021084600F06EF950
:10023000012000F0E7F900BF00BF641C642CAFDBB5
:1002400076490968481CC11700EB5171C910A0EB31
:10025000C101724A116000BFA0E710BD10B50A20AD
:1002600000F0D0F96E480068F0BB5DE000244DE07E
:100270006C48006808283FD2DFE800F03E342C24A8
:100280001C140C040021084600F040F9012000F085
:10029000B9F900BF0521012000F038F9012000F074
:1002A000B1F900BF0021022000F030F9012000F078
:1002B000A9F900BF0321084600F028F9012000F049
:1002C000A1F900BF0021042000F020F9012000F076
:1002D00099F900BF0121052000F018F9012000F074
:1002E00091F900BF032100E01FE0062000F00EF9A5
:1002F000012000F087F900BF0021072000F006F977
:10030000012000F07FF900BF00BF641C642CAFDB4C
:1003100044490968481CC11700EB5171C910A0EB92
:10032000C101404A116000BFA0E710BD10B50A200E
:1003300000F068F93C480068B8BB0021032000F0D9
:10034000E5F8142000F05EF90021042000F0DEF84A
:10035000322000F057F90021022000F0D7F81420D5
:1003600000F050F90021052000F0D0F8322000F014
:1003700049F90021012000F0C9F8142000F042F9E9
:100380000021062000F0C2F8322000F03BF90021E5
:10039000084600F0BBF8142000F034F900210720D3
:1003A00000F0B4F801202149086010BD10B52048C4
:1003B000806940F010001E4988611E4800686FF394
:1003C0000B001C4908600846006840F68801084395
:1003D0001849086001220021022000F0B5F901222D
:1003E0001146022000F0B0F901220221084600F077
:1003F000ABF9022306221946032000F058F9022324
:1004000007221946184600F052F90223082219461D
:10041000012000F04CF910BD000122420000002034
:100420000401224204000020080122421404014079
:1004300000100240001001405B48806940F001005C
:10044000594988610846806940F00800886108467B
:10045000806940F0400088615448406840F0007076
:1004600052494860524800686FF30F00C1F8000C11
:100470004F48006843F2333140EA01004B49C1F86C
:10048000000C0846D0F80C0C40F00F00C1F80C0C22
:100490004848D0F804084FF000004649C1F8040865
:1004A0000846D0F8040840F03330C1F80408084684
:1004B000D0F80C0840F47F40C1F80C08704700F0F9
:1004C00001013D4A1160C0F340013C4AC2F8A41149
:1004D000C0F380013A4A1160C0F3C00102F1040286
:1004E0001160C0F3001102F104021160C0F3401169
:1004F00002F104021160C0F3801102F104021160E4
:100500004FEAD0112D4AC2F8BC11704730B50346EE
:100510000C46184603EBD3714910A3EB4101294A5D
:100520001160194603EBD3724FEA620000EBD07200
:100530004FEA6202A0EB4202234DC5F8842118461F
:100540004FEAE37103EB91714FEAA1011F4A116079
:100550001F49085DFFF7B3FF30BD30B503460C46B9
:10056000184603EBD3714910A3EB4101154A116002
:10057000194603EBD3724FEA620000EBD0724FEAE8
:100580006202A0EB4202104DC5F8842118464FEAE2
:10059000E37103EB91714FEAA1010C4A11600D491F
:1005A000085DFFF78CFF30BD0010024000000140E5
:1005B000000C014000100140A00123420000234232
:1005C000A80123428081214200802142888121426A
:1005D0000C000020160000204FF0E021096921F0F6
:1005E00004014FF0E0221161C21700EB5272D210E9
:1005F0001F4B1A70194609784FF47A7251431D4AFD
:100600001180704701461B4A12884A434FF0E0238D
:100610005A6100229A6101221A6100BF4FF0E02264
:10062000106910F0010F02D010F4803FF6D00022C4
:100630004FF0E0231A619A61704701460C4A127824
:100640004A434FF0E0235A6100229A6101221A6165
:1006500000BF4FF0E022106910F0010F02D010F43B
:10066000803FF6D000224FF0E0231A619A61704774
:100670002000002022000020924A0A400243924BB0
:100680001A6070470146072323EA010212028F4BCA
:1006900018684FF6FF0300EA03008D4B40EA0300A1
:1006A00040EA02004FF0E023C3F80C0D70472DE93B
:1006B000F0478046894614461D462046E11704EB64
:1006C00091714FEAA10AE11704EB91718910A4EB33
:1006D0008101CFB2042000EBC700C7B22846FFF764
:1006E000D1FFC5F1040008FA00F60F20284100EA06
:1006F0000900064306F00F06202C0CDA7548006846
:100700004FF0010101FA04F140EA01004FF0E0214D
:10071000C1F800010DE070480068A4F120014FF01D
:10072000010202FA01F240EA02004FF0E021C1F8B2
:1007300004016A4850F82A0006FA07F1084367499D
:1007400041F82A00BDE8F08770B504460B46CE1785
:1007500001EB9676B010CE1701EB9676B610A1EBB2
:100760008606B606350E5E4B9B6943F001035C4E70
:10077000B3614FEAB63353F820300F26AE40B3438F
:10078000584E46F82030334653F8203004FA05F628
:100790003343544E46F82030534B1E684FF001034C
:1007A00003FA01F346EA0306504BC3F8006412F063
:1007B000010F0AD04E4B1B684FF0010606FA01F6F6
:1007C00043EA0603494EC6F80C3412F0020F0AD071
:1007D000484B1B684FF0010606FA01F643EA060390
:1007E000424EC6F8083470BD00B500203C4908618F
:1007F000C8601420486100208861C861084600680C
:1008000040F001000860084640683B490840344910
:100810004860084600683949084031490860084680
:10082000006820F4802008600846406820F4FE003C
:1008300048600020886000214FF00060FFF71CFF37
:1008400000BD30B504460025FFF7CEFF2448006800
:1008500040F480302249086000BF21480068400C05
:10086000FBD04FF480601E494860A01EC4B2084609
:10087000406840EA844048600846406840F4803060
:1008800048601F48006840F032001D490860144865
:10089000006840F080701249086000BF104800688E
:1008A000400EFBD00E48406840F002000C49486002
:1008B00005E00B484068C0F3870505F00305022DED
:1008C000F7D130BD80FFFF1F08ED00E00CED00E028
:1008D0000000FA0500E100E004E100E000E400E0CF
:1008E00000100240080001400004014000000140E7
:1008F0000C040140080401400000FFF8FFFFF6FE71
:10090000002002400920FFF79CFF4820FFF764FE0B
:10091000FFF792FD002004490860FFF747FD02E061
:100920006420FFF76FFEFBE78C81214208480047F7
:10093000FEE7FEE7FEE7FEE7FEE7FEE7FEE7FEE78F
:10094000FEE7FEE703480449024A044B70470000F3
:10095000ED000008880000208802002088000020A8
:10096000704770477047754600F028F8AE4605009E
:100970006946534620F00700854618B020B5FFF7BA
:10098000E1FFBDE820404FF000064FF000074FF0B8
:1009900000084FF0000B21F00701AC46ACE8C0099D
:1009A000ACE8C009ACE8C009ACE8C0098D467047A6
:1009B0000446AFF300802046FFF7E1FB0048704794
:1009C0002400002001487047704700BF2800002025
:1009D00001491820ABBEFEE726000200704710B5A3
:1009E000FFF7F0FF4FF00001016010BD0C0A000896
:1009F000000000202400000028010008300A000840
:100A000024000020640200004401000800000000EF
:100A100000000000000000003F065B4F666D7D0790
:100A20007F6FBF86DBCFE6EDFD87FFEF00000000A4
:040000050800092DB9
:00000001FF
