:020000040800F2
:10000000A8020020190800081D0800081F080008A1
:100010002108000823080008250800080000000047
:100020000000000000000000000000002708000899
:1000300029080008000000002B0800082D0800080F
:100040002F0800082F0800082F0800082F080008B4
:100050002F0800082F0800088D010008D1010008B2
:100060001D0200082F0800082F0800082F080008AC
:100070002F0800082F0800082F0800082F08000884
:100080002F0800082F0800082F0800082F08000874
:100090002F0800082F0800082F0800082F08000864
:1000A0002F0800082F0800082F0800082F08000854
:1000B0002F0800082F0800082F0800082F08000844
:1000C0002F0800082F0800082F0800082F08000834
:1000D0002F0800082F0800082F0800082F08000824
:1000E0002F0800082F0800082F08000800F002F869
:1000F00000F03CF80AA090E8000C82448344AAF186
:100100000107DA4501D100F031F8AFF2090EBAE883
:100110000F0013F0010F18BFFB1A43F0010318473B
:10012000B8070000D8070000103A24BF78C878C18B
:10013000FAD8520724BF30C830C144BF04680C60ED
:10014000704700000023002400250026103A28BF35
:1001500078C1FBD8520728BF30C148BF0B60704739
:100160001FB500F0B2FB1FBD10B510BD00F071FB54
:100170001146FFF7F5FF00F03BFB00F08FFB03B4E7
:10018000FFF7F2FF03BC00F099FB000070B50125FA
:100190000A2000F0ADF95C480068C0B910E0002406
:1001A0000BE05A4850F82400C1B2E0B200F024F944
:1001B0004FF4FA7000F09CF9641C082CF1DB00BFCE
:1001C0002800A5F10105EAD101205149086070BD60
:1001D00070B503250A2000F08BF94E480068E0B99D
:1001E00014E000240FE0C4F10702484B53F822202A
:1001F000D1B2C4F10702D0B200F0FEF84FF496700D
:1002000000F076F9641C082CEDDB00BF2800A5F196
:100210000105E6D101203E49086070BD10B50A20F5
:1002200000F066F93C480068B8BB0021032000F0EC
:10023000E3F8142000F05CF90021042000F0DCF861
:10024000322000F055F90021022000F0D5F81420EA
:1002500000F04EF90021052000F0CEF8322000F029
:1002600047F90021012000F0C7F8142000F040F900
:100270000021062000F0C0F8322000F039F90021FA
:10028000084600F0B9F8142000F032F900210720E8
:1002900000F0B2F801201E49086010BD10B51F48DB
:1002A000806940F010001D4988611D4800686FF3A7
:1002B0000B001B4908600846006840F688010843A7
:1002C0001749086001220021022000F0B3F9012241
:1002D0001146022000F0AEF901220221084600F08A
:1002E000A9F9022306221946184600F056F90223FE
:1002F00007221946184600F050F902230822194631
:10030000184600F04AF910BD000122420C000020FE
:10031000140401400401224208012242001002405C
:10032000001001405B48806940F001005949886134
:100330000846806940F0080088610846806940F0FE
:10034000400088615448406840F00070524948605D
:10035000524800686FF30F00C1F8000C4F48006866
:1003600043F2333140EA01004B49C1F8000C084622
:10037000D0F80C0C40F00F00C1F80C0C4848D0F835
:1003800004084FF000004649C1F804080846D0F8B8
:10039000040840F03330C1F804080846D0F80C08CF
:1003A00040F47F40C1F80C08704700F001013D4A5D
:1003B0001160C0F340013C4AC2F8A411C0F38001AF
:1003C0003A4A1160C0F3C00102F104021160C0F3A7
:1003D000001102F104021160C0F3401102F10402A5
:1003E0001160C0F3801102F1040211604FEAD011D4
:1003F0002D4AC2F8BC11704730B503460C4618466A
:1004000003EBD3714910A3EB4101294A116019464E
:1004100003EBD3724FEA620000EBD0724FEA620244
:10042000A0EB4202234DC5F8842118464FEAE37140
:1004300003EB91714FEAA1011F4A11601F49085D4A
:10044000FFF7B3FF30BD30B503460C46184603EB4B
:10045000D3714910A3EB4101154A1160194603EB12
:10046000D3724FEA620000EBD0724FEA6202A0EB57
:100470004202104DC5F8842118464FEAE37103EBA0
:1004800091714FEAA1010C4A11600D49085DFFF717
:100490008CFF30BD0010024000000140000C014004
:1004A00000100140A001234200002342A801234282
:1004B0008081214200802142888121422C0000203D
:1004C000360000204FF0E021096921F004014FF0CF
:1004D000E0221161C21700EB5272D2101F4B1A704A
:1004E000194609784FF47A7251431D4A11807047BA
:1004F00001461B4A12884A434FF0E0235A6100220A
:100500009A6101221A6100BF4FF0E022106910F0D9
:10051000010F02D010F4803FF6D000224FF0E0230C
:100520001A619A61704701460C4A12784A434FF0AB
:10053000E0235A6100229A6101221A6100BF4FF044
:10054000E022106910F0010F02D010F4803FF6D0C5
:1005500000224FF0E0231A619A61704740000020AA
:1005600042000020924A0A400243924B1A607047B0
:100570000146072323EA010212028F4B18684FF647
:10058000FF0300EA03008D4B40EA030040EA02004B
:100590004FF0E023C3F80C0D70472DE9F04780467B
:1005A000894614461D462046E11704EB91714FEA37
:1005B000A10AE11704EB91718910A4EB8101CFB27C
:1005C000042000EBC700C7B22846FFF7D1FFC5F1F2
:1005D000040008FA00F60F20284100EA090006434B
:1005E00006F00F06202C0CDA754800684FF0010168
:1005F00001FA04F140EA01004FF0E021C1F80001E6
:100600000DE070480068A4F120014FF0010202FAE9
:1006100001F240EA02004FF0E021C1F804016A480B
:1006200050F82A0006FA07F10843674941F82A0002
:10063000BDE8F08770B504460B46CE1701EB967601
:10064000B010CE1701EB9676B610A1EB8606B60673
:10065000350E5E4B9B6943F001035C4EB3614FEA7C
:10066000B63353F820300F26AE40B343584E46F809
:100670002030334653F8203004FA05F63343544E05
:1006800046F82030534B1E684FF0010303FA01F384
:1006900046EA0306504BC3F8006412F0010F0AD07B
:1006A0004E4B1B684FF0010606FA01F643EA0603BB
:1006B000494EC6F80C3412F0020F0AD0484B1B68A2
:1006C0004FF0010606FA01F643EA0603424EC6F869
:1006D000083470BD00B500203C490861C860142092
:1006E000486100208861C8610846006840F0010048
:1006F0000860084640683B4908403449486008465D
:10070000006839490840314908600846006820F40B
:10071000802008600846406820F4FE004860002001
:10072000886000214FF00060FFF71CFF00BD30B56E
:1007300004460025FFF7CEFF2448006840F48030CF
:100740002249086000BF21480068400CFBD04FF4EC
:1007500080601E494860A01EC4B20846406840EA56
:10076000844048600846406840F4803048601F4834
:10077000006840F032001D4908601448006840F0ED
:1007800080701249086000BF10480068400EFBD01E
:100790000E48406840F002000C49486005E00B48F4
:1007A0004068C0F3870505F00305022DF7D130BD81
:1007B00080FFFF1F08ED00E00CED00E00000FA05EF
:1007C00000E100E004E100E000E400E0001002408D
:1007D0000800014000040140000001400C040140F9
:1007E000080401400000FFF8FFFFF6FE0020024071
:1007F0000920FFF79CFF4820FFF764FEFFF792FDFA
:10080000002004490860FFF749FD02E06420FFF77B
:100810006FFEFBE78C81214208480047FEE7FEE7B8
:10082000FEE7FEE7FEE7FEE7FEE7FEE7FEE7FEE7A0
:1008300003480449024A044B70470000ED000008D9
:10084000A8000020A8020020A800002070477047E0
:100850007047754600F028F8AE46050069465346D5
:1008600020F00700854618B020B5FFF7E1FFBDE88E
:1008700020404FF000064FF000074FF000084FF007
:10088000000B21F00701AC46ACE8C009ACE8C00998
:10089000ACE8C009ACE8C0098D4670470446AFF328
:1008A00000802046FFF76BFC0048704744000020A2
:1008B00001487047704700BF4800002001491820D8
:1008C000ABBEFEE726000200704710B5FFF7F0FF51
:1008D0004FF00001016010BDF80800080000002082
:1008E00044000000280100083C09000844000020E2
:1008F0006402000044010008000000000000000045
:1009000000000000000000000500000000000000E2
:1009100004000000000000000200000001000000D0
:10092000030000003F065B4F666D7D077F6FBF864B
:0C093000DBCFE6EDFD87FFEF00000000CC
:0400000508000819CE
:00000001FF
