:020000040800F2
:10000000C002002005030008090300080B030008D4
:100010000D0300080F030008110300080000000092
:1000200000000000000000000000000013030008B2
:10003000150300080000000017030008190300085A
:100040001B0300081B0300081B0300081B03000818
:100050001B0300081B0300081B0300081B03000808
:100060001B0300081B0300081B0300081B030008F8
:100070001B0300081B0300081B0300081B030008E8
:100080001B0300081B0300081B0300081B030008D8
:100090001B0300081B0300081B0300081B030008C8
:1000A0001B0300081B0300081B0300081B030008B8
:1000B0001B0300081B0300081B0300081B030008A8
:1000C0001B0300081B0300081B0300081B03000898
:1000D0001B030008FB0600081B0300081B030008A5
:1000E0001B0300081B0300081B03000800F002F8B4
:1000F00000F03CF80AA090E8000C82448344AAF186
:100100000107DA4501D100F031F8AFF2090EBAE883
:100110000F0013F0010F18BFFB1A43F0010318473B
:10012000600F0000800F0000103A24BF78C878C12B
:10013000FAD8520724BF30C830C144BF04680C60ED
:10014000704700000023002400250026103A28BF35
:1001500078C1FBD8520728BF30C148BF0B60704739
:100160001FB500F000FF1FBD10B510BD00F094FCDE
:100170001146FFF7F5FF00F02FF800F0C5FC03B4BF
:10018000FFF7F2FF03BC00F0ABFA000030BF000045
:100190002DE9F04705460E46002719E0A846002441
:1001A00013E00A20B8FBF0F100FB118000F0FF091A
:1001B000C4F10701C8B2494600F0C5FB012000F0B8
:1001C000D1F80A20B8FBF0F8641C082CE9D37F1C96
:1001D000B742E3D3BDE8F0870025062000F01BFA04
:1001E000482000F0A9F84FF41651482000F0BFFA5B
:1001F00000F044FB01202C49086054E02B480078B3
:1002000010F0800F29D000262848007800F03F0722
:1002100027A000F003FC002412E006EB8600460055
:100220002748005D303806442548005D2549088090
:1002300000BF2548008810F0400FFAD0601CC4B2FF
:10024000BC42EADB64213046FFF7A2FF1FA000F0AA
:10025000E5FB00201549087025E0681C85B241F2D5
:10026000883095FBF0F100FB115010B918A000F098
:10027000D5FBC82095FBF0F100FB115010B918A078
:1002800000F0CCFB1E2095FBF0F100FB115038B9BB
:100290001B48006808B9012000E0002018490860E8
:1002A0000A2000F05FF8A9E78C81214204000020B9
:1002B0000A20596F7572204D53473A200A000000FA
:1002C0002000002004380140003801400A0A0000E4
:1002D0000A53544D3332412055736172740A000041
:1002E000506C6561736520496E70757420656E642D
:1002F00020776974682072657475726E0A00000058
:10030000A001234208480047FEE7FEE7FEE7FEE7BC
:10031000FEE7FEE7FEE7FEE7FEE7FEE703480449E7
:10032000024A044B70470000ED000008C0000020A6
:10033000C0020020C00000204FF0E021096921F038
:1003400004014FF0E0221161C21700EB5272D2108B
:100350001F4B1A70194609784FF47A7251431D4A9F
:100360001180704701461B4A12884A434FF0E02330
:100370005A6100229A6101221A6100BF4FF0E02207
:10038000106910F0010F02D010F4803FF6D0002267
:100390004FF0E0231A619A61704701460C4A1278C7
:1003A0004A434FF0E0235A6100229A6101221A6108
:1003B00000BF4FF0E022106910F0010F02D010F4DE
:1003C000803FF6D000224FF0E0231A619A61704717
:1003D0000000002002000020AF4A0A400243AF4B59
:1003E0001A6070470146072323EA01021202AC4B50
:1003F00018684FF6FF0300EA0300AA4B40EA030027
:1004000040EA02004FF0E023C3F80C0D70472DE9DD
:10041000F0478046894614461D462046E11704EB06
:1004200091714FEAA10AE11704EB91718910A4EBD5
:100430008101CFB2042000EBC700C7B22846FFF706
:10044000D1FFC5F1040008FA00F60F20284100EAA8
:100450000900064306F00F06202C0CDA92480068CB
:100460004FF0010101FA04F140EA01004FF0E021F0
:10047000C1F800010DE08D480068A4F120014FF0A3
:10048000010202FA01F240EA02004FF0E021C1F855
:100490000401874850F82A0006FA07F10843844906
:1004A00041F82A00BDE8F08770B504460B46CE1728
:1004B00001EB9676B010CE1701EB9676B610A1EB55
:1004C0008606B606350E7B4B9B6943F00103794ED9
:1004D000B3614FEAB63353F820300F26AE40B34332
:1004E000754E46F82030334653F8203004FA05F6AE
:1004F0003343714E46F82030704B1E684FF00103B5
:1005000003FA01F346EA03066D4BC3F8006412F0E8
:10051000010F0AD06B4B1B684FF0010606FA01F67B
:1005200043EA0603664EC6F80C3412F0020F0AD0F6
:10053000654B1B684FF0010606FA01F643EA060315
:100540005F4EC6F8083470BD00B5002059490861F7
:10055000C8601420486100208861C86108460068AE
:1005600040F0010008600846406858490840514979
:10057000486008460068564908404E4908600846E9
:10058000006820F4802008600846406820F4FE00DF
:1005900048600020886000214FF00060FFF71CFFDA
:1005A00000BD10B54B48006840F004004FF0E0215A
:1005B000C1F8100D3F48C06940F080503D49C86106
:1005C0004548406840F480704349486008460068E8
:1005D00040F0040008600846006840F0020008602F
:1005E000FFF7D4FD10BD2F48001D2D49086070474E
:1005F000014649062F4A926942F001022D4B9A6149
:100600002F4A526822F0E0622D4B5A601A46526817
:100610000A435A60704730B504460025FFF794FF3F
:100620002448006840F480302249086000BF214817
:100630000068400CFBD04FF480601E494860A01E4B
:10064000C4B20846406840EA8440486008464068B2
:1006500040F4803048602148006840F032001F4973
:1006600008601448006840F080701249086000BFBC
:1006700010480068400EFBD00E48406840F0020071
:100680000C49486005E00B484068C0F3870505F059
:100690000305022DF7D130BD80FFFF1F08ED00E0FC
:1006A0000CED00E00000FA0500E100E004E100E0EC
:1006B00000E400E000100240080001400004014096
:1006C000000001400C040140080401400000FFF854
:1006D000FFFFF6FE10ED00E0007000400020024039
:1006E000014600BF704700BF5A4A128812F0400FFF
:1006F000FAD0C2B2584B1A8070475649098811F097
:10070000200F33D054490988C8B25449097811F0F0
:10071000800F2BD15149097811F0400F0CD00A28D5
:1007200003D000214D4A117020E04C49097841F076
:1007300080014A4A117019E00D2806D1474909780D
:1007400041F04001454A117010E04449097801F038
:100750003F01434A505441490978491C3F4A1170AE
:10076000114609783F2901DD0021117070472DE9FC
:10077000F05F05460E46300100F01AFB814639490C
:1007800005FB01F000F014FB8246494600F02EFA0A
:100790000746384600F0ECFA84B2204600F008FB29
:1007A0008346394600F0EBFB82464FF0834100F070
:1007B00013FB814600F0DCFA8046240104EB0800BC
:1007C00084B22948806940F00400274988610846BE
:1007D000806940F4804088612448006820F47F608C
:1007E0002349C1F804080846D0F8040840F40B6017
:1007F000C1F804081C48C06840F480401A49C86029
:100800000846C06820F48040C8601A48A0F808482C
:100810001948008842F20C0140EA01001549A1F88C
:100820000C080846B0F80C0840F48070A1F80C08D9
:100830000846B0F80C0840F020000F4908804FF03F
:1008400002034FF025024FF003010846FFF7DFFDDA
:10085000BDE8F09F0038014004380140040000204A
:100860002000002040420F00001002400408014018
:1008700000000140003001400C38014059488069B7
:1008800040F00100574988610846806940F008003F
:1008900088610846806940F040008861524840689D
:1008A00040F00070504948605048006820F47040A3
:1008B000C1F8000C0846D0F8000C40F44050C1F8D4
:1008C000000C0846D0F80C0C40F00800C1F80C0CE5
:1008D0004748D0F804084FF000004549C1F8040823
:1008E0000846D0F8040840F03330C1F80408414805
:1008F0000068C1F80C08704700F001013E4A116021
:10090000C0F340013D4AC2F8A411C0F380013C4A43
:100910001160C0F3C00102F104021160C0F30011C4
:1009200002F104021160C0F3401102F104021160EF
:10093000C0F3801102F1040211604FEAD0112F4A76
:10094000C2F8BC11704730B503460C46184603EB9D
:10095000D3714910A3EB41012A4A1160194603EBF8
:10096000D3724FEA620000EBD0724FEA6202A0EB52
:100970004202254DC5F8842118464FEAE37103EB86
:1009800091714FEAA101214A11602149085DFFF7E9
:10099000B3FF30BD30B503460C46184603EBD371A8
:1009A0004910A3EB4101174A1160194603EBD372BA
:1009B0004FEA620000EBD0724FEA6202A0EB420203
:1009C000114DC5F8842118464FEAE37103EB91718C
:1009D0004FEAA1010D4A11600E49085DFFF78CFF37
:1009E00030BD00000010024000000140000C01403A
:1009F000001001400C180140A001234200002342D6
:100A0000A801234280812142008021428881214225
:100A10000C00002016000020704700000FB40449AD
:100A200010B503AA029800F009F810BC5DF814FB99
:100A3000080000207047704770477047074B70B53B
:100A40000C467B4400F011F80546204600F020F8E3
:100A500010B14FF0FF3070BD284670BDA1FCFFFF04
:100A600001694A1C02610878704700B58FB0CDE972
:100A700001310021059105497944CDE90310114662
:100A8000684600F02EF80FB000BD0000E5FFFFFF44
:100A9000C06800F080007047754600F03BF8AE4635
:100AA00005006946534620F00700854618B020B57A
:100AB000FFF734FCBDE820404FF000064FF0000780
:100AC0004FF000084FF0000B21F00701AC46ACE8F6
:100AD000C009ACE8C009ACE8C009ACE8C0098D4663
:100AE00070472DE9F04106460024D0E90170F56811
:100AF000804602E04146B847641C3046A8470028BB
:100B0000F8D12046BDE8F0810446AFF300802046CE
:100B1000FFF735FB00487047600000200148704730
:100B2000704700BF6400002090EA010F48BF81F0C9
:100B3000004100F13682421A3CBF801A89184FEA00
:100B4000D0524FF07F4C1CEA410FA2EBD15318BF9B
:100B50009CEA026F00F03B804FF0004C4CEA002012
:100B60004CEA012121FA03FC10EB0C0C1ED202F11D
:100B7000FF325FEA1C2040EBC25038BF70471CF0C8
:100B80007F0F4FEA400C18BFBCF17F4F38BF704752
:100B9000C3F12003994008BF20F00100BCF17F4F52
:100BA00038BF7047A0F1C04000F0E4B94FEA3C0004
:100BB000000A40EBC25028BF1CF0FF0F4FEA400C68
:100BC000E6D018BFBCF17F4F38BF7047EAE79CEA18
:100BD000026F05D010EA5C0F08BF00F000407047BC
:100BE00010B500F07AF900BF64FBBE3E4FF47F0CF5
:100BF0001CEAD0121EBF1CEAD11392EA0C0F93EA32
:100C00000C0F00F0858090EA010F48BF42F480721B
:100C100040F4000C41F400002CF07F4120F07F40B4
:100C200000B58142A2EB03020FF2081CACEB504E60
:100C3000C0F100009EF800E04FEA4E0E00FB0EFCF3
:100C400038BF49004FEA2C1C02F5FA020CFB0EF3E8
:100C50004FEACE1E4FEA112C4FEAC1210EEB635E24
:100C600042EB22420EFB0CFC4FEA1C5300FB03112B
:100C70004FEA112C4FEA01310EFB0CFC4FEADC4C21
:100C800000FB0C11C14228BF09184CEB03335DF87F
:100C900004EB10EB410143EBC250B2F57C0F38BFBF
:100CA000704729D512F0F00F1CBF00F1C04000F0D2
:100CB00000407047008182838485868788898B8C79
:100CC0008D8E8F919293959697999A9C9D9FA0A2B5
:100CD000A3A5A7A8AAACAEB0B2B3B5B7B9BCBEC005
:100CE000C2C5C7C9CCCED1D4D7D9DCDFE2E6E9ECA6
:100CF000F0F3F7FAFE0000004FEA400C0CF1807CA4
:100D0000BCF17E4F28BF7047B0F1C04000F032B94F
:100D100090EA010F0CEAD11348BF42F48072624599
:100D200038BF634507D213F47F0F16D080EA010065
:100D300000F00040704710B500F0CFF8097EFC3E8F
:100D400000F005B880EA010000F00040704780EA3A
:100D5000010000F0004000F00DB912F47F0F04BF55
:100D60000248704780EA010000F004B90000C07F2B
:100D7000C10DD1F19E0206DB4FEA002343F0004390
:100D800023FA02F07047004207D54FEA4001B1F163
:100D9000FE4F02D24FF00000704710B500F09DF8F2
:100DA00049922480002070476FEA200070470000BD
:100DB000B0FA80F310FA03F2C3F19D030AD0D9050B
:100DC00001EB1220530638BF704700F1010008BF45
:100DD00020F00100704700004FF47F0C1CEAD01295
:100DE0001EBF1CEAD11392EA0C0F93EA0C0F00F01D
:100DF000478090EA010F48BF42F480724FF0004CE8
:100E00004CEA00204CEA012102EB0302A0FB011393
:100E1000A2F50002002918BF43F001035B0028BFC0
:100E20004FEA330342EB22425FEA132C4CEBC250F1
:100E30002EBFBCEB436FB2F57C0F70474FEA036CDB
:100E4000BCF1004F08BF20F00100B2F57C0F38BFA5
:100E500070470BD582F0FF0212F5803FC8BF704784
:100E600000F1C040D8BF00F00040704700F5000C12
:100E70005FEA4C0C48BF7047B0F1C04000F07AB850
:100E800090EA010F0CEAD11348BF42F48072624528
:100E900038BF634504D280EA010000F0004070478B
:100EA00010B500F01AF800BF8900013E00F007B845
:100EB00000F009B85FEA410C5FEA1C6C08D080EAD8
:100EC000010000F057B85FEA400C5FEA1C6CF6D1F5
:100ED0004FF00040A0F5800070470EF1020E2EF09A
:100EE000030E5EF8044B244204D44FEA4102B2F1EF
:100EF0007F4F11D84FEA4003B3F17F4F0CD80ED18A
:100F00004FEAD07CB2F17F4F0CEB4C0C0CF1020C91
:100F100008BF4CEBD17C04E04FF0080C01E04FEA35
:100F2000D17C0CEB4C0324FA03F404F00704B4F175
:100F3000040C06D20EEB840CBDE810404CF0010C02
:100F40006047DFE80CF0070802024FF00040A0F510
:100F5000800010BD0846420018BFD2F1807288BFE1
:100F600000F0004010BD10B5FFF7D8FD4FF00001B4
:100F7000016010BDFF2141EAD050C005704780F0EC
:100F8000004090EA010F7FF5D6AD81F0004100F0FE
:100F900008B8000090EA010F48BF81F000413FF51A
:100FA000CAAD421A04D882F00042A0EB02001144FC
:100FB0004FEAD0524FF07F4C1CEA410FA2EBD153C5
:100FC00018BF9CEA026F4AD04FF0004C4CEA002058
:100FD0004CEA012121FA03FCB0EB0C0C0FD412F007
:100FE000FE0F36D05FEA4C001DD5001240EBC25018
:100FF00038BF70471CF03F0F18BF70470BE0A2F1DD
:1010000001025FEA1C2040EBC25038BF70471CF061
:101010007F0F18BF7047C3F12003994014BF401ED3
:1010200020F00100704780084FEA122308BF704784
:10103000B0FA80FCA2EB0C02CCF1280C60FA0CF0A8
:1010400093EA122F04BF00EBC25070474FEAC370FF
:101050007047130A5FEADC1008BF7047F6E79CEAA6
:10106000026F04D010EA5C0F08BF0020704710B573
:10107000FFF733FF40DFF63E81F00040704700008D
:10108000A010000800000020200000002801000837
:10109000C010000820000020A00200004401000849
:1010A0000000000000000000000000003F065B4F51
:1010B000666D7D077F6FBF86DBCFE6EDFD87FFEFB7
:0400000508000305E7
:00000001FF
