:020000040800F2
:1000000078020020C1020008C5020008C7020008EB
:10001000C9020008CB020008CD0200080000000061
:10002000000000000000000000000000CF020008F7
:10003000D102000800000000D3020008D502000829
:10004000D7020008D7020008D7020008D70200082C
:10005000D7020008D7020008D7020008D70200081C
:10006000D7020008D7020008D7020008D70200080C
:10007000D7020008D7020008D7020008D7020008FC
:10008000D7020008D7020008D7020008D7020008EC
:10009000D7020008D7020008D7020008D7020008DC
:1000A000D7020008D7020008D7020008D7020008CC
:1000B000D7020008D7020008D7020008D7020008BC
:1000C000D7020008D7020008D7020008D7020008AC
:1000D000D7020008D7020008D7020008D70200089C
:1000E000D7020008D7020008D702000800F002F883
:1000F00000F03CF80AA090E8000C82448344AAF186
:100100000107DA4501D100F031F8AFF2090EBAE883
:100110000F0013F0010F18BFFB1A43F0010318473B
:100120006023000080230000103A24BF78C878C103
:10013000FAD8520724BF30C830C144BF04680C60ED
:10014000704700000023002400250026103A28BF35
:1001500078C1FBD8520728BF30C148BF0B60704739
:100160001FB502F066F81FBD10B510BD00F04CFFC2
:100170001146FFF7F5FF00F00BF800F06AFF03B43B
:10018000FFF7F2FF03BC00F0ADFE000030BF00003F
:10019000002600240025062000F03FFE482000F045
:1001A000CDFC00F092FA00F0F9FB00204249086013
:1001B00000F05EFB06460E2000F0C8FB04467AE025
:1001C000681CC5B2322D07DD00F052FB06460E203A
:1001D00000F0BCFB044600253849304601F06CFEB7
:1001E000804601F02BFFC7B23946002000F040FCEA
:1001F000012000F0B9FC304601F020FFC0B20A2116
:1002000090FBF1F201FB1200C7B23946012000F069
:1002100056FC012000F0A8FC2849304601F042FFBE
:10022000804601F00BFFC0B20A2190FBF1F201FB06
:100230001200C7B23946022000F01AFC012000F07B
:1002400093FC4FF47A7094FBF0F0C7B23946042067
:1002500000F00EFC012000F087FC4FF47A7094FB54
:10026000F0F100FB1140642190FBF1F0C7B2394678
:10027000052000F0FDFB012000F076FC642094FBDB
:10028000F0F100FB11400A2190FBF1F0C7B23946B2
:10029000062000F0EDFB012000F066FC0A2094FB34
:1002A000F0F100FB1140C7B23946072000F0E0FB37
:1002B000012000F059FC83E78C812142000020419D
:1002C00008480047FEE7FEE7FEE7FEE7FEE7FEE739
:1002D000FEE7FEE7FEE7FEE703480449024A044B57
:1002E00070470000ED000008780000207802002030
:1002F00078000020FF48806940F48060FD498861F3
:100300000846C06840F48060C8600846C06820F4B1
:100310008060C860F8480068F84900EA0100F849C0
:10032000C1F80408F4480068C1F804080846D0F889
:10033000040820F48070C1F804080846D0F80808C2
:1003400020F00200C1F808080846D0F8080820F498
:100350006020C1F808080846D0F8080840F460207A
:10036000C1F808080846D0F8080840F48010C1F821
:1003700008080846D0F8080820F40060C1F808080A
:100380000846D0F82C0820F47000C1F82C08084664
:10039000D0F82C084FF00000C1F82C080846D0F81F
:1003A000100820F03800C1F810080846D0F81008EE
:1003B00040F03800C1F810080846D0F8080840F0AE
:1003C0000100C1F808080846D0F8080840F0080005
:1003D000C1F8080800BFCB48006810F0080FFAD138
:1003E000C848006840F00400C549C1F8080800BFCB
:1003F000C448006810F0040FFAD17047BD48806906
:1004000040F40070BB4988610846C06840F4007041
:10041000C8600846C06820F40070C860BA48006828
:10042000B64900EA0100B649C1F80404B6480068BC
:10043000C1F804040846D0F8040420F48070C1F820
:1004400004040846D0F8080420F00200C1F80804AB
:100450000846D0F8080420F46020C1F808040846D3
:10046000D0F8080440F46020C1F808040846D0F829
:10047000080440F48010C1F808040846D0F80804C5
:1004800020F40060C1F808040846D0F82C0420F4D9
:100490007000C1F82C040846D0F82C044FF000007E
:1004A000C1F82C040846D0F8100420F00F00C1F861
:1004B00010040846D0F8100440F00700C1F81004FA
:1004C0000846D0F8080440F00100C1F808040846C6
:1004D000D0F8080440F00800C1F8080400BF8B48B9
:1004E000006810F0080FFAD18848006840F0040056
:1004F0008349C1F8080400BF8448006810F0040F65
:10050000FAD1704700B57B48806940F00400794912
:1005100088617F48006820F0FF007E49C1F800082C
:100520007448406820F4404072494860084640687A
:1005300040F400404860FFF761FFFFF7DBFE00BDBD
:1005400010B502460020012A1ED1734B1B6823F010
:100550001F036B4CC4F834342346D3F8343443EAD5
:100560000103C4F834342346D3F8083443F4800339
:10057000C4F8083400BF694B1B6813F0020FFAD0AF
:10058000674B1B6898B21FE0022A1DD1654B1B68A0
:1005900023F01F035A4CC4F834382346D3F83438B8
:1005A00043EA0103C4F834382346D3F8083843F447
:1005B0008003C4F8083800BF5B4B1B6813F0020FC0
:1005C000FAD05A4B1B6898B210BD2DE9FE4F8246F7
:1005D0008B4600200290019059465046FFF7B0FF2D
:1005E0000290029801F04AFD009001F0D7FB80468E
:1005F0004FF066324E4B01F0DDF9064600224D4BBE
:1006000001F02CF8044600F03DFF01900198BDE890
:10061000FE8F2DE9F04704460D46284601F00EFDF9
:10062000C0B20A2190FBF1F201FB1200C6B24249AE
:10063000284601F037FD814601F000FDC0B20A21D5
:1006400090FBF1F201FB1200C7B23C49284601F0D1
:1006500029FD814601F0F2FCC0B20A2190FBF1F2C3
:1006600001FB120000F0FF08012C15D131460020DB
:1006700000F025FA012000F077FA3946012000F059
:10068000F7F9012000F070FA4146022000F0F0F97D
:10069000012000F069FA16E0022C14D13146052041
:1006A00000F00DFA012000F05FFA3946062000F054
:1006B000DFF9012000F058FA4146072000F0D8F990
:1006C000012000F051FABDE8F0870A48806940F047
:1006D0001000084988610E48006820F47F000D4929
:1006E000C1F800080348406820F4404001494860D0
:1006F000084625E00010024004280140FFFFF000FA
:100700000020014008280140042401400824014041
:100710000008014000000140342401400024014051
:100720004C24014034280140002801404C2801405D
:1007300066660A400000B040000020410000C84248
:10074000406840F4004048600846806940F400700A
:1007500088610846C06840F40070C8600846C068F8
:1007600020F40070C8607E4800687E4900EA0100FD
:100770007D49C1F804047A480068C1F804040846B9
:10078000D0F8040420F48070C1F804040846D0F8BE
:10079000080420F00200C1F808040846D0F8080454
:1007A00020F46020C1F808040846D0F8080440F49A
:1007B0006020C1F808040846D0F8080440F480100E
:1007C000C1F808040846D0F8080420F40060C1F815
:1007D00008040846D0F82C0420F47000C1F82C045A
:1007E0000846D0F82C044FF00000C1F82C0408464D
:1007F000D0F80C0420F47C30C1F80C040846D0F882
:100800000C0440F4E040C1F80C040846D0F80C0495
:1008100040F46030C1F80C040846D0F8080440F0F9
:100820000100C1F808040846D0F8080440F00800A8
:10083000C1F8080400BF4D48006810F0080FFAD155
:100840004A48006840F004004749C1F8080400BF66
:100850004648006810F0040FFAD1704730B50446DE
:10086000002521460120FFF76BFE0546284630BDD6
:100870002DE9F04F8DB000200B900A900F20FFF76C
:10088000EDFF0B900B9801F0F9FB804601F086FA22
:1008900006464FF06632364B01F08CF8044600F005
:1008A000F1FD0A900A9801F079FA06464FF0663297
:1008B000304B01F07DF9CDE908012F490A9801F08C
:1008C000F1FB064601F06AFA8046DDE9082300F0F4
:1008D000C5FE04460022294B00F0C0FE824600F00F
:1008E000D1FD0A9026490A9801F0DCFB22490190CB
:1008F00001F0E2FA834601F051FA064600F00CFCE2
:10090000CDE9020100F0BEFD1E49059001F0D4FAC8
:10091000824601F043FA1C4A1C4BCDE9060100F067
:10092000E3FD044602460B460020194900F096FEFE
:10093000184A194BCDE9080101F046F9804600F04C
:10094000A1FD0A900A980DB0BDE8F08F30B50446BD
:10095000002521460120FFF7F3FD0546284630BD5E
:1009600004240140FFFFF000002001400824014062
:1009700066664A3F66660A4000401C4600408F405B
:1009800000007A4400E07645649E2278A5796B3FAA
:100990000000F03FC3F5285C8F1271405B4880690E
:1009A00040F00100594988610846806940F008001C
:1009B00088610846806940F040008861544840687A
:1009C00040F0007052494860524800686FF30F00D1
:1009D000C1F8000C4F48006843F2333140EA01008F
:1009E0004B49C1F8000C0846D0F80C0C40F0FF0051
:1009F000C1F80C0C4848D0F804084FF000004649F4
:100A0000C1F804080846D0F8040840F03330C1F8B3
:100A100004080846D0F80C0840F47F40C1F80C08E0
:100A2000704700F001013D4A1160C0F340013C4AAB
:100A3000C2F8A411C0F380013A4A1160C0F3C001AA
:100A400002F104021160C0F3001102F1040211600E
:100A5000C0F3401102F104021160C0F3801102F1F1
:100A6000040211604FEAD0112D4AC2F8BC11704740
:100A700030B503460C46184603EBD3714910A3EB7F
:100A80004101294A1160194603EBD3724FEA620013
:100A900000EBD0724FEA6202A0EB4202234DC5F890
:100AA000842118464FEAE37103EB91714FEAA101EB
:100AB0001F4A11601F49085DFFF7B3FF30BD30B515
:100AC00003460C46184603EBD3714910A3EB4101D2
:100AD000154A1160194603EBD3724FEA620000EB2E
:100AE000D0724FEA6202A0EB4202104DC5F8842199
:100AF00018464FEAE37103EB91714FEAA1010C4AEA
:100B000011600D49085DFFF78CFF30BD00100240F9
:100B100000000140000C014000100140A0012342F0
:100B200000002342A801234280812142008021420B
:100B300088812142000000200A0000204FF0E021BF
:100B4000096921F004014FF0E0221161C21700EBA6
:100B50005272D2101F4B1A70194609784FF47A72EC
:100B600051431D4A1180704701461B4A12884A436F
:100B70004FF0E0235A6100229A6101221A6100BFFE
:100B80004FF0E022106910F0010F02D010F4803F06
:100B9000F6D000224FF0E0231A619A6170470146B7
:100BA0000C4A12784A434FF0E0235A6100229A61BE
:100BB00001221A6100BF4FF0E022106910F0010F0E
:100BC00002D010F4803FF6D000224FF0E0231A61EB
:100BD0009A6170471400002016000020AF4A0A40B6
:100BE0000243AF4B1A6070470146072323EA010214
:100BF0001202AC4B18684FF6FF0300EA0300AA4B41
:100C000040EA030040EA02004FF0E023C3F80C0D75
:100C100070472DE9F0478046894614461D46204618
:100C2000E11704EB91714FEAA10AE11704EB91710E
:100C30008910A4EB8101CFB2042000EBC700C7B23A
:100C40002846FFF7D1FFC5F1040008FA00F60F208F
:100C5000284100EA0900064306F00F06202C0CDAB2
:100C6000924800684FF0010101FA04F140EA0100E6
:100C70004FF0E021C1F800010DE08D480068A4F1BB
:100C800020014FF0010202FA01F240EA02004FF0A7
:100C9000E021C1F80401874850F82A0006FA07F15C
:100CA0000843844941F82A00BDE8F08770B504463E
:100CB0000B46CE1701EB9676B010CE1701EB967669
:100CC000B610A1EB8606B606350E7B4B9B6943F04A
:100CD0000103794EB3614FEAB63353F820300F2643
:100CE000AE40B343754E46F82030334653F82030BB
:100CF00004FA05F63343714E46F82030704B1E68F7
:100D00004FF0010303FA01F346EA03066D4BC3F803
:100D1000006412F0010F0AD06B4B1B684FF0010604
:100D200006FA01F643EA0603664EC6F80C3412F0E2
:100D3000020F0AD0654B1B684FF0010606FA01F658
:100D400043EA06035F4EC6F8083470BD00B50020C4
:100D500059490861C8601420486100208861C86151
:100D60000846006840F0010008600846406858499D
:100D700008405149486008460068564908404E49B5
:100D800008600846006820F4802008600846406833
:100D900020F4FE0048600020886000214FF00060D1
:100DA000FFF71CFF00BD10B54B48006840F0040081
:100DB0004FF0E021C1F8100D3F48C06940F080506D
:100DC0003D49C8614548406840F4807043494860E7
:100DD0000846006840F0040008600846006840F0DB
:100DE00002000860FFF7D2F910BD2F48001D2D4901
:100DF00008607047014649062F4A926942F0010295
:100E00002D4B9A612F4A526822F0E0622D4B5A60B6
:100E10001A4652680A435A60704730B504460025A6
:100E2000FFF794FF2448006840F4803022490860AE
:100E300000BF21480068400CFBD04FF480601E4981
:100E40004860A01EC4B20846406840EA844048603A
:100E50000846406840F4803048602148006840F00F
:100E600032001F4908601448006840F08070124941
:100E7000086000BF10480068400EFBD00E48406874
:100E800040F002000C49486005E00B484068C0F3A0
:100E9000870505F00305022DF7D130BD80FFFF1F48
:100EA00008ED00E00CED00E00000FA0500E100E0D4
:100EB00004E100E000E400E000100240080001400E
:100EC00000040140000001400C04014008040140FE
:100ED0000000FFF8FFFFF6FE10ED00E0007000409C
:100EE00000200240014600BF704700BF314A12880F
:100EF00012F0400FFAD0C2B22F4B1A8070472DE982
:100F0000F05F05460E46300101F0B8F881462B49E6
:100F100005FB01F001F0B2F88246494600F0CCFF33
:100F20000746384601F08AF884B2204601F0A6F858
:100F30008346394601F089F982464FF0834101F03A
:100F4000B1F8814601F07AF88046240104EB0800EC
:100F500084B21B48806940F0040019498861084642
:100F6000806940F4804088611648006820F47F6002
:100F70001549C1F804080846D0F8040840F40B608D
:100F8000C1F804080E48C06840F480400C49C860AD
:100F90000846C06820F48040C8600C48A0F80848A3
:100FA0000B48008842F20C0140EA01000849088021
:100FB000BDE8F09F003801400438014040420F0076
:100FC00000100240040801400000014000300140D0
:100FD0000C3801407047704770477047704710B534
:100FE00000F008F8006810BD10B5044600F002F8E3
:100FF000046010BD01487047704700BF1800002012
:1010000000487047180000207546FFF7F9FFAE460C
:1010100005006946534620F00700854618B020B504
:10102000FFF75AF9BDE820404FF000064FF00007E7
:101030004FF000084FF0000B21F00701AC46ACE880
:10104000C009ACE8C009ACE8C009ACE8C0098D46ED
:1010500070470446AFF300802046FFF790F8000089
:1010600001487047704700BF1C0000202DE9F04187
:101070004F1E00EBC7010446D1E9000115461E468C
:1010800037F006020DD02A46334600F093FC7F1E4F
:1010900004EBC703D3E9002300F026FA37F0060279
:1010A000F1D1022F25D0042F13D0062F18BFBDE891
:1010B000F0812A46334600F07DFCD4E90A2300F093
:1010C00013FA2A46334600F075FCD4E9082300F0F1
:1010D0000BFA2A46334600F06DFCD4E9062300F0F3
:1010E00003FA2A46334600F065FCD4E9042300F0F5
:1010F000FBF92A46334600F05DFCD4E9022300F0F8
:10110000F3F92A46334600F055FCD4E90023BDE844
:10111000F04100F0E9B900002DE9F04DCB4B00247F
:1011200092B0994205DA21F000429A4201D806D1E4
:1011300028B112B00122BDE8F04D01F038B9B1F587
:10114000801F20DA02430DD0002917DA0120FFF7B3
:101150004BFF12B00022BDE8F04D13461046114679
:1011600000F07CBA0220FFF73FFF12B00022BDE87A
:10117000F04D13461046B64900F070BA6FF03504D2
:10118000362201F014F904EB2152C1F31308B149DE
:10119000A2F2FF33414401F4801282F07F6103EB3D
:1011A000225281F04051009241EA08010022AA4BEC
:1011B00000F00AFD044608F10200A84EC0F3130037
:1011C0000D467E44032867D2D6E90023204600F06E
:1011D0009DFB1ED10098002802BFD6E9000112B085
:1011E000BDE8F08D00F0CEFB04460D469C4A9D4BB9
:1011F00000F0E0FB06460F469B4A9C4B20462946E2
:1012000000F0D8FB12B032463B46BDE8F04D00F08E
:101210006BB94FF05532964B2046294600F0CAFB79
:101220000022944B00F0C4FC07460E4622462B4693
:101230002046294600F0BEFB3A46334600F0BAFB92
:10124000064600980F46F0B100F09CFB80468A46A7
:10125000834A844B00F0AEFB32463B4600F0A8FCCC
:1012600022462B4600F0B0FC04460D467E4A7F4BDA
:101270004046514600F09EFB12B022462B46BDE888
:10128000F04D00F0A1BC0B4612B032462046294674
:10129000BDE8F04D00F098BC00224FF0804320469E
:1012A00000F022F902460B462046294600F0D6F906
:1012B00006460F46009800F065FBCDE90401324672
:1012C0003B463046394600F075FB0C906A480A915F
:1012D00008EB000201920C9A0B46104600F06AFBE4
:1012E0008246024665488B46C8F151080B4608F510
:1012F000D72803217844FFF7B9FE52465B4600F039
:1013000059FB0E905E48089152465B460421784492
:10131000FFF7ACFE0A9B0C9A00F04CFB019A089B6D
:1013200042EA08080E9A00F0DFF883460991B8F106
:10133000000F4EDD4FF0FF322046294601F037F80E
:1013400022462B4600F036FB804600988A4660B362
:10135000DDE90401424A434B00F02CFB0B91009065
:101360005A4640465146099B00F0BEF832463B467D
:1013700000F020FB0B9B009A00F0B6F84246534663
:1013800000F016FC22462B4600F01EFC05460C46DB
:10139000DDE90401344A354B00F00CFB12B02A465B
:1013A0002346BDE8F04D00F00FBC5A464046099B6D
:1013B00000F09AF832463B4600F0FCFA42465346AB
:1013C00000F0F6FB12B022462B46BDE8F04D00F0CF
:1013D000EFBB009840B3DDE90401214A214B00F046
:1013E000E9FA824688465A4620462946099B00F07B
:1013F000EBFB32463B4600F0DDFA5246434600F036
:10140000E3FB22462B4600F0DFFB04460D46DDE9F8
:101410000401154A154B00F0CDFA12B022462B46B6
:10142000BDE8F04D00F0D0BB0B465A462046294699
:1014300000F0CAFB32463B4600F0BCFA12B022462E
:101440002B46BDE8F04D00F0B3BB00000000F07F7C
:101450000000F0BF645F09000000F03FB21200001E
:10146000763C7935EF39EA3D0000E0FE422EE63F5A
:101470005555D53F0000E03F86EBF9FF48110000CD
:101480004611000021F00042A2F16052B2F5801F27
:1014900001F0004328BFD2F17F6C0BD95FEA001C3A
:1014A00043EAC20242EB507018BF704728BF20F0D9
:1014B00001007047B2F5801FBCBF184670474FEA65
:1014C000410C1CF5001F02D2084600F0B9BE70B5F1
:1014D00000F01AFB00000089FFF7F6BF4FF0004054
:1014E000A0F580007047000010B591EA030F48BFD7
:1014F00083F0004300F17083841A71EB030E05D270
:10150000121943EB0E03001B61EB0E01DFF820C143
:101510004FEA1154A4EB135E1CEA430F18BF9CEA78
:10152000445F71D023EA0C03DEF1200C21EA045160
:1015300043F4801332D322FA0EFC10EB0C0023FA92
:101540000EFC41EB0C01CEF1200C03FA0CFC10EB6D
:101550000C0051F10001B1F5801FCEF1200C32D208
:1015600001EB0451BDE8104012FA0CF258BF70476D
:10157000401C38BF5FEA420218BF7047002814BF02
:1015800020F0010041F100014FEA410313F5001F73
:1015900038BF7047A1F1C04100F004BB012A43EB02
:1015A0000302AEF1200EDEF11F0C32BF4FF0000C33
:1015B00023FA0EF310EB030041EB0451B4EB115F7F
:1015C000D0D0A1EB045101F58011490801EB045181
:1015D000BDE810405FEA30000CD350F1000038BF86
:1015E00012FA0CFC06D1C9E7401C38BF5FEA420280
:1015F000CAD1C3E74FEA410313F5001F38BF704754
:10160000A1F1C04100F0CEBA9CEA445F08D0BDE829
:10161000104011EA5C0F04BF01F000410020704748
:10162000BDE8104070B500F06FFA00BF64FBBE3E2D
:101630000000E0FF02494FF0000000F086BE00BF4E
:101640000000F87F491058BFC1F140415B1058BFFE
:10165000C3F140438B42EFF3008070472DE9C04156
:1016600030B4DFF8A0C23CEA111418BF3CEA1314EE
:1016700000F0EC8081EA03051CEA111444EAD574F9
:1016800018BF1CEA131500F0C780A4EB05044FF047
:10169000004545EAC12145EAC32341EA505143EAE6
:1016A000525304F17F74994204F500344FEAC0208C
:1016B0004FEAC22208BF904200F09C804FEA1365B7
:1016C0000FF24016765D4FEA134506FB05F7C7F1AA
:1016D000807706FB07F74FEAD737A7FB0368764208
:1016E000C8F58038A7FB06CE38BFA8F1010807FB74
:1016F00008E64FF0000EA6FB028CE6FB03CEDCF101
:10170000000CCEF1004E38BFAEF1010EA6FB0C5816
:101710004FF000074FF00005E6FB0E87A1FB08C65F
:10172000A0FB07CE16EB0E0645F10005E1FB0765B1
:1017300015F1E04E7EBFA4F580345FEA46066D41A8
:1017400016F1800745F100054FEA17274FEA0666B4
:1017500047EA0567A6F1DE46B6F1805F4FEA152538
:101760001FD9384624F0010C05EBC471BCF1FE6FA3
:1017700001EB0C1102D8F0BCBDE8008124425CBF33
:1017800001F5801E9EEAC47F02D4F0BCBDE8008152
:10179000244238D4F0BCA1F1C041BDE8004100F0C2
:1017A00001BA4FEAD22242EA43524FEAD323A7FBBF
:1017B00002864FEAD02040EA415007FB03661EEA4A
:1017C0000E0F4FEAD12105FB026658BFA6EB00566B
:1017D000B6EB00564FEA520E4EEAC37E18EB0E0EE1
:1017E00056EB530EBDD518EB02085E417F1C55F138
:1017F0000005B6E74FF480154FF000074FF00006E4
:101800004FF00008ADE7F0BC4FF0000001F1C0411F
:1018100001F00041BDE8008111EA0C1F0CEA13152C
:1018200000D00CE013EA0C1F00F025804FF0000000
:10183000F0BC81EA030101F00041BDE80081F0BC89
:10184000BDE8004181EA030100F0ACB9F0BCBDE89D
:10185000004170B500F058F9097EFC3E00F007B871
:1018600081EA03014FF0000001F00041704781EA76
:10187000030100F097B9F0BCBDE800414FF0000053
:1018800021497047FFFDFBF9F7F5F4F2F0EEEDEBBF
:10189000E9E8E6E4E3E1E0DEDDDBDAD8D7D5D4D36E
:1018A000D1D0CFCDCCCBCAC8C7C6C5C4C2C1C0BFBA
:1018B000BEBDBCBBBAB9B8B7B6B5B4B3B2B1B0AFC0
:1018C000AEADACABAAA9A8A8A7A6A5A4A3A3A2A1A4
:1018D000A09F9F9E9D9C9C9B9A999998979796955F
:1018E00095949393929191908F8F8E8E8D8C8C8BFB
:1018F0008B8A898988888787868585848483838283
:10190000828181800000FF070000F87F51EA030C0C
:1019100017D41CF5801F58BFBCF5801F00F106804E
:10192000994218BF704708BF9042704707D711F51A
:10193000801F58BF13F5801F19D499427047894200
:1019400070471CF5801F08D5BCF5801FF7D58B426A
:1019500018BF704708BF824270474FF4001C1CEB51
:10196000410F38BF1CEB430F01D28B42704770B55B
:1019700000F0CAF8922449004FF000514FF0805314
:10198000FFF760BE10F0004248BF4042B0FA80F35B
:1019900010FA03F10AD0C3F11D0303F580634FEA87
:1019A000415002EB035202EBD12170474FF000008F
:1019B00070470000DFF848C170B51CEA111E1EBF59
:1019C0001CEA13159EEA0C0F95EA0C0F00F06F80CD
:1019D00081EA030423EA4C134EEAD47E21EA4C1137
:1019E00041F4801143F48013AE44A1FB024CA0FBF0
:1019F0000365AEF17F7E361955EB0C05A1FB034C58
:101A00004CF10003A0FB021C16EB0C06654153F1E0
:101A10000003094218BF46F0010613F4007F0BD102
:101A20004FEA03314FEA0530340341EA155140EAE9
:101A300016506FF003020AE04FEAC3214FEAC520B7
:101A4000F40241EA555140EA56506FF0020202EBAF
:101A50002E4201EB025585EACE710AD05FEA440CB2
:101A600018BF24F0004450F1000041F1000120EAC9
:101A7000D47040F2FE7C624500D270BDA84214BF13
:101A80004FF080444FF04044002E08BF0024BEF1C8
:101A9000806FA8BFA1F1C041BDE8704080F2828094
:101AA0004FF0000001F1C04101F0004170479EEA93
:101AB0000C0F0CEA131518BF95EA0C0F06D04FF067
:101AC000000081EA030E0EF0004170BD00F01CF82A
:101AD0008900013E00F007B800F009B84FEA430C56
:101AE0005FEA5C5C08D081EA030100F05BB84FEA72
:101AF000410C5FEA5C5CF6D14FF000000149704791
:101B00000000FF070000F87F0EF1020E2EF0030E1A
:101B10005EF8046B364205D4012A43EB030515F544
:101B2000001F12D8012841EB010C1CF5001F0CD836
:101B30000ED14FEAD17C15F5001F0CEB4C0C0CF1CB
:101B4000020C08BF4CEBD37C04E04FF0080C01E022
:101B50004FEAD37C0CEB4C0526FA05F606F0070697
:101B6000B6F1040C06D20EEB860CBDE870404CF0CA
:101B7000010C6047DFE80CF0090B02024FF0004156
:101B80004FF00000A1F5002170BD19461046012854
:101B900051EB010418BFD4F5001484BF002001F0FC
:101BA000004170BD0808A0F500114FEA31017047EF
:101BB00091EA030F10B581F000413FF59DAC83F031
:101BC000004300F009B8000010B591EA030F48BFC8
:101BD00083F000433FF590AC841A71EB030E07D2FB
:101BE00012198EF0004E43EB0E03001B61EB0E0149
:101BF000DFF8A4C14FEA1154A4EB135E1CEA430FB3
:101C000018BF9CEA445F00F0B08023EA6C035242A4
:101C100021EA0451C3EB6C0338BF5B1EDEF1200CDC
:101C200025D322FA0EFC10EB0C0043FA0EFC41EB1C
:101C30000C01CEF1200C03FA0CFC10EB0C0051F15E
:101C40000001CEF1200C29D401EB0451BDE8104075
:101C500012FA0CF258BF7047401C1CBFB2F1004F83
:101C6000704700280CBF491C20F00100704712EBA0
:101C7000020C43EB030218BF4FF0010C4CEA420286
:101C8000AEF1200EDEF11E0C54D943FA0EFC10EB1F
:101C90000C0051F1FF31CEF11E0CD5D50CF1010C29
:101CA00012FA0CFC404141EB010101EB445E5FEA9A
:101CB0005E5E10D901EB0451BDE8104010EBDC7002
:101CC00038BFBCF1004F18BF704700280CBF491C3B
:101CD00020F00100704730D24FEAD42E11F50011E8
:101CE00024F400641BD0B1FA81F20B3AA41AA41EAA
:101CF000D2F12003914030FA03F31943904001EBF5
:101D0000CE71002C01EB0451BDE81040A8BF704714
:101D100001F1C0414FF0000001F000417047B0FAFE
:101D200080F310FA03F100D110BDE41A173C480506
:101D3000C90AE4E701EB045110BD491001EB04515D
:101D4000BDE810404FEA300002E04FF0000170475C
:101D50004A0008BF0042F8D0B2F5001F28BF704704
:101D600001F000414FF0000070479CEA445F07D04B
:101D7000BDE8104011EA5C0F04BF0021002070474D
:101D8000BDE8104070B5FFF7BFFE00BF40DFF63E74
:101D900083F00041104670470000E0FF43004FEA27
:101DA000D30C4FEA3C0C43401FBF40070CF160517D
:101DB00013F0FE4F70471CF0006F03D100200CF0B1
:101DC000004170470CF0004343EA507010B540EA00
:101DD000CC0000F0E8F900BF000000924FEA0001DB
:101DE000FFF7E0BE4FF000414FF00000A1F50021E9
:101DF0007047000090EA010F48BF81F0004100F1F8
:101E00003682421A3CBF801A89184FEAD0524FF0EE
:101E10007F4C1CEA410FA2EBD15318BF9CEA026F22
:101E200000F03B804FF0004C4CEA00204CEA0121CE
:101E300021FA03FC10EB0C0C1ED202F1FF325FEA18
:101E40001C2040EBC25038BF70471CF07F0F4FEA98
:101E5000400C18BFBCF17F4F38BF7047C3F120035F
:101E6000994008BF20F00100BCF17F4F38BF704798
:101E7000A0F1C04000F0E4B94FEA3C00000A40EB9A
:101E8000C25028BF1CF0FF0F4FEA400CE6D018BF2D
:101E9000BCF17F4F38BF7047EAE79CEA026F05D07C
:101EA00010EA5C0F08BF00F00040704710B500F06A
:101EB0007AF900BF64FBBE3E4FF47F0C1CEAD012DF
:101EC0001EBF1CEAD11392EA0C0F93EA0C0F00F02C
:101ED000858090EA010F48BF42F4807240F4000C04
:101EE00041F400002CF07F4120F07F4000B581429A
:101EF000A2EB03020FF2081CACEB504EC0F1000045
:101F00009EF800E04FEA4E0E00FB0EFC38BF490081
:101F10004FEA2C1C02F5FA020CFB0EF34FEACE1E20
:101F20004FEA112C4FEAC1210EEB635E42EB2242D5
:101F30000EFB0CFC4FEA1C5300FB03114FEA112C63
:101F40004FEA01310EFB0CFC4FEADC4C00FB0C119C
:101F5000C14228BF09184CEB03335DF804EB10EBCA
:101F6000410143EBC250B2F57C0F38BF704729D511
:101F700012F0F00F1CBF00F1C04000F000407047AD
:101F8000008182838485868788898B8C8D8E8F9152
:101F90009293959697999A9C9D9FA0A2A3A5A7A876
:101FA000AAACAEB0B2B3B5B7B9BCBEC0C2C5C7C9A2
:101FB000CCCED1D4D7D9DCDFE2E6E9ECF0F3F7FA06
:101FC000FE0000004FEA400C0CF1807CBCF17E4F1B
:101FD00028BF7047B0F1C04000F032B990EA010F5D
:101FE0000CEAD11348BF42F48072624538BF6345A2
:101FF00007D213F47F0F16D080EA010000F00040F2
:10200000704710B500F0CFF8097EFC3E00F005B82F
:1020100080EA010000F00040704780EA010000F013
:10202000004000F00DB912F47F0F04BF0248704762
:1020300080EA010000F004B90000C07FC10DD1F1B9
:102040009E0206DB4FEA002343F0004323FA02F02E
:102050007047004207D54FEA4001B1F1FE4F02D26E
:102060004FF00000704710B500F09DF849922480B1
:10207000002070476FEA200070470000B0FA80F33C
:1020800010FA03F2C3F19D030AD0D90501EB122027
:10209000530638BF704700F1010008BF20F001006F
:1020A000704700004FF47F0C1CEAD0121EBF1CEAE0
:1020B000D11392EA0C0F93EA0C0F00F0478090EADC
:1020C000010F48BF42F480724FF0004C4CEA0020F0
:1020D0004CEA012102EB0302A0FB0113A2F500026E
:1020E000002918BF43F001035B0028BF4FEA330308
:1020F00042EB22425FEA132C4CEBC2502EBFBCEBEA
:10210000436FB2F57C0F70474FEA036CBCF1004F90
:1021100008BF20F00100B2F57C0F38BF70470BD527
:1021200082F0FF0212F5803FC8BF704700F1C04047
:10213000D8BF00F00040704700F5000C5FEA4C0C7F
:1021400048BF7047B0F1C04000F07AB890EA010F84
:102150000CEAD11348BF42F48072624538BF634530
:1021600004D280EA010000F00040704710B500F092
:102170001AF800BF8900013E00F007B800F009B866
:102180005FEA410C5FEA1C6C08D080EA010000F0B5
:1021900057B85FEA400C5FEA1C6CF6D14FF0004084
:1021A000A0F5800070470EF1020E2EF0030E5EF8CF
:1021B000044B244204D44FEA4102B2F17F4F11D8BC
:1021C0004FEA4003B3F17F4F0CD80ED14FEAD07CD9
:1021D000B2F17F4F0CEB4C0C0CF1020C08BF4CEB36
:1021E000D17C04E04FF0080C01E04FEAD17C0CEB0D
:1021F0004C0324FA03F404F00704B4F1040C06D2EF
:102200000EEB840CBDE810404CF0010C6047DFE899
:102210000CF0070802024FF00040A0F5800010BD4E
:102220000846420018BFD2F1807288BF00F000401B
:1022300010BD10B5FEF714FF4FF00001016010BD96
:10224000FF2141EAD050C005704780F0004090EA7D
:10225000010F7FF5D6AD81F0004100F008B8000015
:1022600090EA010F48BF81F000413FF5CAAD421A24
:1022700004D882F00042A0EB020011444FEAD05291
:102280004FF07F4C1CEA410FA2EBD15318BF9CEAE0
:10229000026F4AD04FF0004C4CEA00204CEA01217A
:1022A00021FA03FCB0EB0C0C0FD412F0FE0F36D069
:1022B0005FEA4C001DD5001240EBC25038BF70479A
:1022C0001CF03F0F18BF70470BE0A2F101025FEA5C
:1022D0001C2040EBC25038BF70471CF07F0F18BF66
:1022E0007047C3F12003994014BF401E20F0010045
:1022F000704780084FEA122308BF7047B0FA80FC8D
:10230000A2EB0C02CCF1280C60FA0CF093EA122F2D
:1023100004BF00EBC25070474FEAC3707047130A06
:102320005FEADC1008BF7047F6E79CEA026F04D052
:1023300010EA5C0F08BF0020704710B5FFF733FFAD
:1023400040DFF63E81F0004070470CF00F03092B90
:1023500008BF082000F05B800A2B0BD0082B18BFA9
:10236000704708BF1CF0400F0AD04FF000004FF03C
:10237000000170471CF0400F18BF4FF0004070473D
:102380001CF0100F08D020F0704300F07F4242EAAA
:10239000D3014FEA4370704700F0604021F07F4264
:1023A00042EA000201F07F4040EA727070474FF04D
:1023B000FF0C4CF4E06C1CEA11531CBF9CEA030CAC
:1023C0009445C2BFDA4201EB02517047002B0DD099
:1023D000BCF1000F0FD0002A01F00041A4BF41F072
:1023E000E04141F07F614FF00000704701F0004193
:1023F0004FF00000704750EA01334FF09B0C18BFBC
:102400004CF0806C7FF416A9AFF3008070471CF489
:10241000801F11D01CF4E02F03D06FEACC314900AB
:1024200070474FF04050EFF3008222F0704242EAD2
:10243000000282F3008870474FF0000070470000F0
:1024400004FA97999999D93FAF788E1DC571CC3F01
:102450009FC678D0099AC33F935555555555E53FCA
:10246000599322942449D23FDE03CB966446C73F5A
:1024700044523EDF12F1C23F0000000000000000A5
:10248000A024000800000020180000002801000817
:10249000B824000818000020600200004401000871
:1024A0003F065B4F666D7D077F6FBF86DBCFE6ED36
:0824B000FD87FFEF00000000B2
:04000005080000ED02
:00000001FF
