:020000040800F2
:1000000078020020BD020008C1020008C3020008F7
:10001000C5020008C7020008C9020008000000006D
:10002000000000000000000000000000CB020008FB
:10003000CD02000800000000CF020008D102000835
:10004000D3020008D3020008D3020008D30200083C
:10005000D3020008D3020008D3020008D30200082C
:10006000D3020008D3020008D3020008D30200081C
:10007000D3020008D3020008D3020008D30200080C
:10008000D3020008D3020008D3020008D3020008FC
:10009000D3020008D3020008D3020008D3020008EC
:1000A000D3020008D3020008D3020008D3020008DC
:1000B000D3020008D3020008D3020008D3020008CC
:1000C000D3020008D3020008D3020008D3020008BC
:1000D000D3020008D3020008D3020008D3020008AC
:1000E000D3020008D3020008D302000800F002F88F
:1000F00000F03AF80AA090E8000C82448344AAF188
:100100000107DA4501D100F02FF8AFF2090EBAE885
:100110000F0013F0010F18BFFB1A43F0010318473B
:1001200080220000A0220000103A24BF78C878C1C5
:10013000FAD8520724BF30C830C144BF04680C60ED
:10014000704700000023002400250026103A28BF35
:1001500078C1FBD8520728BF30C148BF0B60704739
:100160001FB51FBD10B510BD00F0EAFE1146FFF728
:10017000F7FF00F00BF800F008FF03B4FFF7F2FF01
:1001800003BC00F053FE000030BF00000026002436
:100190000025062000F0EFFD482000F07DFC00F077
:1001A00075FA00F0ADFB00204249086000F017FB33
:1001B00006460E2000F081FB04467AE0681CC5B2BA
:1001C000322D07DD00F00BFB06460E2000F075FB1C
:1001D000044600253849304601F006FE804601F00D
:1001E000C5FEC7B23946002000F0EFFB012000F049
:1001F0006FFC304601F0BAFEC0B20A2190FBF1F26A
:1002000001FB1200C7B23946012000F005FC0120B5
:1002100000F05EFC2849304601F0DCFE804601F02B
:10022000A5FEC0B20A2190FBF1F201FB1200C7B299
:100230003946022000F0C9FB012000F049FC4FF4D0
:100240007A7094FBF0F0C7B23946042000F0BDFB91
:10025000012000F03DFC4FF47A7094FBF0F100FBBC
:100260001140642190FBF1F0C7B23946052000F03F
:10027000ACFB012000F02CFC642094FBF0F100FBAF
:1002800011400A2190FBF1F0C7B23946062000F078
:100290009CFB012000F01CFC0A2094FBF0F100FB09
:1002A0001140C7B23946072000F08FFB012000F053
:1002B0000FFC83E78C812142000020410848004761
:1002C000FEE7FEE7FEE7FEE7FEE7FEE7FEE7FEE706
:1002D000FEE7FEE703480449024A044B704700006A
:1002E000ED0000087800002078020020780000204F
:1002F000FE48806940F48060FC4988610846C06817
:1003000040F48060C8600846C06820F48060C8601F
:10031000F7480068F7490840F54908600846006852
:1003200008600846006820F480700860081D0068B6
:1003300020F00200091D08600846006820F46020D3
:1003400008600846006840F46020086008460068BD
:1003500040F4801008600846006820F400600860DF
:10036000E3482830006820F47000E1492831086033
:100370000846006800200860DD480C30006820F066
:100380003800DB490C3108600846006840F038004E
:100390000860D748001D006840F00100D449091DDD
:1003A00008600846006840F00800086000BFD048B8
:1003B000001D006810F0080FF9D1CD48001D00683D
:1003C00040F00400CA49091D086000BFC848001D6C
:1003D000006810F0040FF9D17047C448806940F4F8
:1003E0000070C24988610846C06840F40070C86067
:1003F0000846C06820F40070C860BF480068BD4966
:100400000840BD4908600846006808600846006862
:1004100020F480700860081D006820F00200091DAB
:1004200008600846006820F46020086008460068FC
:1004300040F4602008600846006840F480100860BE
:100440000846006820F400600860AB482830006867
:1004500020F47000A8492831086008460068002090
:100460000860A5480C30006820F00F00A2490C314C
:1004700008600846006840F0070008609E48001DBC
:10048000006840F001009C49091D086008460068AA
:1004900040F00800086000BF9748001D006810F099
:1004A000080FF9D19448001D006840F004009249FB
:1004B000091D086000BF9048001D006810F0040F7F
:1004C000F9D1704700B58948806940F00400874938
:1004D00088618A48006820F0FF00884908608348E6
:1004E000406820F44040814948600846406840F434
:1004F00000404860FFF771FFFFF7FAFE00BD10B53E
:1005000002460020012A1FD17B4B30331B6823F0A9
:100510001F03794C3034236023461B680B43236050
:10052000754B1B1D1B6843F48003734C241D236013
:1005300000BF714B1B1F1B6813F0020FF9D06E4BED
:1005400048331B6898B220E0022A1ED1684B303332
:100550001B6823F01F03664C3034236023461B685E
:100560000B432360624B1B1D1B6843F48003604CEC
:10057000241D236000BF5E4B1B1F1B6813F0020F7E
:10058000F9D05B4B48331B6898B210BD2DE9FE4F84
:1005900082468B4600200290019059465046FFF754
:1005A000AEFF0290029801F001FD009001F08EFB79
:1005B00080464FF06632524B01F094F90646002215
:1005C000504B00F0E3FF044600F0F2FE019001986A
:1005D000BDE8FE8F2DE9F04704460D46284601F0A0
:1005E000C5FCC0B20A2190FBF1F201FB1200C6B2B9
:1005F0004549284601F0EEFC814601F0B7FCC0B247
:100600000A2190FBF1F201FB1200C7B23F492846D4
:1006100001F0E0FC814601F0A9FCC0B20A2190FB88
:10062000F1F201FB120000F0FF08012C15D1314658
:10063000002000F0F1F9012000F04AFA39460120CB
:1006400000F0C3F9012000F043FA4146022000F017
:10065000BCF9012000F03CFA16E0022C14D131461E
:10066000052000F0D9F9012000F032FA39460620C1
:1006700000F0ABF9012000F02BFA4146072000F012
:10068000A4F9012000F024FABDE8F087174880693A
:1006900040F01000154988611848006820F47F0078
:1006A000164908601148406820F440400F494860EE
:1006B0000846406840F4004048600846806940F4BD
:1006C000007088610846C06840F40070C860084641
:1006D000C06820F40070C8600748006805490840F9
:1006E0000549086008460068086011E000100240F3
:1006F00004280140FFFFF0000424014000080140ED
:1007000066660A400000B040000020410000C84278
:100710000846006820F480700860081D006820F01A
:100720000200091D08600846006820F46020086087
:100730000846006840F4602008600846006840F4FD
:10074000801008600846006820F400600860604877
:10075000006820F470005E490860084600680020C8
:1007600008605B482038006820F47C305849203904
:1007700008600846006840F4E040086008460068E9
:1007800040F460300860081F006840F00100091F55
:1007900008600846006840F00800086000BF4C4848
:1007A0002438006810F0080FF9D14948243800684F
:1007B00040F0040046492439086000BF444824380A
:1007C000006810F0040FF9D1704730B504460025D9
:1007D00021460120FFF793FE0546284630BD2DE94E
:1007E000F04F8DB000200B900A900F20FFF7EDFF27
:1007F0000B900B9801F0DAFB804601F067FA064691
:100800004FF06632334B01F06DF8044600F0D0FD36
:100810000A900A9801F05AFA80464FF066322E4B41
:1008200001F05EF9CDE908012C490A9801F0D2FBEC
:10083000804601F04BFA0646DDE9082300F0A6FEEB
:1008400082460022264B00F0A1FE044600F0B0FDD7
:100850000A9024490A9801F0BDFB2049019001F05B
:10086000C3FA834601F032FACDE9020100F0E8FB59
:10087000CDE9040100F09CFD1B49079001F0B4FA9A
:10088000824601F023FA0646184A194B00F0C2FDD1
:10089000044622460B460020164900F077FE164A11
:1008A000164BCDE9080101F027F9804600F080FDE4
:1008B0000A900A980DB0BDE8F08F30B504460025C7
:1008C00021460120FFF71BFE0546284630BD0000EB
:1008D0002C24014066664A3F66660A4000401C467A
:1008E00000408F4000007A4400E07645649E227804
:1008F000A5796B3F0000F03FC3F5285C8F12714073
:100900005948806940F0010057498861084680696C
:1009100040F0080088610846806940F04000886126
:100920005248406840F000705049486050480068A4
:100930006FF30F004E4908600846006843F23331F8
:1009400008434B4908604A480C30006840F0FF00FB
:1009500047490C3108604748006800204549086055
:100960000846006840F033300860424808300068AC
:1009700040F47F403F4908310860704700F00101B2
:100980003D4A1160C0F340013C4AC2F8A411C0F3D3
:1009900080013B4A1160C0F3C00102F10402116002
:1009A000C0F3001102F104021160C0F3401102F122
:1009B00004021160C0F3801102F104021160C0F35F
:1009C000C0112E4AC2F8BC11704730B503460C4620
:1009D000184603EBD0714910A3EB4101294A11607D
:1009E000194603EBD1724FEA620000EBD0724FEA76
:1009F0006202A0EB4202244DC5F8842118464FEA5A
:100A0000E37103EB91714FEAA101204A1160204983
:100A1000085DFFF7B3FF30BD30B503460C461846FE
:100A200003EBD0714910A3EB4101164A116019463E
:100A300003EBD1724FEA620000EBD0724FEA620220
:100A4000A0EB4202104DC5F8842118464FEAE3712D
:100A500003EB91714FEAA1010C4A11600D49085D49
:100A6000FFF78CFF30BD0000001002400000014085
:100A7000000C014004180140A00123420000234261
:100A8000A8012342808121420080214288812142A5
:100A9000000000200A0000204FF0E021096921F049
:100AA00004014FF0E0221161C21700EB5272C2F351
:100AB000C702224B1A701946097801EB4102C2EBBA
:100AC000C1114FF6FF7202EAC1011D4A1180704741
:100AD00001461B4A12884A434FF0E0235A61002224
:100AE0009A6101221A6100BF4FF0E022106910F0F4
:100AF000010F02D010F4803FF6D000224FF0E02327
:100B00001A619A61704701460C4A12784A434FF0C5
:100B1000E0235A6100229A6101221A6100BF4FF05E
:100B2000E022106910F0010F02D010F4803FF6D0DF
:100B300000224FF0E0231A619A61704714000020F0
:100B400016000020AC4A0A400243AC4B1A607047C2
:100B50000146072323EA01021202A84B1B1D186855
:100B60004FF6FF031840A64B18431043A34B1B1D21
:100B7000186070472DE9F0478046894614461D46A7
:100B80002046E11704EB9171C1F3870AE11704EBEA
:100B900091718910A4EB8101CFB2042000EBC70052
:100BA000C7B22846FFF7D4FFC5F1040008FA00F6E3
:100BB0000F20284100EA0900064306F00F06202C0A
:100BC0000CDA904801684FF0010000FA04F041EAA5
:100BD00000014FF0E020C0F800110DE08A480068E5
:100BE000A4F120014FF0010202FA01F240EA0200F2
:100BF0004FF0E021C1F80401844850F82A0006FAB9
:100C000007F140EA0100814941F82A00BDE8F08778
:100C100070B504460B46CE1701EB9676C6F38700F7
:100C2000CE1701EB9676B610A1EB8606B606350E0A
:100C3000774B9B6943F00103754EB3614FEAB633BE
:100C400053F820300F26AE40B343724E46F82030A2
:100C5000334653F8203004FA05F61E436D4B43F833
:100C600020606D4B1B6801268E4033436A4E336013
:100C700012F0010F08D0684B0C331B6801268E4020
:100C80003343654E0C36336012F0020F08D0624BCE
:100C900008331E6801238B401E435F4B08331E60E0
:100CA00070BD00B500205A490861C8601420486131
:100CB00000208861C8610846006840F001000860B3
:100CC0000846406855490840514948600846006850
:100CD000534908404E4908600846006820F48020C7
:100CE00008600846406820F4FE00486000208860E4
:100CF00000214FF00060FFF725FF00BD10B53F4811
:100D00000830006840F004003C4908310860404861
:100D1000C06940F080503E49C8614248406840F494
:100D20008070404948600846006840F00400086050
:100D30000846006840F002000860FFF725FA10BD81
:100D40002F48001D2D49091D0860704701464906BE
:100D50002F4A926942F001022D4B9A612D4A083ABE
:100D6000526822F0E0622B4B083B5A601A465268E8
:100D70000A435A60704730B504460025FFF791FFDB
:100D80002348006840F480302149086000BF2048B3
:100D90000068400CFBD04FF480601D494860A01EE5
:100DA000C4B20846406840EA84404860084640684B
:100DB00040F4803048601C48006840F032001A4916
:100DC00008601348006840F080701149086000BF57
:100DD0000F480068400EFBD00D48406840F002000C
:100DE0000B49486005E00A484068C0F3870505F0F4
:100DF0000305022DF7D130BD80FFFF1F08ED00E095
:100E00000000FA0500E100E004E100E000E400E099
:100E10000010024008000140000401400000FFF8FB
:100E2000FFFFF6FE0070004000200240014600BFB8
:100E3000704700BF324A128812F0400FFAD0C2B297
:100E40002F4B1B1D1A8070472DE9F05F05460E469B
:100E5000300101F0ABF881462A4905FB01F001F0B1
:100E6000A5F88246494600F0BFFF0746384601F024
:100E70007DF884B2204601F099F88346394601F0A6
:100E800075F982464FF0834101F0A4F8814601F0E4
:100E90006DF880464FF6FF7000EA041404EB08007A
:100EA00084B21948806940F00400174988610846F7
:100EB000806940F4804088611448006820F47F60B5
:100EC000124908600846006840F40B6008600E484C
:100ED000C06840F480400C49C8600846C06820F4EF
:100EE0008040C860064808300480001D008842F237
:100EF0000C01084302490C310880BDE8F09F000056
:100F00000038014040420F00001002400408014038
:100F10007047704770477047704710B500F008F889
:100F2000006810BD10B5044600F002F8046010BD62
:100F30000048704718000020004870471800002043
:100F40007546FFF7F9FFAE4605006946534620F0A7
:100F50000700854618B020B5FFF7BCF9BDE8204072
:100F60004FF000064FF000074FF000084FF0000B65
:100F700021F00701AC46ACE8C009ACE8C009ACE818
:100F8000C009ACE8C0098D4670470446AFF3008045
:100F90002046FFF7F2F82DE9F0414F1E00EBC701A4
:100FA0000446D1E9000115461E4637F006020DD071
:100FB0002A46334600F096FC7F1E04EBC703D3E9B4
:100FC000002300F027FA37F00602F1D1022F25D0D6
:100FD000042F13D0062F18BFBDE8F0812A463346F0
:100FE00000F080FCD4E90A2300F014FA2A463346C4
:100FF00000F078FCD4E9082300F00CFA2A463346C6
:1010000000F070FCD4E9062300F004FA2A463346C7
:1010100000F068FCD4E9042300F0FCF92A463346CA
:1010200000F060FCD4E9022300F0F4F92A463346CC
:1010300000F058FCD4E90023BDE8F04100F0EAB923
:101040002DE9F04DCC4A002490B0914205DA21F010
:101050000043934201D807D130B110B04FF00102E4
:10106000BDE8F04D01F033B9B1F5801F21DA53EA44
:1010700000020DD0002917DA0120FFF753FF10B04E
:101080000022BDE8F04D13461046114600F07EBA2E
:101090000220FFF747FF10B00022BDE8F04D1346D5
:1010A0001046B64900F072BA6FF03504362201F0EE
:1010B0000EF904EB2152C1F31308B149A2F2FF3338
:1010C000414401F4801282F07F6103EB225281F0EF
:1010D0004051009241EA08010022AA4B00F00CFDA9
:1010E000044608F10200A84EC0F313000D467E44EA
:1010F000032867D2D6E90023204600F09FFB1ED1CB
:101100000098002802BFD6E9000110B0BDE8F08DBC
:1011100000F0D0FB04460D469C4A9D4B00F0E2FBDC
:1011200007460E469B4A9C4B2046294600F0DAFBB8
:1011300010B03A463346BDE8F04D00F06BB94FF0C1
:101140005532964B2046294600F0CCFB0022944BAA
:1011500000F0C6FC07460E4622462B4610461946AE
:1011600000F0C0FB3A46334600F0BCFB0646009850
:101170000F46F0B100F09EFB80468A46834A844BBE
:1011800000F0B0FB32463B4600F0AAFC22462B465C
:1011900000F0B2FC05460C467E4A7F4B4046514665
:1011A00000F0A0FB10B02A462346BDE8F04D00F049
:1011B000A3BC0B4610B0324620462946BDE8F04D90
:1011C00000F09ABC00224FF08043204600F022F944
:1011D00002460B462046294600F0D8F906460F463F
:1011E000009800F067FBCDE9040132463B4610460B
:1011F000194600F077FB0C906A48099108EB000251
:1012000001920C9A0B46104600F06CFB8246024697
:1012100065488B46C8F151080B4608F5D7280321CD
:101220007844FFF7B8FE52465B4600F05BFB0A903D
:101230005E480D9152465B4604217844FFF7ABFEB1
:10124000099B0C9A00F04EFB019A0D9B42EA08089C
:101250000A9A00F0DFF883460891B8F1000F4EDDDE
:101260004FF0FF322046294601F031F822462B4646
:1012700000F038FB804600988A4660B3DDE904013F
:10128000424A434B00F02EFB099100905A464046DB
:101290005146089B00F0BEF832463B4600F022FB68
:1012A000099B009A00F0B6F84246534600F018FC3D
:1012B00022462B4600F020FC04460D46DDE90401E1
:1012C000344A354B00F00EFB10B022462B46BDE8E9
:1012D000F04D00F011BC5A464046089B00F09AF8C9
:1012E00032463B4600F0FEFA4246534600F0F8FB19
:1012F00010B022462B46BDE8F04D00F0F1BB00983F
:1013000040B3DDE90401214A214B00F0EBFA8246AB
:1013100088465A4620462946089B00F0EDFB324697
:101320003B4600F0DFFA5246434600F0E5FB22461A
:101330002B4600F0E1FB04460D46DDE90401154AA9
:10134000154B00F0CFFA10B022462B46BDE8F04D09
:1013500000F0D2BB0B465A462046294600F0CCFB93
:1013600032463B4600F0BEFA10B022462B46BDE89E
:10137000F04D00F0B5BB00000000F07F0000F0BFB2
:10138000645F09000000F03FA6120000763C79354A
:10139000EF39EA3D0000E0FE422EE63F5555D53FCD
:1013A0000000E03F86EBF9FF3C1100003A1100001D
:1013B00021F00042A2F16052B2F5801F01F000431B
:1013C00028BFD2F17F6C0BD95FEA001C43EAC2024E
:1013D00042EB507018BF704728BF20F001007047E3
:1013E000B2F5801FBCBF184670474FEA410C1CF590
:1013F000001F02D2084600F0B4BE70B500F01CFB1E
:1014000000000089FFF7F6BF4FF00040A0F5800014
:101410007047000010B591EA030F48BF83F0004306
:1014200000F17283841A71EB030C05D2121943EB9D
:101430000C03001B61EB0C01DFF824E14FEA1154AF
:10144000A4EB135C1EEA430F18BF9EEA445F73D0FF
:1014500023EA0E03DCF1200E21EA045143F4801349
:1014600032D322FA0CFE10EB0E0023FA0CFE41EBF5
:101470000E01CCF1200E03FA0EFE10EB0E0051F11E
:101480000001B1F5801FCCF1200E32D201EB0451E6
:1014900012FA0EF2BDE8104058BF7047401C38BF2A
:1014A0005FEA420218BF7047002814BF20F0010015
:1014B00041F100014FEA410313F5001F38BF7047A7
:1014C000A1F1C04100F006BB012A43EB0302ACF1DD
:1014D000200CDCF11F0E32BF4FF0000E23FA0CF38C
:1014E00010EB030041EB0451B4EB115FD0D0A1EB42
:1014F000045101F5801149085FEA300001EB045105
:101500000ED350F1000038BF12FA0EFE08D1BDE82C
:101510001040C9E7401C38BF5FEA4202CAD1C3E7A6
:10152000BDE810404FEA410313F5001F38BF704774
:10153000A1F1C04100F0CEBA9EEA445F08D011EAA2
:101540005E0FBDE8104004BF01F00041002070476D
:10155000BDE8104070B500F06FFA00BF64FBBE3EFE
:101560000000E0FF02494FF0000000F07EBE00BF27
:101570000000F87F491058BFC1F140415B1058BFCF
:10158000C3F140438B42EFF3008070472DE9C04127
:1015900030B4DFF8A0C23CEA111418BF3CEA1314BF
:1015A00000F0EC8081EA03051CEA111444EAD574CA
:1015B00018BF1CEA131500F0C780A4EB05044FF018
:1015C000004545EAC12145EAC32341EA505143EAB7
:1015D000525304F17F74994204F500344FEAC0205D
:1015E0004FEAC22208BF904200F09C804FEA136588
:1015F0000FF24016765D4FEA134506FB05F7C7F17B
:10160000807706FB07F74FEAD737A7FB03687642D8
:10161000C8F58038A7FB06CE38BFA8F1010807FB44
:1016200008E64FF0000EA6FB028CE6FB03CEDCF1D1
:10163000000CCEF1004E38BFAEF1010EA6FB0C58E7
:101640004FF000074FF00005E6FB0E87A1FB08C630
:10165000A0FB07CE16EB0E0645F10005E1FB076582
:1016600015F1E04E7EBFA4F580345FEA46066D4179
:1016700016F1800745F100054FEA17274FEA066685
:1016800047EA0567A6F1DE46B6F1805F4FEA152509
:101690001FD9384624F0010C05EBC471BCF1FE6F74
:1016A00001EB0C1102D8F0BCBDE8008124425CBF04
:1016B00001F5801E9EEAC47F02D4F0BCBDE8008123
:1016C000244238D4F0BCA1F1C041BDE8004100F093
:1016D00001BA4FEAD22242EA43524FEAD323A7FB90
:1016E00002864FEAD02040EA415007FB03661EEA1B
:1016F0000E0F4FEAD12105FB026658BFA6EB00563C
:10170000B6EB00564FEA520E4EEAC37E18EB0E0EB1
:1017100056EB530EBDD518EB02085E417F1C55F108
:101720000005B6E74FF480154FF000074FF00006B4
:101730004FF00008ADE7F0BC4FF0000001F1C041F0
:1017400001F00041BDE8008111EA0C1F0CEA1315FD
:1017500000D00CE013EA0C1F00F025804FF00000D1
:10176000F0BC81EA030101F00041BDE80081F0BC5A
:10177000BDE8004181EA030100F0ACB9F0BCBDE86E
:10178000004170B500F058F9097EFC3E00F007B842
:1017900081EA03014FF0000001F00041704781EA47
:1017A000030100F097B9F0BCBDE800414FF0000024
:1017B00021497047FFFDFBF9F7F5F4F2F0EEEDEB90
:1017C000E9E8E6E4E3E1E0DEDDDBDAD8D7D5D4D33F
:1017D000D1D0CFCDCCCBCAC8C7C6C5C4C2C1C0BF8B
:1017E000BEBDBCBBBAB9B8B7B6B5B4B3B2B1B0AF91
:1017F000AEADACABAAA9A8A8A7A6A5A4A3A3A2A175
:10180000A09F9F9E9D9C9C9B9A999998979796952F
:1018100095949393929191908F8F8E8E8D8C8C8BCB
:101820008B8A898988888787868585848483838253
:10183000828181800000FF070000F87F51EA030CDD
:1018400017D41CF5801F58BFBCF5801F00F106801F
:10185000994218BF704708BF9042704707D711F5EB
:10186000801F58BF13F5801F19D4994270478942D1
:1018700070471CF5801F08D5BCF5801FF7D58B423B
:1018800018BF704708BF824270474FF4001C1CEB22
:10189000410F38BF1CEB430F01D28B42704770B52C
:1018A00000F0CAF8922449004FF000514FF08053E5
:1018B000FFF760BE10F0004248BF4042B0FA80F32C
:1018C00010FA03F10AD0C3F11D0303F580634FEA58
:1018D000415002EB035202EBD12170474FF0000060
:1018E00070470000DFF848C170B51CEA111E1EBF2A
:1018F0001CEA13159EEA0C0F95EA0C0F00F06F809E
:1019000081EA030423EA4C134EEAD47E21EA4C1107
:1019100041F4801143F48013AE44A1FB024CA0FBC0
:101920000365AEF17F7E361955EB0C05A1FB034C28
:101930004CF10003A0FB021C16EB0C06654153F1B1
:101940000003094218BF46F0010613F4007F0BD1D3
:101950004FEA03314FEA0530340341EA155140EABA
:1019600016506FF003020AE04FEAC3214FEAC52088
:10197000F40241EA555140EA56506FF0020202EB80
:101980002E4201EB025585EACE710AD05FEA440C83
:1019900018BF24F0004450F1000041F1000120EA9A
:1019A000D47040F2FE7C624500D270BDA84214BFE4
:1019B0004FF080444FF04044002E08BF0024BEF199
:1019C000806FA8BFA1F1C041BDE8704080F2828065
:1019D0004FF0000001F1C04101F0004170479EEA64
:1019E0000C0F0CEA131518BF95EA0C0F06D04FF038
:1019F000000081EA030E0EF0004170BD00F01CF8FB
:101A00008900013E00F007B800F009B84FEA430C26
:101A10005FEA5C5C08D081EA030100F05BB84FEA42
:101A2000410C5FEA5C5CF6D14FF000000149704761
:101A30000000FF070000F87F0EF1020E2EF0030EEB
:101A40005EF8046B364205D4012A43EB030515F515
:101A5000001F12D8012841EB010C1CF5001F0CD807
:101A60000ED14FEAD17C15F5001F0CEB4C0C0CF19C
:101A7000020C08BF4CEBD37C04E04FF0080C01E0F3
:101A80004FEAD37C0CEB4C0526FA05F606F0070668
:101A9000B6F1040C06D20EEB860CBDE870404CF09B
:101AA000010C6047DFE80CF0090B02024FF0004127
:101AB0004FF00000A1F5002170BD19461046012825
:101AC00051EB010418BFD4F5001484BF002001F0CD
:101AD000004170BD0808A0F500114FEA31017047C0
:101AE00091EA030F10B581F000413FF59BAC83F004
:101AF000004300F009B8000010B591EA030F48BF99
:101B000083F000433FF58EAC841A71EB030C07D2CF
:101B100012198CF0004C43EB0C03001B61EB0C0121
:101B2000DFF8A4E14FEA1154A4EB135C1EEA430F63
:101B300018BF9EEA445F00F0B08023EA6E03524271
:101B400021EA0451C3EB6E0338BF5B1EDCF1200EAB
:101B500025D322FA0CFE10EB0E0043FA0CFE41EBEB
:101B60000E01CCF1200E03FA0EFE10EB0E0051F127
:101B70000001CCF1200E29D412FA0EF201EB04512F
:101B8000BDE8104058BF7047401C1CBFB2F1004F69
:101B9000704700280CBF491C20F00100704712EB71
:101BA000020E43EB030218BF4FF0010E4EEA420251
:101BB000ACF1200CDCF11E0E54D943FA0CFE10EBF4
:101BC0000E0051F1FF31CCF11E0ED5D50EF1010EF4
:101BD00012FA0EFE404141EB010101EB445C5FEA69
:101BE0005C5C10D910EBDE7001EB045138BFBEF124
:101BF000004FBDE8104018BF704700280CBF491CBB
:101C000020F00100704730D24FEAD42C11F50011BA
:101C100024F400641BD0B1FA81F20B3AA41AA41E7A
:101C2000D2F12003914030FA03F31943904001EBC5
:101C3000CC71002C01EB0451BDE81040A8BF7047E7
:101C400001F1C0414FF0000001F000417047B0FACF
:101C500080F310FA03F100D110BDE41A173C4805D7
:101C6000C90AE4E701EB045110BD491001EB04512E
:101C7000BDE810404FEA300002E04FF0000170472D
:101C80004A0008BF0042F8D0B2F5001F28BF7047D5
:101C900001F000414FF0000070479EEA445F07D01A
:101CA00011EA5E0FBDE8104004BF0021002070471C
:101CB000BDE8104070B5FFF7BFFE00BF40DFF63E45
:101CC00083F00041104670470000E0FF43004FEAF8
:101CD000D30C4FEA3C0C43401FBF40070CF160514E
:101CE00013F0FE4F70471CF0006F03D100200CF082
:101CF000004170470CF0004343EA507010B540EAD1
:101D0000CC0000F0E8F900BF000000924FEA0001AB
:101D1000FFF7E0BE4FF000414FF00000A1F50021B9
:101D20007047000090EA010F48BF81F0004100F1C8
:101D30002E82421A3CBF801A89184FEAD0524FF0C7
:101D40007F4C1CEA410FA2EBD15318BF9CEA026FF3
:101D500000F03B804FF0004C4CEA00204CEA01219F
:101D600021FA03FC10EB0C0C1ED202F1FF325FEAE9
:101D70001C2040EBC25038BF70471CF07F0F4FEA69
:101D8000400C18BFBCF17F4F38BF7047C3F1200330
:101D9000994008BF20F00100BCF17F4F38BF704769
:101DA000A0F1C04000F0DDB94FEA3C00000A40EB72
:101DB000C25028BF1CF0FF0F4FEA400CE6D018BFFE
:101DC000BCF17F4F38BF7047EAE79CEA026F05D04D
:101DD00010EA5C0F08BF00F00040704710B500F03B
:101DE0007AF900BF64FBBE3E4FF47F0C1CEAD012B0
:101DF0001EBF1CEAD11392EA0C0F93EA0C0F00F0FD
:101E0000858090EA010F48BF42F4807240F4000CD4
:101E100041F400002CF07F4120F07F4000B581426A
:101E2000A2EB03020FF2081CACEB504EC0F1000015
:101E30009EF800E04FEA4E0E00FB0EFC38BF490052
:101E40004FEA2C1C02F5FA020CFB0EF34FEACE1EF1
:101E50004FEA112C4FEAC1210EEB635E42EB2242A6
:101E60000EFB0CFC4FEA1C5300FB03114FEA112C34
:101E70004FEA01310EFB0CFC4FEADC4C00FB0C116D
:101E8000C14228BF09184CEB03335DF804EB10EB9B
:101E9000410143EBC250B2F57C0F38BF704729D5E2
:101EA00012F0F00F1CBF00F1C04000F0004070477E
:101EB000008182838485868788898B8C8D8E8F9123
:101EC0009293959697999A9C9D9FA0A2A3A5A7A847
:101ED000AAACAEB0B2B3B5B7B9BCBEC0C2C5C7C973
:101EE000CCCED1D4D7D9DCDFE2E6E9ECF0F3F7FAD7
:101EF000FE0000004FEA400C0CF1807CBCF17E4FEC
:101F000028BF7047B0F1C04000F02BB990EA010F34
:101F10000CEAD11348BF42F48072624538BF634572
:101F200007D213F47F0F16D080EA010000F00040C2
:101F3000704710B500F0CFF8097EFC3E00F005B800
:101F400080EA010000F00040704780EA010000F0E4
:101F5000004000F006B912F47F0F04BF024870473A
:101F600080EA010000F0FDB80000C07FC10DD1F192
:101F70009E0206DB4FEA002343F0004323FA02F0FF
:101F80007047004207D54FEA4001B1F1FE4F02D23F
:101F90004FF00000704710B500F09DF84992248082
:101FA000002070476FEA200070470000B0FA80F30D
:101FB00010FA03F2C3F19D030AD0D90501EB1220F8
:101FC000530638BF704700F1010008BF20F0010040
:101FD000704700004FF47F0C1CEAD0121EBF1CEAB1
:101FE000D11392EA0C0F93EA0C0F00F0478090EAAD
:101FF000010F48BF42F480724FF0004C4CEA0020C1
:102000004CEA012102EB0302A0FB0113A2F500023E
:10201000002918BF43F001035B0028BF4FEA3303D8
:1020200042EB22425FEA132C4CEBC2502EBFBCEBBA
:10203000436FB2F57C0F70474FEA036CBCF1004F61
:1020400008BF20F00100B2F57C0F38BF70470BD5F8
:1020500082F0FF0212F5803FC8BF704700F1C04018
:10206000D8BF00F00040704700F5000C5FEA4C0C50
:1020700048BF7047B0F1C04000F073B890EA010F5C
:102080000CEAD11348BF42F48072624538BF634501
:1020900004D280EA010000F00040704710B500F063
:1020A0001AF800BF8900013E00F007B800F009B837
:1020B0005FEA410C5FEA1C6C08D080EA010000F086
:1020C00050B85FEA400C5FEA1C6CF6D14FF000405C
:1020D000A0F5800070470EF1020E2EF0030E5EF8A0
:1020E000044B244204D44FEA4102B2F17F4F11D88D
:1020F0004FEA4003B3F17F4F0CD80ED14FEAD07CAA
:10210000B2F17F4F0CEB4C0C0CF1020C08BF4CEB06
:10211000D17C04E04FF0080C01E04FEAD17C0CEBDD
:102120004C0324FA03F404F00704B4F1040C06D2BF
:102130000EEB840CBDE810404CF0010C6047DFE86A
:102140000CF0070802024FF00040A0F5800010BD1F
:102150000846420018BFD2F1807288BF00F00040EC
:1021600010BDFF2141EAD050C005704780F000400B
:1021700090EA010F7FF5DDAD81F0004100F007B876
:1021800090EA010F48BF81F000413FF5D2AD421AFD
:1021900004D882F00042A0EB020011444FEAD05272
:1021A0004FF07F4C1CEA410FA2EBD15318BF9CEAC1
:1021B000026F4AD04FF0004C4CEA00204CEA01215B
:1021C00021FA03FCB0EB0C0C0FD412F0FE0F36D04A
:1021D0005FEA4C001DD5001240EBC25038BF70477B
:1021E0001CF03F0F18BF70470BE0A2F101025FEA3D
:1021F0001C2040EBC25038BF70471CF07F0F18BF47
:102200007047C3F12003994014BF401E20F0010025
:10221000704780084FEA122308BF7047B0FA80FC6D
:10222000A2EB0C02CCF1280C60FA0CF093EA122F0E
:1022300004BF00EBC25070474FEAC3707047130AE7
:102240005FEADC1008BF7047F6E79CEA026F04D033
:1022500010EA5C0F08BF0020704710B5FFF73BFF86
:1022600040DFF63E81F0004070470CF00F03092B71
:1022700008BF082000F059800A2B0BD0082B18BF8C
:10228000704708BF1CF0400F0AD04FF000004FF01D
:10229000000170471CF0400F18BF4FF0004070471E
:1022A0001CF0100F08D020F0704300F07F4242EA8B
:1022B000D3014FEA4370704700F0604021F07F4245
:1022C00042EA000201F07F4040EA727070474FF02E
:1022D000FF0C4CF4E06C1CEA11531CBF9CEA030C8D
:1022E0009445C2BFDA4201EB02517047002B0DD07A
:1022F000BCF1000F0FD0002A01F00041A4BF41F053
:10230000E04141F07F614FF00000704701F0004173
:102310004FF00000704750EA01334FF09B0C18BF9C
:102320004CF0806C7FF41EA970471CF4801F11D004
:102330001CF4E02F03D06FEACC31490070474FF016
:102340004050EFF3008222F0704242EA000282F332
:10235000008870474FF00000704700000000000048
:1023600004FA97999999D93FAF788E1DC571CC3FE2
:102370009FC678D0099AC33F935555555555E53FAB
:10238000599322942449D23FDE03CB966446C73F3B
:1023900044523EDF12F1C23F000000000000000086
:1023A000C0230008000000201800000028010008D9
:1023B000D823000818000020600200004401000833
:1023C0003F065B4F666D7D077F6FBF86DBCFE6ED17
:0823D000FD87FFEF0000000093
:04000005080000ED02
:00000001FF
