:020000040800F2
:10000000680200206101000865010008670100081E
:10001000690100086B0100086D0100080000000084
:100020000000000000000000000000006F01000858
:10003000710100080000000073010008750100084C
:1000400077010008770100087701000877010008B0
:1000500077010008770100087701000877010008A0
:100060007701000877010008770100087701000890
:100070007701000877010008770100087701000880
:100080007701000877010008770100087701000870
:100090007701000877010008770100087701000860
:1000A0007701000877010008770100087701000850
:1000B0007701000877010008770100087701000840
:1000C0007701000877010008770100087701000830
:1000D000770100082D050008770100087701000866
:1000E000770100087701000877010008DFF80CD0DD
:1000F00000F0DEFD0048004705010008680200200E
:1001000030BF0000092000F0A8F9482000F036F8C0
:100110004FF41651482000F044FA00F0B9FA00F00C
:1001200081FB4FF4967000F045F840F271210420F5
:1001300000F08AFC0120084908600849C1F8AC01B8
:1001400008E000F088FB012801D100F08BFC0A20B8
:1001500000F030F8F5E70000A00123420000234240
:1001600005480047FEE7FEE7FEE7FEE7FEE7FEE79D
:10017000FEE7FEE7FEE7FEE7ED0000084FF0E021B6
:10018000096921F004014FF0E0221161C21700EB70
:100190005272C2F3C702224B1A701946097801EB5A
:1001A0004102C2EBC1114FF6FF7202EAC1011D4AC2
:1001B0001180704701461B4A12884A434FF0E023E2
:1001C0005A6100229A6101221A6100BF4FF0E022B9
:1001D000106910F0010F02D010F4803FF6D0002219
:1001E0004FF0E0231A619A61704701460C4A127879
:1001F0004A434FF0E0235A6100229A6101221A61BA
:1002000000BF4FF0E022106910F0010F02D010F48F
:10021000803FF6D000224FF0E0231A619A617047C8
:100220000000002002000020AC4A0A400243AC4B10
:100230001A6070470146072323EA01021202A84B05
:100240001B1D18684FF6FF031840A64B18431043B8
:10025000A34B1B1D186070472DE9F0478046894667
:1002600014461D462046E11704EB9171C1F3870A3D
:10027000E11704EB91718910A4EB8101CFB2042046
:1002800000EBC700C7B22846FFF7D4FFC5F1040052
:1002900008FA00F60F20284100EA0900064306F09C
:1002A0000F06202C0CDA904801684FF0010000FA8C
:1002B00004F041EA00014FF0E020C0F800110DE029
:1002C0008A480068A4F120014FF0010202FA01F20D
:1002D00040EA02004FF0E021C1F80401844850F8E0
:1002E0002A0006FA07F140EA0100814941F82A0094
:1002F000BDE8F08770B504460B46CE1701EB967645
:10030000C6F38700CE1701EB9676B610A1EB8606F2
:10031000B606350E774B9B6943F00103754EB3610A
:100320004FEAB63353F820300F26AE40B343724E37
:1003300046F82030334653F8203004FA05F61E43C1
:100340006D4B43F820606D4B1B6801268E40334394
:100350006A4E336012F0010F08D0684B0C331B68F3
:1003600001268E403343654E0C36336012F0020F87
:1003700008D0624B08331E6801238B401E435F4B3D
:1003800008331E6070BD00B500205A490861C8607E
:100390001420486100208861C8610846006840F068
:1003A00001000860084640685549084051494860C6
:1003B00008460068534908404E49086008460068EE
:1003C00020F4802008600846406820F4FE00486061
:1003D0000020886000214FF00060FFF725FF00BD7E
:1003E00010B53F480830006840F004003C4908312F
:1003F00008604048C06940F080503E49C8614248AA
:10040000406840F48070404948600846006840F009
:10041000040008600846006840F002000860FFF72A
:100420006FFE10BD2F48001D2D49091D0860704743
:10043000014649062F4A926942F001022D4B9A610A
:100440002D4A083A526822F0E0622B4B083B5A6072
:100450001A4652680A435A60704730B50446002570
:10046000FFF791FF2348006840F48030214908607D
:1004700000BF20480068400CFBD04FF480601D494D
:100480004860A01EC4B20846406840EA8440486004
:100490000846406840F4803048601C48006840F0DE
:1004A00032001A4908601348006840F08070114912
:1004B000086000BF0F480068400EFBD00D48406840
:1004C00040F002000B49486005E00A484068C0F36C
:1004D000870505F00305022DF7D130BD80FFFF1F12
:1004E00008ED00E00000FA0500E100E004E100E0B2
:1004F00000E400E000100240080001400004014058
:100500000000FFF8FFFFF6FE0070004000200240F0
:10051000014600BF704700BF574A128812F0400FD3
:10052000FAD0C2B2544B1B1D1A8070475249098839
:1005300011F0200F34D05049091D0988C8B24F4925
:10054000097811F0800F2BD14C49097811F0400F38
:100550000CD00A2803D00021484A117020E04749F6
:10056000097841F08001454A117019E00D2806D143
:100570004249097841F04001404A117010E03F497A
:10058000097801F03F013E4A50543C490978491C22
:100590003A4A1170114609783F2901DD0021117096
:1005A00070472DE9F05F05460E46300100F030FB44
:1005B0008146344905FB01F000F02AFB824649469A
:1005C00000F0E6FA0746384600F027FB84B22046E2
:1005D00000F01EFB8346394600F0A1FA82464FF038
:1005E000834100F09FFA814600F017FB80464FF6EA
:1005F000FF7000EA041404EB080084B2224880690A
:1006000040F00400204988610846806940F4804039
:1006100088611E48006820F47F601C490860084615
:10062000006840F40B6008601748C06840F48040E0
:100630001549C8600846C06820F48040C8600E486C
:1006400008300480001D008842F20C0108430A496A
:100650000C3108800846008840F480700880084605
:10066000008840F02000088002232522032108464C
:10067000FFF7F2FDBDE8F09F0038014004000020C4
:100680002400002040420F000010024004080140F6
:100690005848806940F001005649886108468069E1
:1006A00040F0080088610846806940F04000886199
:1006B0005148406840F000704F4948604F4800681A
:1006C0006FF30F004D4908600846006843F233316C
:1006D00008434A49086049480C30006840F0FF0070
:1006E00046490C31086046480068002044490860CB
:1006F0000846006840F03330086041480830006820
:100700003F4908310860704700F001013D4A11601F
:10071000C0F340013C4AC2F8A411C0F380013B4A37
:100720001160C0F3C00102F104021160C0F30011B6
:1007300002F104021160C0F3401102F104021160E1
:10074000C0F3801102F104021160C0F3C0112E4AFF
:10075000C2F8BC11704730B503460C46184603EB8F
:10076000D0714910A3EB4101294A1160194603EBEE
:10077000D1724FEA620000EBD0724FEA6202A0EB46
:100780004202244DC5F8842118464FEAE37103EB79
:1007900091714FEAA101204A11602049085DFFF7DD
:1007A000B3FF30BD30B503460C46184603EBD0719D
:1007B0004910A3EB4101164A1160194603EBD172AF
:1007C0004FEA620000EBD0724FEA6202A0EB4202F5
:1007D000104DC5F8842118464FEAE37103EB91717F
:1007E0004FEAA1010C4A11600D49085DFFF78CFF2B
:1007F00030BD00000010024000000140000C01402C
:1008000004180140A001234200002342A801234212
:100810008081214200802142888121420C000020F9
:10082000160000208048806940F010007E498861F1
:100830007E4800686FF30B007C490860084600683A
:1008400040F688010843794908600846C06840F0CE
:100850000700C860704710B575480078F0B175485A
:10086000006830B17448006818B174480068012805
:1008700014D10A20FFF79EFC00206D4908706D48D6
:10088000006808B9012010BD6B48006808B9022053
:10089000F9E76A48006878B90320F4E7654800681A
:1008A000012809D164480068012805D1634800681F
:1008B000012801D15E4908700020E4E75A488069A8
:1008C00040F01000584988615848006820F00F0037
:1008D000564908605448806940F400705249886164
:1008E0000846C06840F40070C8600846C06820F43C
:1008F0000070C8600846406820F4404048600846E0
:10090000406840F4004048604D4800684D49084048
:100910004B4908600846006808600846006820F4F3
:1009200080700860081D006820F00200091D086042
:100930000846006820F4602008600846006840F41B
:10094000602008600846006840F48010086008468F
:10095000006820F40060086039482830006820F4FE
:100960007000374928310860084600680020086098
:1009700033480830006820F00F0031490831086022
:100980000846006840F007000860081F006840F053
:100990000100091F08600846006840F00800086070
:1009A00000BF2748001D006810F0080FF9D1244847
:1009B000001D006840F004002149091D086000BFC7
:1009C0001F48001D006810F0040FF9D17047014660
:1009D0001B483030006820F01F00194A3032106088
:1009E00010460068084310601548001D006840F478
:1009F0008000134A121D106000BF1148001F0068DC
:100A000010F0020FF9D00E484830006880B27047ED
:100A100010B504462046FFF7DAFF03469B1103F0AA
:100A20000703184610BD00000010024000100140EE
:100A3000200000200801224204012242000122423B
:100A400004240140FFFFF00045F25552084B1A60A4
:100A50001A46506091604AF6AA221A604CF6CC42BF
:100A60001A6070474AF6AA200149086070470000E2
:100A700000300040F0B480EA0102D40F4200B2EB33
:100A8000410F02D20246084611464A0042D0C30D29
:100A9000DDB2C1F3C752AD1A202D35DAC1F316010C
:100AA00041F4000204B15242C5F1200602FA06F1F7
:100AB0002A411044B3EBD05F23D0C4B1012DA0EB89
:100AC000C35009DCF0BC4FF0004202EAC35200F50B
:100AD0000000DBB200F0BEB8400000F1807000EB17
:100AE000C350A0F1807040EAD170490009E0490884
:100AF00041EAC071A0EBC35000F50000400800EBD4
:100B0000C350F0BC00F09DB86142012202EB4101EC
:100B1000001BF6E7F0BC704781F00041AAE780F0C7
:100B20000040A7E780EA010210B502F00043400050
:100B300026D04A0023D04FEA106101EB1261C0F3C6
:100B40005600C2F3560240F4000042F40002A0FB3B
:100B50000220A1F17F014FEA0040140401D000F10E
:100B6000010050EA124001D44000491EC2B20C06F6
:100B700004EBD010401C4008802A02D003E0002083
:100B800010BD20F00100002900DA0020184310BD3C
:100B900030B480EA010202F0004530F0004221F05A
:100BA000004015D0A0B1C0F3C753C2F3C754C2F37D
:100BB0001601C0F31600E41A41F4000140F40002EB
:100BC0007D34914201D3641C00E04900002C02DA1C
:100BD00030BC002070474FF400000023914201D345
:100BE000891A034340084FEA4101F7D151B19142BC
:100BF00002D14FF0004105E002D24FF0010101E0C7
:100C00006FF0010103EBC450284430BC00F019B868
:100C100096230022114600F01DB820F00040C10DBF
:100C2000C0F3160040F400007F2901DA002070476D
:100C3000962903DCC1F19601C84070479639884077
:100C400070470029A8BF7047401C490008BF20F02A
:100C50000100704710B4B0FA80FC00FA0CF050EAC2
:100C6000010404BF10BC704749B1CCF1200421FA43
:100C700004F411FA0CF118BF012121430843A3EB3E
:100C80000C01CB1D0106000A002BBEBF002010BCCA
:100C9000704700EBC35010440029A4BF10BC70473C
:100CA000401C490008BF20F0010010BC7047000044
:100CB000064C074D06E0E06840F0010394E80700A9
:100CC00098471034AC42F6D3FFF714FAF40C00083E
:100CD000140D000802E008C8121F08C1002AFAD14A
:100CE00070477047002001E001C1121F002AFBD1AC
:100CF00070470000140D00080000002024000000D0
:100D0000D40C0008380D0008240000204402000024
:100D1000E40C0008000000000000000000000000DB
:100D20003F065B4F666D7D077F6FBF86DBCFE6EDCD
:080D3000FD87FFEF0100000048
:04000005080000ED02
:00000001FF
