:020000040800F2
:10000000880200204D070008510700085307000828
:1000100055070008570700085907000800000000AE
:100020000000000000000000000000005B07000866
:100030005D070008000000005F0700086107000876
:1000400063070008630700086307000863070008E8
:1000500063070008630700086307000863070008D8
:1000600063070008630700086307000863070008C8
:1000700063070008630700086307000863070008B8
:1000800063070008630700086307000863070008A8
:100090006307000863070008630700086307000898
:1000A0006307000863070008630700086307000888
:1000B0006307000863070008630700086307000878
:1000C0006307000863070008630700086307000868
:1000D0006307000863070008630700086307000858
:1000E00063070008630700086307000800F002F8D0
:1000F00000F03CF80AA090E8000C82448344AAF186
:100100000107DA4501D100F031F8AFF2090EBAE883
:100110000F0013F0010F18BFFB1A43F0010318473B
:10012000EC0600000C070000103A24BF78C878C124
:10013000FAD8520724BF30C830C144BF04680C60ED
:10014000704700000023002400250026103A28BF35
:1001500078C1FBD8520728BF30C148BF0B60704739
:100160001FB500F04CFB1FBD10B510BD00F00BFB20
:100170001146FFF7F5FF00F0B6FA00F029FB03B4D3
:10018000FFF7F2FF03BC00F033FB000030BF0000BC
:10019000AF4A0A400243AF4B1A607047014607233B
:1001A00023EA01021202AC4B18684FF6FF0300EA83
:1001B0000300AA4B40EA030040EA02004FF0E023AC
:1001C000C3F80C0D70472DE9F04780468946144668
:1001D0001D462046E11704EB91714FEAA10AE11791
:1001E00004EB91718910A4EB8101CFB2042000EBE4
:1001F000C700C7B22846FFF7D1FFC5F1040008FACF
:1002000000F60F20284100EA0900064306F00F0619
:10021000202C0CDA924800684FF0010101FA04F139
:1002200040EA01004FF0E021C1F800010DE08D48E7
:100230000068A4F120014FF0010202FA01F240EA45
:1002400002004FF0E021C1F80401874850F82A006D
:1002500006FA07F10843844941F82A00BDE8F0870F
:1002600070B504460B46CE1701EB9676B010CE174C
:1002700001EB9676B610A1EB8606B606350E7B4BE3
:100280009B6943F00103794EB3614FEAB63353F8EB
:1002900020300F26AE40B343754E46F8203033462B
:1002A00053F8203004FA05F63343714E46F82030F7
:1002B000704B1E684FF0010303FA01F346EA030690
:1002C0006D4BC3F8006412F0010F0AD06B4B1B6832
:1002D0004FF0010606FA01F643EA0603664EC6F839
:1002E0000C3412F0020F0AD0654B1B684FF0010668
:1002F00006FA01F643EA06035F4EC6F8083470BDFD
:1003000000B5002059490861C860142048610020E8
:100310008861C8610846006840F00100086008462E
:1003200040685849084051494860084600685649A5
:1003300008404E4908600846006820F480200860A4
:100340000846406820F4FE004860002088600021D4
:100350004FF00060FFF71CFF00BD10B54B48006870
:1003600040F004004FF0E021C1F8100D3F48C06993
:1003700040F080503D49C8614548406840F4807075
:10038000434948600846006840F004000860084699
:10039000006840F002000860FFF7F8FE10BD2F482B
:1003A000001D2D4908607047014649062F4A926991
:1003B00042F001022D4B9A612F4A526822F0E0620E
:1003C0002D4B5A601A4652680A435A60704730B53E
:1003D00004460025FFF794FF2448006840F480306D
:1003E0002249086000BF21480068400CFBD04FF450
:1003F00080601E494860A01EC4B20846406840EABA
:10040000844048600846406840F480304860214895
:10041000006840F032001F4908601448006840F04E
:1004200080701249086000BF10480068400EFBD081
:100430000E48406840F002000C49486005E00B4857
:100440004068C0F3870505F00305022DF7D130BDE4
:1004500080FFFF1F08ED00E00CED00E00000FA0552
:1004600000E100E004E100E000E400E000100240F0
:100470000800014000040140000001400C0401405C
:10048000080401400000FFF8FFFFF6FE10ED00E059
:1004900000700040002002404FF0E021096921F087
:1004A00004014FF0E0221161C21700EB5272D2102A
:1004B0001F4B1A70194609784FF47A7251431D4A3E
:1004C0001180704701461B4A12884A434FF0E023CF
:1004D0005A6100229A6101221A6100BF4FF0E022A6
:1004E000106910F0010F02D010F4803FF6D0002206
:1004F0004FF0E0231A619A61704701460C4A127866
:100500004A434FF0E0235A6100229A6101221A61A6
:1005100000BF4FF0E022106910F0010F02D010F47C
:10052000803FF6D000224FF0E0231A619A617047B5
:1005300000000020020000204F48806940F00100C8
:100540004D4988610846806940F008008861084686
:10055000806940F0400088614848406840F0007081
:1005600046494860464800686FF30F00C1F8000C28
:100570004348006843F2333140EA01003F49C1F883
:10058000000C0846D0F80C0C40F00F00C1F80C0C21
:100590003C48D0F804084FF000003A49C1F804087C
:1005A0000846D0F8040840F03330C1F80408084683
:1005B000D0F80C0840F47F40C1F80C08704732496D
:1005C000096821F47F412F4AC2F80C181146D1F86E
:1005D0000C1841EA0021C2F80C18704730B50346E8
:1005E0000C46184603EBD3714910A3EB4101274A8F
:1005F0001160194603EBD3724FEA620000EBD07230
:100600004FEA6202A0EB4202214DC5F88421184650
:100610004FEAE37103EB91714FEAA1011D4A1160AA
:100620001D49085DFFF7CBFF30BD30B503460C46D2
:10063000184603EBD3714910A3EB4101134A116033
:10064000194603EBD3724FEA620000EBD0724FEA17
:100650006202A0EB42020E4DC5F8842118464FEA13
:10066000E37103EB91714FEAA1010A4A11600B4952
:10067000085DFFF7A4FF30BD0010024000000140FC
:10068000000C0140001001400C1801408081214203
:100690000080214288812142040000200E000020B9
:1006A0002DE9F0410546002619E02F46002413E00D
:1006B0000A20B7FBF0F100FB117000F0FF08C4F155
:1006C0000701C8B24146FFF789FF0120FFF7FAFE94
:1006D0000A20B7FBF0F7641C082CE9D3761C642EC3
:1006E000E3D3BDE8F0810620FFF771FE4820FFF755
:1006F000D3FEFFF721FF0020104908601049086071
:100700000AE00F4800680F490D4A126888540C48E7
:100710000068401C0A490860094800680828F0D3AE
:1007200000200949086008E007480068FFF7B8FFA3
:1007300005480068401C04490860F5E78C812142A7
:10074000180000201C00002024000020084800475A
:10075000FEE7FEE7FEE7FEE7FEE7FEE7FEE7FEE771
:10076000FEE7FEE703480449024A044B70470000D5
:10077000ED0000088800002088020020880000208A
:10078000704770477047754600F028F8AE46050080
:100790006946534620F00700854618B020B5FFF79C
:1007A000E1FFBDE820404FF000064FF000074FF09A
:1007B00000084FF0000B21F00701AC46ACE8C0097F
:1007C000ACE8C009ACE8C009ACE8C0098D46704788
:1007D0000446AFF300802046FFF7D1FC0048704785
:1007E0002800002001487047704700BF2C000020FF
:1007F00001491820ABBEFEE726000200704710B585
:10080000FFF7F0FF4FF00001016010BD2C08000859
:1008100000000020280000002801000854080008FB
:1008200028000020600200004401000800000000D1
:100830003F065B4F666D7D077F6FBF86DBCFE6EDC2
:10084000FD87FFEF00000000000000000000000036
:0408500000000000A4
:040000050800074D9B
:00000001FF
